{"src/TimeLendMVP.sol":{"TimeLendMVP":{"abi":[{"inputs":[{"internalType":"address","name":"_burnAddress","type":"address"}],"stateMutability":"nonpayable","type":"constructor"},{"inputs":[],"name":"DeadlineNotReached","type":"error"},{"inputs":[],"name":"DeadlineReached","type":"error"},{"inputs":[],"name":"InsufficientQualityScore","type":"error"},{"inputs":[],"name":"InvalidDeadline","type":"error"},{"inputs":[],"name":"InvalidStatus","type":"error"},{"inputs":[],"name":"InvalidValue","type":"error"},{"inputs":[],"name":"NoProofSubmitted","type":"error"},{"inputs":[],"name":"NotAuthorized","type":"error"},{"inputs":[],"name":"QualityScoreTooHigh","type":"error"},{"inputs":[],"name":"TransferFailed","type":"error"},{"anonymous":false,"inputs":[{"indexed":true,"internalType":"uint256","name":"commitmentId","type":"uint256"},{"indexed":true,"internalType":"address","name":"user","type":"address"},{"indexed":true,"internalType":"address","name":"verifier","type":"address"},{"indexed":false,"internalType":"address","name":"auditor","type":"address"},{"indexed":false,"internalType":"address","name":"penaltyReceiver","type":"address"},{"indexed":false,"internalType":"uint256","name":"stake","type":"uint256"},{"indexed":false,"internalType":"uint64","name":"deadline","type":"uint64"},{"indexed":false,"internalType":"string","name":"taskURI","type":"string"}],"name":"CommitmentCreated","type":"event"},{"anonymous":false,"inputs":[{"indexed":true,"internalType":"uint256","name":"commitmentId","type":"uint256"},{"indexed":true,"internalType":"address","name":"resolver","type":"address"}],"name":"CommitmentFailed","type":"event"},{"anonymous":false,"inputs":[{"indexed":true,"internalType":"uint256","name":"commitmentId","type":"uint256"},{"indexed":true,"internalType":"address","name":"verifier","type":"address"}],"name":"CommitmentSucceeded","type":"event"},{"anonymous":false,"inputs":[{"indexed":true,"internalType":"uint256","name":"commitmentId","type":"uint256"},{"indexed":false,"internalType":"uint8","name":"qualityScore","type":"uint8"},{"indexed":true,"internalType":"address","name":"auditor","type":"address"}],"name":"CommitmentVerified","type":"event"},{"anonymous":false,"inputs":[{"indexed":true,"internalType":"uint256","name":"commitmentId","type":"uint256"},{"indexed":true,"internalType":"address","name":"penaltyReceiver","type":"address"},{"indexed":false,"internalType":"uint256","name":"amount","type":"uint256"}],"name":"PenaltyClaimed","type":"event"},{"anonymous":false,"inputs":[{"indexed":true,"internalType":"uint256","name":"commitmentId","type":"uint256"},{"indexed":false,"internalType":"string","name":"proofURI","type":"string"}],"name":"ProofSubmitted","type":"event"},{"anonymous":false,"inputs":[{"indexed":true,"internalType":"uint256","name":"commitmentId","type":"uint256"},{"indexed":true,"internalType":"address","name":"user","type":"address"},{"indexed":false,"internalType":"uint256","name":"amount","type":"uint256"}],"name":"UserClaimed","type":"event"},{"anonymous":false,"inputs":[{"indexed":true,"internalType":"uint256","name":"commitmentId","type":"uint256"}],"name":"VerificationRequested","type":"event"},{"inputs":[],"name":"admin","outputs":[{"internalType":"address","name":"","type":"address"}],"stateMutability":"view","type":"function"},{"inputs":[],"name":"burnAddress","outputs":[{"internalType":"address","name":"","type":"address"}],"stateMutability":"view","type":"function"},{"inputs":[{"internalType":"uint256","name":"commitmentId","type":"uint256"}],"name":"claimPenalty","outputs":[],"stateMutability":"nonpayable","type":"function"},{"inputs":[{"internalType":"uint256","name":"commitmentId","type":"uint256"}],"name":"claimSuccess","outputs":[],"stateMutability":"nonpayable","type":"function"},{"inputs":[{"internalType":"uint256","name":"","type":"uint256"}],"name":"commitments","outputs":[{"internalType":"address","name":"user","type":"address"},{"internalType":"address","name":"verifier","type":"address"},{"internalType":"address","name":"auditor","type":"address"},{"internalType":"address","name":"penaltyReceiver","type":"address"},{"internalType":"uint256","name":"stake","type":"uint256"},{"internalType":"uint64","name":"createdAt","type":"uint64"},{"internalType":"uint64","name":"deadline","type":"uint64"},{"internalType":"enum TimeLendMVP.Status","name":"status","type":"uint8"},{"internalType":"uint8","name":"qualityScore","type":"uint8"},{"internalType":"string","name":"taskURI","type":"string"},{"internalType":"string","name":"proofURI","type":"string"},{"internalType":"string","name":"verificationNotes","type":"string"}],"stateMutability":"view","type":"function"},{"inputs":[{"internalType":"uint256","name":"commitmentId","type":"uint256"},{"internalType":"uint8","name":"minQualityScore","type":"uint8"}],"name":"confirmSuccess","outputs":[],"stateMutability":"nonpayable","type":"function"},{"inputs":[{"internalType":"uint64","name":"durationSeconds","type":"uint64"},{"internalType":"address","name":"verifier","type":"address"},{"internalType":"address","name":"auditor","type":"address"},{"internalType":"address","name":"penaltyReceiver","type":"address"},{"internalType":"string","name":"taskURI","type":"string"}],"name":"createCommitment","outputs":[{"internalType":"uint256","name":"commitmentId","type":"uint256"}],"stateMutability":"payable","type":"function"},{"inputs":[{"internalType":"uint256","name":"commitmentId","type":"uint256"}],"name":"getCommitment","outputs":[{"components":[{"internalType":"address","name":"user","type":"address"},{"internalType":"address","name":"verifier","type":"address"},{"internalType":"address","name":"auditor","type":"address"},{"internalType":"address","name":"penaltyReceiver","type":"address"},{"internalType":"uint256","name":"stake","type":"uint256"},{"internalType":"uint64","name":"createdAt","type":"uint64"},{"internalType":"uint64","name":"deadline","type":"uint64"},{"internalType":"enum TimeLendMVP.Status","name":"status","type":"uint8"},{"internalType":"uint8","name":"qualityScore","type":"uint8"},{"internalType":"string","name":"taskURI","type":"string"},{"internalType":"string","name":"proofURI","type":"string"},{"internalType":"string","name":"verificationNotes","type":"string"}],"internalType":"struct TimeLendMVP.Commitment","name":"","type":"tuple"}],"stateMutability":"view","type":"function"},{"inputs":[{"internalType":"uint256","name":"commitmentId","type":"uint256"}],"name":"markFailed","outputs":[],"stateMutability":"nonpayable","type":"function"},{"inputs":[],"name":"nextCommitmentId","outputs":[{"internalType":"uint256","name":"","type":"uint256"}],"stateMutability":"view","type":"function"},{"inputs":[{"internalType":"uint256","name":"commitmentId","type":"uint256"}],"name":"requestVerification","outputs":[],"stateMutability":"nonpayable","type":"function"},{"inputs":[{"internalType":"address","name":"_burnAddress","type":"address"}],"name":"setBurnAddress","outputs":[],"stateMutability":"nonpayable","type":"function"},{"inputs":[{"internalType":"uint256","name":"commitmentId","type":"uint256"},{"internalType":"string","name":"proofURI","type":"string"}],"name":"submitProof","outputs":[],"stateMutability":"nonpayable","type":"function"},{"inputs":[{"internalType":"uint256","name":"commitmentId","type":"uint256"}],"name":"verifySuccess","outputs":[],"stateMutability":"nonpayable","type":"function"},{"inputs":[{"internalType":"uint256","name":"commitmentId","type":"uint256"},{"internalType":"uint8","name":"qualityScore","type":"uint8"},{"internalType":"string","name":"verificationNotes","type":"string"}],"name":"verifyWithAI","outputs":[],"stateMutability":"nonpayable","type":"function"}],"evm":{"bytecode":{"linkReferences":{},"object":"608060405234801561001057600080fd5b50604051611ecb380380611ecb83398101604081905261002f91610062565b60018054336001600160a01b031991821617909155600280549091166001600160a01b0392909216919091179055610092565b60006020828403121561007457600080fd5b81516001600160a01b038116811461008b57600080fd5b9392505050565b611e2a806100a16000396000f3fe6080604052600436106100e85760003560e01c806370d5ae051161008a578063ba9244f311610059578063ba9244f31461028c578063ec05386b146102ac578063f3634a32146102cc578063f851a440146102ec57600080fd5b806370d5ae051461020157806370dc7b2714610239578063a3d0da4514610259578063aa9502701461027957600080fd5b80634b0e7216116100c65780634b0e721614610170578063535c5444146101905780635ac48e6d146101b057806369bcdb7d146101d457600080fd5b80630c020f08146100ed5780632af005101461010f57806349ce89971461012f575b600080fd5b3480156100f957600080fd5b5061010d610108366004611676565b61030c565b005b34801561011b57600080fd5b5061010d61012a3660046116d7565b610440565b34801561013b57600080fd5b5061014f61014a366004611676565b61054c565b6040516101679c9b9a999897969594939291906117a0565b60405180910390f35b34801561017c57600080fd5b5061010d61018b366004611870565b61076d565b34801561019c57600080fd5b5061010d6101ab3660046118a3565b6107ba565b3480156101bc57600080fd5b506101c660005481565b604051908152602001610167565b3480156101e057600080fd5b506101f46101ef366004611676565b61091b565b60405161016791906118cf565b34801561020d57600080fd5b50600254610221906001600160a01b031681565b6040516001600160a01b039091168152602001610167565b34801561024557600080fd5b5061010d6102543660046119fb565b610c08565b34801561026557600080fd5b5061010d610274366004611676565b610d4f565b6101c6610287366004611a54565b610eac565b34801561029857600080fd5b5061010d6102a7366004611676565b611208565b3480156102b857600080fd5b5061010d6102c7366004611676565b611383565b3480156102d857600080fd5b5061010d6102e7366004611676565b61153c565b3480156102f857600080fd5b50600154610221906001600160a01b031681565b60008181526003602052604090206001015481906001600160a01b031633146103485760405163ea8e4eb560e01b815260040160405180910390fd5b600082815260036020526040812090600582810154600160801b900460ff169081111561037757610377611722565b14610395576040516307a92f1960e51b815260040160405180910390fd5b6005810154600160401b90046001600160401b03164211156103ca5760405163b08ce5b360e01b815260040160405180910390fd5b8060070180546103d990611ae5565b90506000036103fb5760405163092f29f360e21b815260040160405180910390fd5b60058101805460ff60801b1916600160801b17905560405183907fdc3cf8a27e1b75f6a2451158326c9443e79524509e9f381814e6b58416c0796a90600090a2505050565b60008381526003602052604090205483906001600160a01b031633146104795760405163ea8e4eb560e01b815260040160405180910390fd5b600084815260036020526040812090600582810154600160801b900460ff16908111156104a8576104a8611722565b146104c6576040516307a92f1960e51b815260040160405180910390fd5b6005810154600160401b90046001600160401b03164211156104fb5760405163b08ce5b360e01b815260040160405180910390fd5b6007810161050a848683611b86565b50847fc577bdeb8da1059fec56a8d1554e25846f18ebf046c214b145cac25f76bda350858560405161053d929190611c6f565b60405180910390a25050505050565b600360208190526000918252604090912080546001820154600283015493830154600484015460058501546006860180546001600160a01b03968716989587169795871696949094169492936001600160401b0380841694600160401b85049091169360ff600160801b8204811694600160881b90920416926105ce90611ae5565b80601f01602080910402602001604051908101604052809291908181526020018280546105fa90611ae5565b80156106475780601f1061061c57610100808354040283529160200191610647565b820191906000526020600020905b81548152906001019060200180831161062a57829003601f168201915b50505050509080600701805461065c90611ae5565b80601f016020809104026020016040519081016040528092919081815260200182805461068890611ae5565b80156106d55780601f106106aa576101008083540402835291602001916106d5565b820191906000526020600020905b8154815290600101906020018083116106b857829003601f168201915b5050505050908060080180546106ea90611ae5565b80601f016020809104026020016040519081016040528092919081815260200182805461071690611ae5565b80156107635780601f1061073857610100808354040283529160200191610763565b820191906000526020600020905b81548152906001019060200180831161074657829003601f168201915b505050505090508c565b6001546001600160a01b031633146107985760405163ea8e4eb560e01b815260040160405180910390fd5b600280546001600160a01b0319166001600160a01b0392909216919091179055565b60008281526003602052604090206001015482906001600160a01b031633146107f65760405163ea8e4eb560e01b815260040160405180910390fd5b60008381526003602052604090206001600582810154600160801b900460ff169081111561082657610826611722565b1415801561085457506000600582810154600160801b900460ff169081111561085157610851611722565b14155b15610872576040516307a92f1960e51b815260040160405180910390fd5b600581015460ff808516600160881b9092041610156108d25760058101805460ff60801b1916600360801b179055604051339085907f0ad61c80e55efa6d7131b5dafdef10ca9a01f48cb23f8933fad77d8836ae32c790600090a3610915565b60058101805460ff60801b1916600160811b179055604051339085907fbce1a267f2292ae376e30f717f81329dbd1e8195be429b4c480d848852ae54c490600090a35b50505050565b6109826040805161018081018252600080825260208201819052918101829052606081018290526080810182905260a0810182905260c081018290529060e08201908152602001600060ff1681526020016060815260200160608152602001606081525090565b60008281526003602081815260409283902083516101808101855281546001600160a01b0390811682526001830154811693820193909352600282015483169481019490945291820154166060830152600481015460808301526005808201546001600160401b0380821660a0860152600160401b82041660c085015260e0840191600160801b90910460ff1690811115610a1f57610a1f611722565b6005811115610a3057610a30611722565b81526005820154600160881b900460ff166020820152600682018054604090920191610a5b90611ae5565b80601f0160208091040260200160405190810160405280929190818152602001828054610a8790611ae5565b8015610ad45780601f10610aa957610100808354040283529160200191610ad4565b820191906000526020600020905b815481529060010190602001808311610ab757829003601f168201915b50505050508152602001600782018054610aed90611ae5565b80601f0160208091040260200160405190810160405280929190818152602001828054610b1990611ae5565b8015610b665780601f10610b3b57610100808354040283529160200191610b66565b820191906000526020600020905b815481529060010190602001808311610b4957829003601f168201915b50505050508152602001600882018054610b7f90611ae5565b80601f0160208091040260200160405190810160405280929190818152602001828054610bab90611ae5565b8015610bf85780601f10610bcd57610100808354040283529160200191610bf8565b820191906000526020600020905b815481529060010190602001808311610bdb57829003601f168201915b5050505050815250509050919050565b6001546001600160a01b03163314801590610c525750600360006001600054610c319190611ca1565b81526020810191909152604001600020600201546001600160a01b03163314155b15610c705760405163ea8e4eb560e01b815260040160405180910390fd5b60008481526003602052604090206001600582810154600160801b900460ff1690811115610ca057610ca0611722565b14610cbe576040516307a92f1960e51b815260040160405180910390fd5b60648460ff161115610ce35760405163a55375b760e01b815260040160405180910390fd5b60058101805460ff60881b1916600160881b60ff87160217905560088101610d0c838583611b86565b5060405160ff85168152339086907fb2e05c508d2f057d9de5a1a35319fd3e72db8bf6418acacf77aa266eaf4563c0906020015b60405180910390a35050505050565b60008181526003602052604090205481906001600160a01b03163314610d885760405163ea8e4eb560e01b815260040160405180910390fd5b60008281526003602052604090206002600582810154600160801b900460ff1690811115610db857610db8611722565b14610dd6576040516307a92f1960e51b815260040160405180910390fd5b60048101805460009182905560058301805460ff60801b1916600160821b17905582546040519192916001600160a01b039091169083908381818185875af1925050503d8060008114610e45576040519150601f19603f3d011682016040523d82523d6000602084013e610e4a565b606091505b5050905080610e6c576040516312171d8360e31b815260040160405180910390fd5b82546040518381526001600160a01b039091169086907fff29b281372993483c1ce6b621ae07832d519c2294e43340f051312701ad132a90602001610d40565b600034600003610ecf57604051632a9ffab760e21b815260040160405180910390fd5b866001600160401b0316600003610ef957604051631da7447960e21b815260040160405180910390fd5b6001600160a01b038616610f205760405163ea8e4eb560e01b815260040160405180910390fd5b6001600160a01b038416610f475760405163ea8e4eb560e01b815260040160405180910390fd5b600080549080610f5683611cba565b919050559050604051806101800160405280336001600160a01b03168152602001876001600160a01b03168152602001866001600160a01b03168152602001856001600160a01b03168152602001348152602001426001600160401b03168152602001886001600160401b031642610fce9190611cd3565b6001600160401b0316815260200160008152602001600060ff16815260200184848080601f016020809104026020016040519081016040528093929190818152602001838380828437600092018290525093855250506040805160208181018352848252808601919091528151808201835284815294820194909452858352600380855292819020855181546001600160a01b039182166001600160a01b0319918216178355958701516001830180549183169188169190911790559186015160028201805491841691871691909117905560608601519381018054949092169390941692909217909155506080820151600482015560a08201516005808301805460c08601516001600160401b03908116600160401b026fffffffffffffffffffffffffffffffff199092169416939093179290921780835560e0850151929160ff60801b1990911690600160801b90849081111561113057611130611722565b021790555061010082015160058201805460ff909216600160881b0260ff60881b1990921691909117905561012082015160068201906111709082611ce6565b5061014082015160078201906111869082611ce6565b50610160820151600882019061119c9082611ce6565b5050506001600160a01b03861633827f0643d22604ae640e3d16aa62509ab80a14544d2dc0ed9d13477e8989b7ceb1898888346111e26001600160401b038f1642611cd3565b8a8a6040516111f696959493929190611da5565b60405180910390a49695505050505050565b6000818152600360208190526040909120908101546001600160a01b0316331480159061124057506002546001600160a01b03163314155b1561125e5760405163ea8e4eb560e01b815260040160405180910390fd5b6003600582810154600160801b900460ff169081111561128057611280611722565b1461129e576040516307a92f1960e51b815260040160405180910390fd5b60048101805460009182905560058301805460ff60801b1916600560801b17905560038301546040519192916001600160a01b039091169083908381818185875af1925050503d8060008114611310576040519150601f19603f3d011682016040523d82523d6000602084013e611315565b606091505b5050905080611337576040516312171d8360e31b815260040160405180910390fd5b60038301546040518381526001600160a01b039091169085907f1da6efa987842bde49218d10428922f7fda8711188ea3496efeb21764f258b569060200160405180910390a350505050565b60008181526003602052604090206001015481906001600160a01b031633146113bf5760405163ea8e4eb560e01b815260040160405180910390fd5b600082815260036020526040812090600582810154600160801b900460ff16908111156113ee576113ee611722565b1415801561141c57506001600582810154600160801b900460ff169081111561141957611419611722565b14155b1561143a576040516307a92f1960e51b815260040160405180910390fd5b6005810154600160401b90046001600160401b03164211801561147c57506000600582810154600160801b900460ff169081111561147a5761147a611722565b145b1561149a5760405163b08ce5b360e01b815260040160405180910390fd5b8060070180546114a990611ae5565b15905080156114d757506000600582810154600160801b900460ff16908111156114d5576114d5611722565b145b156114f55760405163092f29f360e21b815260040160405180910390fd5b60058101805460ff60801b1916600160811b179055604051339084907fbce1a267f2292ae376e30f717f81329dbd1e8195be429b4c480d848852ae54c490600090a3505050565b600081815260036020526040812090600582810154600160801b900460ff169081111561156b5761156b611722565b1415801561159957506001600582810154600160801b900460ff169081111561159657611596611722565b14155b156115b7576040516307a92f1960e51b815260040160405180910390fd5b60018101546000906001600160a01b0316331480156115ea57506005820154600160401b90046001600160401b03164211155b6005830154909150600160401b90046001600160401b0316421181158015611610575080155b1561162e5760405163ea8e4eb560e01b815260040160405180910390fd5b60058301805460ff60801b1916600360801b179055604051339085907f0ad61c80e55efa6d7131b5dafdef10ca9a01f48cb23f8933fad77d8836ae32c790600090a350505050565b60006020828403121561168857600080fd5b5035919050565b60008083601f8401126116a157600080fd5b5081356001600160401b038111156116b857600080fd5b6020830191508360208285010111156116d057600080fd5b9250929050565b6000806000604084860312156116ec57600080fd5b8335925060208401356001600160401b0381111561170957600080fd5b6117158682870161168f565b9497909650939450505050565b634e487b7160e01b600052602160045260246000fd5b6006811061175657634e487b7160e01b600052602160045260246000fd5b9052565b6000815180845260005b8181101561178057602081850181015186830182015201611764565b506000602082860101526020601f19601f83011685010191505092915050565b6001600160a01b038d811682528c811660208301528b811660408301528a166060820152608081018990526001600160401b03881660a082015260006001600160401b03881660c08301526117f860e0830188611738565b60ff861661010083015261018061012083015261181961018083018661175a565b82810361014084015261182c818661175a565b9050828103610160840152611841818561175a565b9f9e505050505050505050505050505050565b80356001600160a01b038116811461186b57600080fd5b919050565b60006020828403121561188257600080fd5b61188b82611854565b9392505050565b803560ff8116811461186b57600080fd5b600080604083850312156118b657600080fd5b823591506118c660208401611892565b90509250929050565b602081526118e96020820183516001600160a01b03169052565b6000602083015161190560408401826001600160a01b03169052565b5060408301516001600160a01b03811660608401525060608301516001600160a01b038116608084015250608083015160a083015260a083015161195460c08401826001600160401b03169052565b5060c08301516001600160401b03811660e08401525060e083015161010061197e81850183611738565b84015190506101206119948482018360ff169052565b8085015191505061018061014081818601526119b46101a086018461175a565b9250808601519050601f196101608187860301818801526119d5858461175a565b9088015187820390920184880152935090506119f1838261175a565b9695505050505050565b60008060008060608587031215611a1157600080fd5b84359350611a2160208601611892565b925060408501356001600160401b03811115611a3c57600080fd5b611a488782880161168f565b95989497509550505050565b60008060008060008060a08789031215611a6d57600080fd5b86356001600160401b038082168214611a8557600080fd5b819750611a9460208a01611854565b9650611aa260408a01611854565b9550611ab060608a01611854565b94506080890135915080821115611ac657600080fd5b50611ad389828a0161168f565b979a9699509497509295939492505050565b600181811c90821680611af957607f821691505b602082108103611b1957634e487b7160e01b600052602260045260246000fd5b50919050565b634e487b7160e01b600052604160045260246000fd5b601f821115611b81576000816000526020600020601f850160051c81016020861015611b5e5750805b601f850160051c820191505b81811015611b7d57828155600101611b6a565b5050505b505050565b6001600160401b03831115611b9d57611b9d611b1f565b611bb183611bab8354611ae5565b83611b35565b6000601f841160018114611be55760008515611bcd5750838201355b600019600387901b1c1916600186901b178355611c3f565b600083815260209020601f19861690835b82811015611c165786850135825560209485019460019092019101611bf6565b5086821015611c335760001960f88860031b161c19848701351681555b505060018560011b0183555b5050505050565b81835281816020850137506000828201602090810191909152601f909101601f19169091010190565b602081526000611c83602083018486611c46565b949350505050565b634e487b7160e01b600052601160045260246000fd5b81810381811115611cb457611cb4611c8b565b92915050565b600060018201611ccc57611ccc611c8b565b5060010190565b80820180821115611cb457611cb4611c8b565b81516001600160401b03811115611cff57611cff611b1f565b611d1381611d0d8454611ae5565b84611b35565b602080601f831160018114611d485760008415611d305750858301515b600019600386901b1c1916600185901b178555611b7d565b600085815260208120601f198616915b82811015611d7757888601518255948401946001909101908401611d58565b5085821015611d955787850151600019600388901b60f8161c191681555b5050505050600190811b01905550565b6001600160a01b03878116825286166020820152604081018590526001600160401b038416606082015260a060808201819052600090611de89083018486611c46565b9897505050505050505056fea26469706673582212204592565e399ab817fa1011a0b44cdc0d79876aa04e149ca09ae787379b46a87464736f6c63430008180033","opcodes":"PUSH1 0x80 PUSH1 0x40 MSTORE CALLVALUE DUP1 ISZERO PUSH2 0x10 JUMPI PUSH1 0x0 DUP1 REVERT JUMPDEST POP PUSH1 0x40 MLOAD PUSH2 0x1ECB CODESIZE SUB DUP1 PUSH2 0x1ECB DUP4 CODECOPY DUP2 ADD PUSH1 0x40 DUP2 SWAP1 MSTORE PUSH2 0x2F SWAP2 PUSH2 0x62 JUMP JUMPDEST PUSH1 0x1 DUP1 SLOAD CALLER PUSH1 0x1 PUSH1 0x1 PUSH1 0xA0 SHL SUB NOT SWAP2 DUP3 AND OR SWAP1 SWAP2 SSTORE PUSH1 0x2 DUP1 SLOAD SWAP1 SWAP2 AND PUSH1 0x1 PUSH1 0x1 PUSH1 0xA0 SHL SUB SWAP3 SWAP1 SWAP3 AND SWAP2 SWAP1 SWAP2 OR SWAP1 SSTORE PUSH2 0x92 JUMP JUMPDEST PUSH1 0x0 PUSH1 0x20 DUP3 DUP5 SUB SLT ISZERO PUSH2 0x74 JUMPI PUSH1 0x0 DUP1 REVERT JUMPDEST DUP2 MLOAD PUSH1 0x1 PUSH1 0x1 PUSH1 0xA0 SHL SUB DUP2 AND DUP2 EQ PUSH2 0x8B JUMPI PUSH1 0x0 DUP1 REVERT JUMPDEST SWAP4 SWAP3 POP POP POP JUMP JUMPDEST PUSH2 0x1E2A DUP1 PUSH2 0xA1 PUSH1 0x0 CODECOPY PUSH1 0x0 RETURN INVALID PUSH1 0x80 PUSH1 0x40 MSTORE PUSH1 0x4 CALLDATASIZE LT PUSH2 0xE8 JUMPI PUSH1 0x0 CALLDATALOAD PUSH1 0xE0 SHR DUP1 PUSH4 0x70D5AE05 GT PUSH2 0x8A JUMPI DUP1 PUSH4 0xBA9244F3 GT PUSH2 0x59 JUMPI DUP1 PUSH4 0xBA9244F3 EQ PUSH2 0x28C JUMPI DUP1 PUSH4 0xEC05386B EQ PUSH2 0x2AC JUMPI DUP1 PUSH4 0xF3634A32 EQ PUSH2 0x2CC JUMPI DUP1 PUSH4 0xF851A440 EQ PUSH2 0x2EC JUMPI PUSH1 0x0 DUP1 REVERT JUMPDEST DUP1 PUSH4 0x70D5AE05 EQ PUSH2 0x201 JUMPI DUP1 PUSH4 0x70DC7B27 EQ PUSH2 0x239 JUMPI DUP1 PUSH4 0xA3D0DA45 EQ PUSH2 0x259 JUMPI DUP1 PUSH4 0xAA950270 EQ PUSH2 0x279 JUMPI PUSH1 0x0 DUP1 REVERT JUMPDEST DUP1 PUSH4 0x4B0E7216 GT PUSH2 0xC6 JUMPI DUP1 PUSH4 0x4B0E7216 EQ PUSH2 0x170 JUMPI DUP1 PUSH4 0x535C5444 EQ PUSH2 0x190 JUMPI DUP1 PUSH4 0x5AC48E6D EQ PUSH2 0x1B0 JUMPI DUP1 PUSH4 0x69BCDB7D EQ PUSH2 0x1D4 JUMPI PUSH1 0x0 DUP1 REVERT JUMPDEST DUP1 PUSH4 0xC020F08 EQ PUSH2 0xED JUMPI DUP1 PUSH4 0x2AF00510 EQ PUSH2 0x10F JUMPI DUP1 PUSH4 0x49CE8997 EQ PUSH2 0x12F JUMPI JUMPDEST PUSH1 0x0 DUP1 REVERT JUMPDEST CALLVALUE DUP1 ISZERO PUSH2 0xF9 JUMPI PUSH1 0x0 DUP1 REVERT JUMPDEST POP PUSH2 0x10D PUSH2 0x108 CALLDATASIZE PUSH1 0x4 PUSH2 0x1676 JUMP JUMPDEST PUSH2 0x30C JUMP JUMPDEST STOP JUMPDEST CALLVALUE DUP1 ISZERO PUSH2 0x11B JUMPI PUSH1 0x0 DUP1 REVERT JUMPDEST POP PUSH2 0x10D PUSH2 0x12A CALLDATASIZE PUSH1 0x4 PUSH2 0x16D7 JUMP JUMPDEST PUSH2 0x440 JUMP JUMPDEST CALLVALUE DUP1 ISZERO PUSH2 0x13B JUMPI PUSH1 0x0 DUP1 REVERT JUMPDEST POP PUSH2 0x14F PUSH2 0x14A CALLDATASIZE PUSH1 0x4 PUSH2 0x1676 JUMP JUMPDEST PUSH2 0x54C JUMP JUMPDEST PUSH1 0x40 MLOAD PUSH2 0x167 SWAP13 SWAP12 SWAP11 SWAP10 SWAP9 SWAP8 SWAP7 SWAP6 SWAP5 SWAP4 SWAP3 SWAP2 SWAP1 PUSH2 0x17A0 JUMP JUMPDEST PUSH1 0x40 MLOAD DUP1 SWAP2 SUB SWAP1 RETURN JUMPDEST CALLVALUE DUP1 ISZERO PUSH2 0x17C JUMPI PUSH1 0x0 DUP1 REVERT JUMPDEST POP PUSH2 0x10D PUSH2 0x18B CALLDATASIZE PUSH1 0x4 PUSH2 0x1870 JUMP JUMPDEST PUSH2 0x76D JUMP JUMPDEST CALLVALUE DUP1 ISZERO PUSH2 0x19C JUMPI PUSH1 0x0 DUP1 REVERT JUMPDEST POP PUSH2 0x10D PUSH2 0x1AB CALLDATASIZE PUSH1 0x4 PUSH2 0x18A3 JUMP JUMPDEST PUSH2 0x7BA JUMP JUMPDEST CALLVALUE DUP1 ISZERO PUSH2 0x1BC JUMPI PUSH1 0x0 DUP1 REVERT JUMPDEST POP PUSH2 0x1C6 PUSH1 0x0 SLOAD DUP2 JUMP JUMPDEST PUSH1 0x40 MLOAD SWAP1 DUP2 MSTORE PUSH1 0x20 ADD PUSH2 0x167 JUMP JUMPDEST CALLVALUE DUP1 ISZERO PUSH2 0x1E0 JUMPI PUSH1 0x0 DUP1 REVERT JUMPDEST POP PUSH2 0x1F4 PUSH2 0x1EF CALLDATASIZE PUSH1 0x4 PUSH2 0x1676 JUMP JUMPDEST PUSH2 0x91B JUMP JUMPDEST PUSH1 0x40 MLOAD PUSH2 0x167 SWAP2 SWAP1 PUSH2 0x18CF JUMP JUMPDEST CALLVALUE DUP1 ISZERO PUSH2 0x20D JUMPI PUSH1 0x0 DUP1 REVERT JUMPDEST POP PUSH1 0x2 SLOAD PUSH2 0x221 SWAP1 PUSH1 0x1 PUSH1 0x1 PUSH1 0xA0 SHL SUB AND DUP2 JUMP JUMPDEST PUSH1 0x40 MLOAD PUSH1 0x1 PUSH1 0x1 PUSH1 0xA0 SHL SUB SWAP1 SWAP2 AND DUP2 MSTORE PUSH1 0x20 ADD PUSH2 0x167 JUMP JUMPDEST CALLVALUE DUP1 ISZERO PUSH2 0x245 JUMPI PUSH1 0x0 DUP1 REVERT JUMPDEST POP PUSH2 0x10D PUSH2 0x254 CALLDATASIZE PUSH1 0x4 PUSH2 0x19FB JUMP JUMPDEST PUSH2 0xC08 JUMP JUMPDEST CALLVALUE DUP1 ISZERO PUSH2 0x265 JUMPI PUSH1 0x0 DUP1 REVERT JUMPDEST POP PUSH2 0x10D PUSH2 0x274 CALLDATASIZE PUSH1 0x4 PUSH2 0x1676 JUMP JUMPDEST PUSH2 0xD4F JUMP JUMPDEST PUSH2 0x1C6 PUSH2 0x287 CALLDATASIZE PUSH1 0x4 PUSH2 0x1A54 JUMP JUMPDEST PUSH2 0xEAC JUMP JUMPDEST CALLVALUE DUP1 ISZERO PUSH2 0x298 JUMPI PUSH1 0x0 DUP1 REVERT JUMPDEST POP PUSH2 0x10D PUSH2 0x2A7 CALLDATASIZE PUSH1 0x4 PUSH2 0x1676 JUMP JUMPDEST PUSH2 0x1208 JUMP JUMPDEST CALLVALUE DUP1 ISZERO PUSH2 0x2B8 JUMPI PUSH1 0x0 DUP1 REVERT JUMPDEST POP PUSH2 0x10D PUSH2 0x2C7 CALLDATASIZE PUSH1 0x4 PUSH2 0x1676 JUMP JUMPDEST PUSH2 0x1383 JUMP JUMPDEST CALLVALUE DUP1 ISZERO PUSH2 0x2D8 JUMPI PUSH1 0x0 DUP1 REVERT JUMPDEST POP PUSH2 0x10D PUSH2 0x2E7 CALLDATASIZE PUSH1 0x4 PUSH2 0x1676 JUMP JUMPDEST PUSH2 0x153C JUMP JUMPDEST CALLVALUE DUP1 ISZERO PUSH2 0x2F8 JUMPI PUSH1 0x0 DUP1 REVERT JUMPDEST POP PUSH1 0x1 SLOAD PUSH2 0x221 SWAP1 PUSH1 0x1 PUSH1 0x1 PUSH1 0xA0 SHL SUB AND DUP2 JUMP JUMPDEST PUSH1 0x0 DUP2 DUP2 MSTORE PUSH1 0x3 PUSH1 0x20 MSTORE PUSH1 0x40 SWAP1 KECCAK256 PUSH1 0x1 ADD SLOAD DUP2 SWAP1 PUSH1 0x1 PUSH1 0x1 PUSH1 0xA0 SHL SUB AND CALLER EQ PUSH2 0x348 JUMPI PUSH1 0x40 MLOAD PUSH4 0xEA8E4EB5 PUSH1 0xE0 SHL DUP2 MSTORE PUSH1 0x4 ADD PUSH1 0x40 MLOAD DUP1 SWAP2 SUB SWAP1 REVERT JUMPDEST PUSH1 0x0 DUP3 DUP2 MSTORE PUSH1 0x3 PUSH1 0x20 MSTORE PUSH1 0x40 DUP2 KECCAK256 SWAP1 PUSH1 0x5 DUP3 DUP2 ADD SLOAD PUSH1 0x1 PUSH1 0x80 SHL SWAP1 DIV PUSH1 0xFF AND SWAP1 DUP2 GT ISZERO PUSH2 0x377 JUMPI PUSH2 0x377 PUSH2 0x1722 JUMP JUMPDEST EQ PUSH2 0x395 JUMPI PUSH1 0x40 MLOAD PUSH4 0x7A92F19 PUSH1 0xE5 SHL DUP2 MSTORE PUSH1 0x4 ADD PUSH1 0x40 MLOAD DUP1 SWAP2 SUB SWAP1 REVERT JUMPDEST PUSH1 0x5 DUP2 ADD SLOAD PUSH1 0x1 PUSH1 0x40 SHL SWAP1 DIV PUSH1 0x1 PUSH1 0x1 PUSH1 0x40 SHL SUB AND TIMESTAMP GT ISZERO PUSH2 0x3CA JUMPI PUSH1 0x40 MLOAD PUSH4 0xB08CE5B3 PUSH1 0xE0 SHL DUP2 MSTORE PUSH1 0x4 ADD PUSH1 0x40 MLOAD DUP1 SWAP2 SUB SWAP1 REVERT JUMPDEST DUP1 PUSH1 0x7 ADD DUP1 SLOAD PUSH2 0x3D9 SWAP1 PUSH2 0x1AE5 JUMP JUMPDEST SWAP1 POP PUSH1 0x0 SUB PUSH2 0x3FB JUMPI PUSH1 0x40 MLOAD PUSH4 0x92F29F3 PUSH1 0xE2 SHL DUP2 MSTORE PUSH1 0x4 ADD PUSH1 0x40 MLOAD DUP1 SWAP2 SUB SWAP1 REVERT JUMPDEST PUSH1 0x5 DUP2 ADD DUP1 SLOAD PUSH1 0xFF PUSH1 0x80 SHL NOT AND PUSH1 0x1 PUSH1 0x80 SHL OR SWAP1 SSTORE PUSH1 0x40 MLOAD DUP4 SWAP1 PUSH32 0xDC3CF8A27E1B75F6A2451158326C9443E79524509E9F381814E6B58416C0796A SWAP1 PUSH1 0x0 SWAP1 LOG2 POP POP POP JUMP JUMPDEST PUSH1 0x0 DUP4 DUP2 MSTORE PUSH1 0x3 PUSH1 0x20 MSTORE PUSH1 0x40 SWAP1 KECCAK256 SLOAD DUP4 SWAP1 PUSH1 0x1 PUSH1 0x1 PUSH1 0xA0 SHL SUB AND CALLER EQ PUSH2 0x479 JUMPI PUSH1 0x40 MLOAD PUSH4 0xEA8E4EB5 PUSH1 0xE0 SHL DUP2 MSTORE PUSH1 0x4 ADD PUSH1 0x40 MLOAD DUP1 SWAP2 SUB SWAP1 REVERT JUMPDEST PUSH1 0x0 DUP5 DUP2 MSTORE PUSH1 0x3 PUSH1 0x20 MSTORE PUSH1 0x40 DUP2 KECCAK256 SWAP1 PUSH1 0x5 DUP3 DUP2 ADD SLOAD PUSH1 0x1 PUSH1 0x80 SHL SWAP1 DIV PUSH1 0xFF AND SWAP1 DUP2 GT ISZERO PUSH2 0x4A8 JUMPI PUSH2 0x4A8 PUSH2 0x1722 JUMP JUMPDEST EQ PUSH2 0x4C6 JUMPI PUSH1 0x40 MLOAD PUSH4 0x7A92F19 PUSH1 0xE5 SHL DUP2 MSTORE PUSH1 0x4 ADD PUSH1 0x40 MLOAD DUP1 SWAP2 SUB SWAP1 REVERT JUMPDEST PUSH1 0x5 DUP2 ADD SLOAD PUSH1 0x1 PUSH1 0x40 SHL SWAP1 DIV PUSH1 0x1 PUSH1 0x1 PUSH1 0x40 SHL SUB AND TIMESTAMP GT ISZERO PUSH2 0x4FB JUMPI PUSH1 0x40 MLOAD PUSH4 0xB08CE5B3 PUSH1 0xE0 SHL DUP2 MSTORE PUSH1 0x4 ADD PUSH1 0x40 MLOAD DUP1 SWAP2 SUB SWAP1 REVERT JUMPDEST PUSH1 0x7 DUP2 ADD PUSH2 0x50A DUP5 DUP7 DUP4 PUSH2 0x1B86 JUMP JUMPDEST POP DUP5 PUSH32 0xC577BDEB8DA1059FEC56A8D1554E25846F18EBF046C214B145CAC25F76BDA350 DUP6 DUP6 PUSH1 0x40 MLOAD PUSH2 0x53D SWAP3 SWAP2 SWAP1 PUSH2 0x1C6F JUMP JUMPDEST PUSH1 0x40 MLOAD DUP1 SWAP2 SUB SWAP1 LOG2 POP POP POP POP POP JUMP JUMPDEST PUSH1 0x3 PUSH1 0x20 DUP2 SWAP1 MSTORE PUSH1 0x0 SWAP2 DUP3 MSTORE PUSH1 0x40 SWAP1 SWAP2 KECCAK256 DUP1 SLOAD PUSH1 0x1 DUP3 ADD SLOAD PUSH1 0x2 DUP4 ADD SLOAD SWAP4 DUP4 ADD SLOAD PUSH1 0x4 DUP5 ADD SLOAD PUSH1 0x5 DUP6 ADD SLOAD PUSH1 0x6 DUP7 ADD DUP1 SLOAD PUSH1 0x1 PUSH1 0x1 PUSH1 0xA0 SHL SUB SWAP7 DUP8 AND SWAP9 SWAP6 DUP8 AND SWAP8 SWAP6 DUP8 AND SWAP7 SWAP5 SWAP1 SWAP5 AND SWAP5 SWAP3 SWAP4 PUSH1 0x1 PUSH1 0x1 PUSH1 0x40 SHL SUB DUP1 DUP5 AND SWAP5 PUSH1 0x1 PUSH1 0x40 SHL DUP6 DIV SWAP1 SWAP2 AND SWAP4 PUSH1 0xFF PUSH1 0x1 PUSH1 0x80 SHL DUP3 DIV DUP2 AND SWAP5 PUSH1 0x1 PUSH1 0x88 SHL SWAP1 SWAP3 DIV AND SWAP3 PUSH2 0x5CE SWAP1 PUSH2 0x1AE5 JUMP JUMPDEST DUP1 PUSH1 0x1F ADD PUSH1 0x20 DUP1 SWAP2 DIV MUL PUSH1 0x20 ADD PUSH1 0x40 MLOAD SWAP1 DUP2 ADD PUSH1 0x40 MSTORE DUP1 SWAP3 SWAP2 SWAP1 DUP2 DUP2 MSTORE PUSH1 0x20 ADD DUP3 DUP1 SLOAD PUSH2 0x5FA SWAP1 PUSH2 0x1AE5 JUMP JUMPDEST DUP1 ISZERO PUSH2 0x647 JUMPI DUP1 PUSH1 0x1F LT PUSH2 0x61C JUMPI PUSH2 0x100 DUP1 DUP4 SLOAD DIV MUL DUP4 MSTORE SWAP2 PUSH1 0x20 ADD SWAP2 PUSH2 0x647 JUMP JUMPDEST DUP3 ADD SWAP2 SWAP1 PUSH1 0x0 MSTORE PUSH1 0x20 PUSH1 0x0 KECCAK256 SWAP1 JUMPDEST DUP2 SLOAD DUP2 MSTORE SWAP1 PUSH1 0x1 ADD SWAP1 PUSH1 0x20 ADD DUP1 DUP4 GT PUSH2 0x62A JUMPI DUP3 SWAP1 SUB PUSH1 0x1F AND DUP3 ADD SWAP2 JUMPDEST POP POP POP POP POP SWAP1 DUP1 PUSH1 0x7 ADD DUP1 SLOAD PUSH2 0x65C SWAP1 PUSH2 0x1AE5 JUMP JUMPDEST DUP1 PUSH1 0x1F ADD PUSH1 0x20 DUP1 SWAP2 DIV MUL PUSH1 0x20 ADD PUSH1 0x40 MLOAD SWAP1 DUP2 ADD PUSH1 0x40 MSTORE DUP1 SWAP3 SWAP2 SWAP1 DUP2 DUP2 MSTORE PUSH1 0x20 ADD DUP3 DUP1 SLOAD PUSH2 0x688 SWAP1 PUSH2 0x1AE5 JUMP JUMPDEST DUP1 ISZERO PUSH2 0x6D5 JUMPI DUP1 PUSH1 0x1F LT PUSH2 0x6AA JUMPI PUSH2 0x100 DUP1 DUP4 SLOAD DIV MUL DUP4 MSTORE SWAP2 PUSH1 0x20 ADD SWAP2 PUSH2 0x6D5 JUMP JUMPDEST DUP3 ADD SWAP2 SWAP1 PUSH1 0x0 MSTORE PUSH1 0x20 PUSH1 0x0 KECCAK256 SWAP1 JUMPDEST DUP2 SLOAD DUP2 MSTORE SWAP1 PUSH1 0x1 ADD SWAP1 PUSH1 0x20 ADD DUP1 DUP4 GT PUSH2 0x6B8 JUMPI DUP3 SWAP1 SUB PUSH1 0x1F AND DUP3 ADD SWAP2 JUMPDEST POP POP POP POP POP SWAP1 DUP1 PUSH1 0x8 ADD DUP1 SLOAD PUSH2 0x6EA SWAP1 PUSH2 0x1AE5 JUMP JUMPDEST DUP1 PUSH1 0x1F ADD PUSH1 0x20 DUP1 SWAP2 DIV MUL PUSH1 0x20 ADD PUSH1 0x40 MLOAD SWAP1 DUP2 ADD PUSH1 0x40 MSTORE DUP1 SWAP3 SWAP2 SWAP1 DUP2 DUP2 MSTORE PUSH1 0x20 ADD DUP3 DUP1 SLOAD PUSH2 0x716 SWAP1 PUSH2 0x1AE5 JUMP JUMPDEST DUP1 ISZERO PUSH2 0x763 JUMPI DUP1 PUSH1 0x1F LT PUSH2 0x738 JUMPI PUSH2 0x100 DUP1 DUP4 SLOAD DIV MUL DUP4 MSTORE SWAP2 PUSH1 0x20 ADD SWAP2 PUSH2 0x763 JUMP JUMPDEST DUP3 ADD SWAP2 SWAP1 PUSH1 0x0 MSTORE PUSH1 0x20 PUSH1 0x0 KECCAK256 SWAP1 JUMPDEST DUP2 SLOAD DUP2 MSTORE SWAP1 PUSH1 0x1 ADD SWAP1 PUSH1 0x20 ADD DUP1 DUP4 GT PUSH2 0x746 JUMPI DUP3 SWAP1 SUB PUSH1 0x1F AND DUP3 ADD SWAP2 JUMPDEST POP POP POP POP POP SWAP1 POP DUP13 JUMP JUMPDEST PUSH1 0x1 SLOAD PUSH1 0x1 PUSH1 0x1 PUSH1 0xA0 SHL SUB AND CALLER EQ PUSH2 0x798 JUMPI PUSH1 0x40 MLOAD PUSH4 0xEA8E4EB5 PUSH1 0xE0 SHL DUP2 MSTORE PUSH1 0x4 ADD PUSH1 0x40 MLOAD DUP1 SWAP2 SUB SWAP1 REVERT JUMPDEST PUSH1 0x2 DUP1 SLOAD PUSH1 0x1 PUSH1 0x1 PUSH1 0xA0 SHL SUB NOT AND PUSH1 0x1 PUSH1 0x1 PUSH1 0xA0 SHL SUB SWAP3 SWAP1 SWAP3 AND SWAP2 SWAP1 SWAP2 OR SWAP1 SSTORE JUMP JUMPDEST PUSH1 0x0 DUP3 DUP2 MSTORE PUSH1 0x3 PUSH1 0x20 MSTORE PUSH1 0x40 SWAP1 KECCAK256 PUSH1 0x1 ADD SLOAD DUP3 SWAP1 PUSH1 0x1 PUSH1 0x1 PUSH1 0xA0 SHL SUB AND CALLER EQ PUSH2 0x7F6 JUMPI PUSH1 0x40 MLOAD PUSH4 0xEA8E4EB5 PUSH1 0xE0 SHL DUP2 MSTORE PUSH1 0x4 ADD PUSH1 0x40 MLOAD DUP1 SWAP2 SUB SWAP1 REVERT JUMPDEST PUSH1 0x0 DUP4 DUP2 MSTORE PUSH1 0x3 PUSH1 0x20 MSTORE PUSH1 0x40 SWAP1 KECCAK256 PUSH1 0x1 PUSH1 0x5 DUP3 DUP2 ADD SLOAD PUSH1 0x1 PUSH1 0x80 SHL SWAP1 DIV PUSH1 0xFF AND SWAP1 DUP2 GT ISZERO PUSH2 0x826 JUMPI PUSH2 0x826 PUSH2 0x1722 JUMP JUMPDEST EQ ISZERO DUP1 ISZERO PUSH2 0x854 JUMPI POP PUSH1 0x0 PUSH1 0x5 DUP3 DUP2 ADD SLOAD PUSH1 0x1 PUSH1 0x80 SHL SWAP1 DIV PUSH1 0xFF AND SWAP1 DUP2 GT ISZERO PUSH2 0x851 JUMPI PUSH2 0x851 PUSH2 0x1722 JUMP JUMPDEST EQ ISZERO JUMPDEST ISZERO PUSH2 0x872 JUMPI PUSH1 0x40 MLOAD PUSH4 0x7A92F19 PUSH1 0xE5 SHL DUP2 MSTORE PUSH1 0x4 ADD PUSH1 0x40 MLOAD DUP1 SWAP2 SUB SWAP1 REVERT JUMPDEST PUSH1 0x5 DUP2 ADD SLOAD PUSH1 0xFF DUP1 DUP6 AND PUSH1 0x1 PUSH1 0x88 SHL SWAP1 SWAP3 DIV AND LT ISZERO PUSH2 0x8D2 JUMPI PUSH1 0x5 DUP2 ADD DUP1 SLOAD PUSH1 0xFF PUSH1 0x80 SHL NOT AND PUSH1 0x3 PUSH1 0x80 SHL OR SWAP1 SSTORE PUSH1 0x40 MLOAD CALLER SWAP1 DUP6 SWAP1 PUSH32 0xAD61C80E55EFA6D7131B5DAFDEF10CA9A01F48CB23F8933FAD77D8836AE32C7 SWAP1 PUSH1 0x0 SWAP1 LOG3 PUSH2 0x915 JUMP JUMPDEST PUSH1 0x5 DUP2 ADD DUP1 SLOAD PUSH1 0xFF PUSH1 0x80 SHL NOT AND PUSH1 0x1 PUSH1 0x81 SHL OR SWAP1 SSTORE PUSH1 0x40 MLOAD CALLER SWAP1 DUP6 SWAP1 PUSH32 0xBCE1A267F2292AE376E30F717F81329DBD1E8195BE429B4C480D848852AE54C4 SWAP1 PUSH1 0x0 SWAP1 LOG3 JUMPDEST POP POP POP POP JUMP JUMPDEST PUSH2 0x982 PUSH1 0x40 DUP1 MLOAD PUSH2 0x180 DUP2 ADD DUP3 MSTORE PUSH1 0x0 DUP1 DUP3 MSTORE PUSH1 0x20 DUP3 ADD DUP2 SWAP1 MSTORE SWAP2 DUP2 ADD DUP3 SWAP1 MSTORE PUSH1 0x60 DUP2 ADD DUP3 SWAP1 MSTORE PUSH1 0x80 DUP2 ADD DUP3 SWAP1 MSTORE PUSH1 0xA0 DUP2 ADD DUP3 SWAP1 MSTORE PUSH1 0xC0 DUP2 ADD DUP3 SWAP1 MSTORE SWAP1 PUSH1 0xE0 DUP3 ADD SWAP1 DUP2 MSTORE PUSH1 0x20 ADD PUSH1 0x0 PUSH1 0xFF AND DUP2 MSTORE PUSH1 0x20 ADD PUSH1 0x60 DUP2 MSTORE PUSH1 0x20 ADD PUSH1 0x60 DUP2 MSTORE PUSH1 0x20 ADD PUSH1 0x60 DUP2 MSTORE POP SWAP1 JUMP JUMPDEST PUSH1 0x0 DUP3 DUP2 MSTORE PUSH1 0x3 PUSH1 0x20 DUP2 DUP2 MSTORE PUSH1 0x40 SWAP3 DUP4 SWAP1 KECCAK256 DUP4 MLOAD PUSH2 0x180 DUP2 ADD DUP6 MSTORE DUP2 SLOAD PUSH1 0x1 PUSH1 0x1 PUSH1 0xA0 SHL SUB SWAP1 DUP2 AND DUP3 MSTORE PUSH1 0x1 DUP4 ADD SLOAD DUP2 AND SWAP4 DUP3 ADD SWAP4 SWAP1 SWAP4 MSTORE PUSH1 0x2 DUP3 ADD SLOAD DUP4 AND SWAP5 DUP2 ADD SWAP5 SWAP1 SWAP5 MSTORE SWAP2 DUP3 ADD SLOAD AND PUSH1 0x60 DUP4 ADD MSTORE PUSH1 0x4 DUP2 ADD SLOAD PUSH1 0x80 DUP4 ADD MSTORE PUSH1 0x5 DUP1 DUP3 ADD SLOAD PUSH1 0x1 PUSH1 0x1 PUSH1 0x40 SHL SUB DUP1 DUP3 AND PUSH1 0xA0 DUP7 ADD MSTORE PUSH1 0x1 PUSH1 0x40 SHL DUP3 DIV AND PUSH1 0xC0 DUP6 ADD MSTORE PUSH1 0xE0 DUP5 ADD SWAP2 PUSH1 0x1 PUSH1 0x80 SHL SWAP1 SWAP2 DIV PUSH1 0xFF AND SWAP1 DUP2 GT ISZERO PUSH2 0xA1F JUMPI PUSH2 0xA1F PUSH2 0x1722 JUMP JUMPDEST PUSH1 0x5 DUP2 GT ISZERO PUSH2 0xA30 JUMPI PUSH2 0xA30 PUSH2 0x1722 JUMP JUMPDEST DUP2 MSTORE PUSH1 0x5 DUP3 ADD SLOAD PUSH1 0x1 PUSH1 0x88 SHL SWAP1 DIV PUSH1 0xFF AND PUSH1 0x20 DUP3 ADD MSTORE PUSH1 0x6 DUP3 ADD DUP1 SLOAD PUSH1 0x40 SWAP1 SWAP3 ADD SWAP2 PUSH2 0xA5B SWAP1 PUSH2 0x1AE5 JUMP JUMPDEST DUP1 PUSH1 0x1F ADD PUSH1 0x20 DUP1 SWAP2 DIV MUL PUSH1 0x20 ADD PUSH1 0x40 MLOAD SWAP1 DUP2 ADD PUSH1 0x40 MSTORE DUP1 SWAP3 SWAP2 SWAP1 DUP2 DUP2 MSTORE PUSH1 0x20 ADD DUP3 DUP1 SLOAD PUSH2 0xA87 SWAP1 PUSH2 0x1AE5 JUMP JUMPDEST DUP1 ISZERO PUSH2 0xAD4 JUMPI DUP1 PUSH1 0x1F LT PUSH2 0xAA9 JUMPI PUSH2 0x100 DUP1 DUP4 SLOAD DIV MUL DUP4 MSTORE SWAP2 PUSH1 0x20 ADD SWAP2 PUSH2 0xAD4 JUMP JUMPDEST DUP3 ADD SWAP2 SWAP1 PUSH1 0x0 MSTORE PUSH1 0x20 PUSH1 0x0 KECCAK256 SWAP1 JUMPDEST DUP2 SLOAD DUP2 MSTORE SWAP1 PUSH1 0x1 ADD SWAP1 PUSH1 0x20 ADD DUP1 DUP4 GT PUSH2 0xAB7 JUMPI DUP3 SWAP1 SUB PUSH1 0x1F AND DUP3 ADD SWAP2 JUMPDEST POP POP POP POP POP DUP2 MSTORE PUSH1 0x20 ADD PUSH1 0x7 DUP3 ADD DUP1 SLOAD PUSH2 0xAED SWAP1 PUSH2 0x1AE5 JUMP JUMPDEST DUP1 PUSH1 0x1F ADD PUSH1 0x20 DUP1 SWAP2 DIV MUL PUSH1 0x20 ADD PUSH1 0x40 MLOAD SWAP1 DUP2 ADD PUSH1 0x40 MSTORE DUP1 SWAP3 SWAP2 SWAP1 DUP2 DUP2 MSTORE PUSH1 0x20 ADD DUP3 DUP1 SLOAD PUSH2 0xB19 SWAP1 PUSH2 0x1AE5 JUMP JUMPDEST DUP1 ISZERO PUSH2 0xB66 JUMPI DUP1 PUSH1 0x1F LT PUSH2 0xB3B JUMPI PUSH2 0x100 DUP1 DUP4 SLOAD DIV MUL DUP4 MSTORE SWAP2 PUSH1 0x20 ADD SWAP2 PUSH2 0xB66 JUMP JUMPDEST DUP3 ADD SWAP2 SWAP1 PUSH1 0x0 MSTORE PUSH1 0x20 PUSH1 0x0 KECCAK256 SWAP1 JUMPDEST DUP2 SLOAD DUP2 MSTORE SWAP1 PUSH1 0x1 ADD SWAP1 PUSH1 0x20 ADD DUP1 DUP4 GT PUSH2 0xB49 JUMPI DUP3 SWAP1 SUB PUSH1 0x1F AND DUP3 ADD SWAP2 JUMPDEST POP POP POP POP POP DUP2 MSTORE PUSH1 0x20 ADD PUSH1 0x8 DUP3 ADD DUP1 SLOAD PUSH2 0xB7F SWAP1 PUSH2 0x1AE5 JUMP JUMPDEST DUP1 PUSH1 0x1F ADD PUSH1 0x20 DUP1 SWAP2 DIV MUL PUSH1 0x20 ADD PUSH1 0x40 MLOAD SWAP1 DUP2 ADD PUSH1 0x40 MSTORE DUP1 SWAP3 SWAP2 SWAP1 DUP2 DUP2 MSTORE PUSH1 0x20 ADD DUP3 DUP1 SLOAD PUSH2 0xBAB SWAP1 PUSH2 0x1AE5 JUMP JUMPDEST DUP1 ISZERO PUSH2 0xBF8 JUMPI DUP1 PUSH1 0x1F LT PUSH2 0xBCD JUMPI PUSH2 0x100 DUP1 DUP4 SLOAD DIV MUL DUP4 MSTORE SWAP2 PUSH1 0x20 ADD SWAP2 PUSH2 0xBF8 JUMP JUMPDEST DUP3 ADD SWAP2 SWAP1 PUSH1 0x0 MSTORE PUSH1 0x20 PUSH1 0x0 KECCAK256 SWAP1 JUMPDEST DUP2 SLOAD DUP2 MSTORE SWAP1 PUSH1 0x1 ADD SWAP1 PUSH1 0x20 ADD DUP1 DUP4 GT PUSH2 0xBDB JUMPI DUP3 SWAP1 SUB PUSH1 0x1F AND DUP3 ADD SWAP2 JUMPDEST POP POP POP POP POP DUP2 MSTORE POP POP SWAP1 POP SWAP2 SWAP1 POP JUMP JUMPDEST PUSH1 0x1 SLOAD PUSH1 0x1 PUSH1 0x1 PUSH1 0xA0 SHL SUB AND CALLER EQ DUP1 ISZERO SWAP1 PUSH2 0xC52 JUMPI POP PUSH1 0x3 PUSH1 0x0 PUSH1 0x1 PUSH1 0x0 SLOAD PUSH2 0xC31 SWAP2 SWAP1 PUSH2 0x1CA1 JUMP JUMPDEST DUP2 MSTORE PUSH1 0x20 DUP2 ADD SWAP2 SWAP1 SWAP2 MSTORE PUSH1 0x40 ADD PUSH1 0x0 KECCAK256 PUSH1 0x2 ADD SLOAD PUSH1 0x1 PUSH1 0x1 PUSH1 0xA0 SHL SUB AND CALLER EQ ISZERO JUMPDEST ISZERO PUSH2 0xC70 JUMPI PUSH1 0x40 MLOAD PUSH4 0xEA8E4EB5 PUSH1 0xE0 SHL DUP2 MSTORE PUSH1 0x4 ADD PUSH1 0x40 MLOAD DUP1 SWAP2 SUB SWAP1 REVERT JUMPDEST PUSH1 0x0 DUP5 DUP2 MSTORE PUSH1 0x3 PUSH1 0x20 MSTORE PUSH1 0x40 SWAP1 KECCAK256 PUSH1 0x1 PUSH1 0x5 DUP3 DUP2 ADD SLOAD PUSH1 0x1 PUSH1 0x80 SHL SWAP1 DIV PUSH1 0xFF AND SWAP1 DUP2 GT ISZERO PUSH2 0xCA0 JUMPI PUSH2 0xCA0 PUSH2 0x1722 JUMP JUMPDEST EQ PUSH2 0xCBE JUMPI PUSH1 0x40 MLOAD PUSH4 0x7A92F19 PUSH1 0xE5 SHL DUP2 MSTORE PUSH1 0x4 ADD PUSH1 0x40 MLOAD DUP1 SWAP2 SUB SWAP1 REVERT JUMPDEST PUSH1 0x64 DUP5 PUSH1 0xFF AND GT ISZERO PUSH2 0xCE3 JUMPI PUSH1 0x40 MLOAD PUSH4 0xA55375B7 PUSH1 0xE0 SHL DUP2 MSTORE PUSH1 0x4 ADD PUSH1 0x40 MLOAD DUP1 SWAP2 SUB SWAP1 REVERT JUMPDEST PUSH1 0x5 DUP2 ADD DUP1 SLOAD PUSH1 0xFF PUSH1 0x88 SHL NOT AND PUSH1 0x1 PUSH1 0x88 SHL PUSH1 0xFF DUP8 AND MUL OR SWAP1 SSTORE PUSH1 0x8 DUP2 ADD PUSH2 0xD0C DUP4 DUP6 DUP4 PUSH2 0x1B86 JUMP JUMPDEST POP PUSH1 0x40 MLOAD PUSH1 0xFF DUP6 AND DUP2 MSTORE CALLER SWAP1 DUP7 SWAP1 PUSH32 0xB2E05C508D2F057D9DE5A1A35319FD3E72DB8BF6418ACACF77AA266EAF4563C0 SWAP1 PUSH1 0x20 ADD JUMPDEST PUSH1 0x40 MLOAD DUP1 SWAP2 SUB SWAP1 LOG3 POP POP POP POP POP JUMP JUMPDEST PUSH1 0x0 DUP2 DUP2 MSTORE PUSH1 0x3 PUSH1 0x20 MSTORE PUSH1 0x40 SWAP1 KECCAK256 SLOAD DUP2 SWAP1 PUSH1 0x1 PUSH1 0x1 PUSH1 0xA0 SHL SUB AND CALLER EQ PUSH2 0xD88 JUMPI PUSH1 0x40 MLOAD PUSH4 0xEA8E4EB5 PUSH1 0xE0 SHL DUP2 MSTORE PUSH1 0x4 ADD PUSH1 0x40 MLOAD DUP1 SWAP2 SUB SWAP1 REVERT JUMPDEST PUSH1 0x0 DUP3 DUP2 MSTORE PUSH1 0x3 PUSH1 0x20 MSTORE PUSH1 0x40 SWAP1 KECCAK256 PUSH1 0x2 PUSH1 0x5 DUP3 DUP2 ADD SLOAD PUSH1 0x1 PUSH1 0x80 SHL SWAP1 DIV PUSH1 0xFF AND SWAP1 DUP2 GT ISZERO PUSH2 0xDB8 JUMPI PUSH2 0xDB8 PUSH2 0x1722 JUMP JUMPDEST EQ PUSH2 0xDD6 JUMPI PUSH1 0x40 MLOAD PUSH4 0x7A92F19 PUSH1 0xE5 SHL DUP2 MSTORE PUSH1 0x4 ADD PUSH1 0x40 MLOAD DUP1 SWAP2 SUB SWAP1 REVERT JUMPDEST PUSH1 0x4 DUP2 ADD DUP1 SLOAD PUSH1 0x0 SWAP2 DUP3 SWAP1 SSTORE PUSH1 0x5 DUP4 ADD DUP1 SLOAD PUSH1 0xFF PUSH1 0x80 SHL NOT AND PUSH1 0x1 PUSH1 0x82 SHL OR SWAP1 SSTORE DUP3 SLOAD PUSH1 0x40 MLOAD SWAP2 SWAP3 SWAP2 PUSH1 0x1 PUSH1 0x1 PUSH1 0xA0 SHL SUB SWAP1 SWAP2 AND SWAP1 DUP4 SWAP1 DUP4 DUP2 DUP2 DUP2 DUP6 DUP8 GAS CALL SWAP3 POP POP POP RETURNDATASIZE DUP1 PUSH1 0x0 DUP2 EQ PUSH2 0xE45 JUMPI PUSH1 0x40 MLOAD SWAP2 POP PUSH1 0x1F NOT PUSH1 0x3F RETURNDATASIZE ADD AND DUP3 ADD PUSH1 0x40 MSTORE RETURNDATASIZE DUP3 MSTORE RETURNDATASIZE PUSH1 0x0 PUSH1 0x20 DUP5 ADD RETURNDATACOPY PUSH2 0xE4A JUMP JUMPDEST PUSH1 0x60 SWAP2 POP JUMPDEST POP POP SWAP1 POP DUP1 PUSH2 0xE6C JUMPI PUSH1 0x40 MLOAD PUSH4 0x12171D83 PUSH1 0xE3 SHL DUP2 MSTORE PUSH1 0x4 ADD PUSH1 0x40 MLOAD DUP1 SWAP2 SUB SWAP1 REVERT JUMPDEST DUP3 SLOAD PUSH1 0x40 MLOAD DUP4 DUP2 MSTORE PUSH1 0x1 PUSH1 0x1 PUSH1 0xA0 SHL SUB SWAP1 SWAP2 AND SWAP1 DUP7 SWAP1 PUSH32 0xFF29B281372993483C1CE6B621AE07832D519C2294E43340F051312701AD132A SWAP1 PUSH1 0x20 ADD PUSH2 0xD40 JUMP JUMPDEST PUSH1 0x0 CALLVALUE PUSH1 0x0 SUB PUSH2 0xECF JUMPI PUSH1 0x40 MLOAD PUSH4 0x2A9FFAB7 PUSH1 0xE2 SHL DUP2 MSTORE PUSH1 0x4 ADD PUSH1 0x40 MLOAD DUP1 SWAP2 SUB SWAP1 REVERT JUMPDEST DUP7 PUSH1 0x1 PUSH1 0x1 PUSH1 0x40 SHL SUB AND PUSH1 0x0 SUB PUSH2 0xEF9 JUMPI PUSH1 0x40 MLOAD PUSH4 0x1DA74479 PUSH1 0xE2 SHL DUP2 MSTORE PUSH1 0x4 ADD PUSH1 0x40 MLOAD DUP1 SWAP2 SUB SWAP1 REVERT JUMPDEST PUSH1 0x1 PUSH1 0x1 PUSH1 0xA0 SHL SUB DUP7 AND PUSH2 0xF20 JUMPI PUSH1 0x40 MLOAD PUSH4 0xEA8E4EB5 PUSH1 0xE0 SHL DUP2 MSTORE PUSH1 0x4 ADD PUSH1 0x40 MLOAD DUP1 SWAP2 SUB SWAP1 REVERT JUMPDEST PUSH1 0x1 PUSH1 0x1 PUSH1 0xA0 SHL SUB DUP5 AND PUSH2 0xF47 JUMPI PUSH1 0x40 MLOAD PUSH4 0xEA8E4EB5 PUSH1 0xE0 SHL DUP2 MSTORE PUSH1 0x4 ADD PUSH1 0x40 MLOAD DUP1 SWAP2 SUB SWAP1 REVERT JUMPDEST PUSH1 0x0 DUP1 SLOAD SWAP1 DUP1 PUSH2 0xF56 DUP4 PUSH2 0x1CBA JUMP JUMPDEST SWAP2 SWAP1 POP SSTORE SWAP1 POP PUSH1 0x40 MLOAD DUP1 PUSH2 0x180 ADD PUSH1 0x40 MSTORE DUP1 CALLER PUSH1 0x1 PUSH1 0x1 PUSH1 0xA0 SHL SUB AND DUP2 MSTORE PUSH1 0x20 ADD DUP8 PUSH1 0x1 PUSH1 0x1 PUSH1 0xA0 SHL SUB AND DUP2 MSTORE PUSH1 0x20 ADD DUP7 PUSH1 0x1 PUSH1 0x1 PUSH1 0xA0 SHL SUB AND DUP2 MSTORE PUSH1 0x20 ADD DUP6 PUSH1 0x1 PUSH1 0x1 PUSH1 0xA0 SHL SUB AND DUP2 MSTORE PUSH1 0x20 ADD CALLVALUE DUP2 MSTORE PUSH1 0x20 ADD TIMESTAMP PUSH1 0x1 PUSH1 0x1 PUSH1 0x40 SHL SUB AND DUP2 MSTORE PUSH1 0x20 ADD DUP9 PUSH1 0x1 PUSH1 0x1 PUSH1 0x40 SHL SUB AND TIMESTAMP PUSH2 0xFCE SWAP2 SWAP1 PUSH2 0x1CD3 JUMP JUMPDEST PUSH1 0x1 PUSH1 0x1 PUSH1 0x40 SHL SUB AND DUP2 MSTORE PUSH1 0x20 ADD PUSH1 0x0 DUP2 MSTORE PUSH1 0x20 ADD PUSH1 0x0 PUSH1 0xFF AND DUP2 MSTORE PUSH1 0x20 ADD DUP5 DUP5 DUP1 DUP1 PUSH1 0x1F ADD PUSH1 0x20 DUP1 SWAP2 DIV MUL PUSH1 0x20 ADD PUSH1 0x40 MLOAD SWAP1 DUP2 ADD PUSH1 0x40 MSTORE DUP1 SWAP4 SWAP3 SWAP2 SWAP1 DUP2 DUP2 MSTORE PUSH1 0x20 ADD DUP4 DUP4 DUP1 DUP3 DUP5 CALLDATACOPY PUSH1 0x0 SWAP3 ADD DUP3 SWAP1 MSTORE POP SWAP4 DUP6 MSTORE POP POP PUSH1 0x40 DUP1 MLOAD PUSH1 0x20 DUP2 DUP2 ADD DUP4 MSTORE DUP5 DUP3 MSTORE DUP1 DUP7 ADD SWAP2 SWAP1 SWAP2 MSTORE DUP2 MLOAD DUP1 DUP3 ADD DUP4 MSTORE DUP5 DUP2 MSTORE SWAP5 DUP3 ADD SWAP5 SWAP1 SWAP5 MSTORE DUP6 DUP4 MSTORE PUSH1 0x3 DUP1 DUP6 MSTORE SWAP3 DUP2 SWAP1 KECCAK256 DUP6 MLOAD DUP2 SLOAD PUSH1 0x1 PUSH1 0x1 PUSH1 0xA0 SHL SUB SWAP2 DUP3 AND PUSH1 0x1 PUSH1 0x1 PUSH1 0xA0 SHL SUB NOT SWAP2 DUP3 AND OR DUP4 SSTORE SWAP6 DUP8 ADD MLOAD PUSH1 0x1 DUP4 ADD DUP1 SLOAD SWAP2 DUP4 AND SWAP2 DUP9 AND SWAP2 SWAP1 SWAP2 OR SWAP1 SSTORE SWAP2 DUP7 ADD MLOAD PUSH1 0x2 DUP3 ADD DUP1 SLOAD SWAP2 DUP5 AND SWAP2 DUP8 AND SWAP2 SWAP1 SWAP2 OR SWAP1 SSTORE PUSH1 0x60 DUP7 ADD MLOAD SWAP4 DUP2 ADD DUP1 SLOAD SWAP5 SWAP1 SWAP3 AND SWAP4 SWAP1 SWAP5 AND SWAP3 SWAP1 SWAP3 OR SWAP1 SWAP2 SSTORE POP PUSH1 0x80 DUP3 ADD MLOAD PUSH1 0x4 DUP3 ADD SSTORE PUSH1 0xA0 DUP3 ADD MLOAD PUSH1 0x5 DUP1 DUP4 ADD DUP1 SLOAD PUSH1 0xC0 DUP7 ADD MLOAD PUSH1 0x1 PUSH1 0x1 PUSH1 0x40 SHL SUB SWAP1 DUP2 AND PUSH1 0x1 PUSH1 0x40 SHL MUL PUSH16 0xFFFFFFFFFFFFFFFFFFFFFFFFFFFFFFFF NOT SWAP1 SWAP3 AND SWAP5 AND SWAP4 SWAP1 SWAP4 OR SWAP3 SWAP1 SWAP3 OR DUP1 DUP4 SSTORE PUSH1 0xE0 DUP6 ADD MLOAD SWAP3 SWAP2 PUSH1 0xFF PUSH1 0x80 SHL NOT SWAP1 SWAP2 AND SWAP1 PUSH1 0x1 PUSH1 0x80 SHL SWAP1 DUP5 SWAP1 DUP2 GT ISZERO PUSH2 0x1130 JUMPI PUSH2 0x1130 PUSH2 0x1722 JUMP JUMPDEST MUL OR SWAP1 SSTORE POP PUSH2 0x100 DUP3 ADD MLOAD PUSH1 0x5 DUP3 ADD DUP1 SLOAD PUSH1 0xFF SWAP1 SWAP3 AND PUSH1 0x1 PUSH1 0x88 SHL MUL PUSH1 0xFF PUSH1 0x88 SHL NOT SWAP1 SWAP3 AND SWAP2 SWAP1 SWAP2 OR SWAP1 SSTORE PUSH2 0x120 DUP3 ADD MLOAD PUSH1 0x6 DUP3 ADD SWAP1 PUSH2 0x1170 SWAP1 DUP3 PUSH2 0x1CE6 JUMP JUMPDEST POP PUSH2 0x140 DUP3 ADD MLOAD PUSH1 0x7 DUP3 ADD SWAP1 PUSH2 0x1186 SWAP1 DUP3 PUSH2 0x1CE6 JUMP JUMPDEST POP PUSH2 0x160 DUP3 ADD MLOAD PUSH1 0x8 DUP3 ADD SWAP1 PUSH2 0x119C SWAP1 DUP3 PUSH2 0x1CE6 JUMP JUMPDEST POP POP POP PUSH1 0x1 PUSH1 0x1 PUSH1 0xA0 SHL SUB DUP7 AND CALLER DUP3 PUSH32 0x643D22604AE640E3D16AA62509AB80A14544D2DC0ED9D13477E8989B7CEB189 DUP9 DUP9 CALLVALUE PUSH2 0x11E2 PUSH1 0x1 PUSH1 0x1 PUSH1 0x40 SHL SUB DUP16 AND TIMESTAMP PUSH2 0x1CD3 JUMP JUMPDEST DUP11 DUP11 PUSH1 0x40 MLOAD PUSH2 0x11F6 SWAP7 SWAP6 SWAP5 SWAP4 SWAP3 SWAP2 SWAP1 PUSH2 0x1DA5 JUMP JUMPDEST PUSH1 0x40 MLOAD DUP1 SWAP2 SUB SWAP1 LOG4 SWAP7 SWAP6 POP POP POP POP POP POP JUMP JUMPDEST PUSH1 0x0 DUP2 DUP2 MSTORE PUSH1 0x3 PUSH1 0x20 DUP2 SWAP1 MSTORE PUSH1 0x40 SWAP1 SWAP2 KECCAK256 SWAP1 DUP2 ADD SLOAD PUSH1 0x1 PUSH1 0x1 PUSH1 0xA0 SHL SUB AND CALLER EQ DUP1 ISZERO SWAP1 PUSH2 0x1240 JUMPI POP PUSH1 0x2 SLOAD PUSH1 0x1 PUSH1 0x1 PUSH1 0xA0 SHL SUB AND CALLER EQ ISZERO JUMPDEST ISZERO PUSH2 0x125E JUMPI PUSH1 0x40 MLOAD PUSH4 0xEA8E4EB5 PUSH1 0xE0 SHL DUP2 MSTORE PUSH1 0x4 ADD PUSH1 0x40 MLOAD DUP1 SWAP2 SUB SWAP1 REVERT JUMPDEST PUSH1 0x3 PUSH1 0x5 DUP3 DUP2 ADD SLOAD PUSH1 0x1 PUSH1 0x80 SHL SWAP1 DIV PUSH1 0xFF AND SWAP1 DUP2 GT ISZERO PUSH2 0x1280 JUMPI PUSH2 0x1280 PUSH2 0x1722 JUMP JUMPDEST EQ PUSH2 0x129E JUMPI PUSH1 0x40 MLOAD PUSH4 0x7A92F19 PUSH1 0xE5 SHL DUP2 MSTORE PUSH1 0x4 ADD PUSH1 0x40 MLOAD DUP1 SWAP2 SUB SWAP1 REVERT JUMPDEST PUSH1 0x4 DUP2 ADD DUP1 SLOAD PUSH1 0x0 SWAP2 DUP3 SWAP1 SSTORE PUSH1 0x5 DUP4 ADD DUP1 SLOAD PUSH1 0xFF PUSH1 0x80 SHL NOT AND PUSH1 0x5 PUSH1 0x80 SHL OR SWAP1 SSTORE PUSH1 0x3 DUP4 ADD SLOAD PUSH1 0x40 MLOAD SWAP2 SWAP3 SWAP2 PUSH1 0x1 PUSH1 0x1 PUSH1 0xA0 SHL SUB SWAP1 SWAP2 AND SWAP1 DUP4 SWAP1 DUP4 DUP2 DUP2 DUP2 DUP6 DUP8 GAS CALL SWAP3 POP POP POP RETURNDATASIZE DUP1 PUSH1 0x0 DUP2 EQ PUSH2 0x1310 JUMPI PUSH1 0x40 MLOAD SWAP2 POP PUSH1 0x1F NOT PUSH1 0x3F RETURNDATASIZE ADD AND DUP3 ADD PUSH1 0x40 MSTORE RETURNDATASIZE DUP3 MSTORE RETURNDATASIZE PUSH1 0x0 PUSH1 0x20 DUP5 ADD RETURNDATACOPY PUSH2 0x1315 JUMP JUMPDEST PUSH1 0x60 SWAP2 POP JUMPDEST POP POP SWAP1 POP DUP1 PUSH2 0x1337 JUMPI PUSH1 0x40 MLOAD PUSH4 0x12171D83 PUSH1 0xE3 SHL DUP2 MSTORE PUSH1 0x4 ADD PUSH1 0x40 MLOAD DUP1 SWAP2 SUB SWAP1 REVERT JUMPDEST PUSH1 0x3 DUP4 ADD SLOAD PUSH1 0x40 MLOAD DUP4 DUP2 MSTORE PUSH1 0x1 PUSH1 0x1 PUSH1 0xA0 SHL SUB SWAP1 SWAP2 AND SWAP1 DUP6 SWAP1 PUSH32 0x1DA6EFA987842BDE49218D10428922F7FDA8711188EA3496EFEB21764F258B56 SWAP1 PUSH1 0x20 ADD PUSH1 0x40 MLOAD DUP1 SWAP2 SUB SWAP1 LOG3 POP POP POP POP JUMP JUMPDEST PUSH1 0x0 DUP2 DUP2 MSTORE PUSH1 0x3 PUSH1 0x20 MSTORE PUSH1 0x40 SWAP1 KECCAK256 PUSH1 0x1 ADD SLOAD DUP2 SWAP1 PUSH1 0x1 PUSH1 0x1 PUSH1 0xA0 SHL SUB AND CALLER EQ PUSH2 0x13BF JUMPI PUSH1 0x40 MLOAD PUSH4 0xEA8E4EB5 PUSH1 0xE0 SHL DUP2 MSTORE PUSH1 0x4 ADD PUSH1 0x40 MLOAD DUP1 SWAP2 SUB SWAP1 REVERT JUMPDEST PUSH1 0x0 DUP3 DUP2 MSTORE PUSH1 0x3 PUSH1 0x20 MSTORE PUSH1 0x40 DUP2 KECCAK256 SWAP1 PUSH1 0x5 DUP3 DUP2 ADD SLOAD PUSH1 0x1 PUSH1 0x80 SHL SWAP1 DIV PUSH1 0xFF AND SWAP1 DUP2 GT ISZERO PUSH2 0x13EE JUMPI PUSH2 0x13EE PUSH2 0x1722 JUMP JUMPDEST EQ ISZERO DUP1 ISZERO PUSH2 0x141C JUMPI POP PUSH1 0x1 PUSH1 0x5 DUP3 DUP2 ADD SLOAD PUSH1 0x1 PUSH1 0x80 SHL SWAP1 DIV PUSH1 0xFF AND SWAP1 DUP2 GT ISZERO PUSH2 0x1419 JUMPI PUSH2 0x1419 PUSH2 0x1722 JUMP JUMPDEST EQ ISZERO JUMPDEST ISZERO PUSH2 0x143A JUMPI PUSH1 0x40 MLOAD PUSH4 0x7A92F19 PUSH1 0xE5 SHL DUP2 MSTORE PUSH1 0x4 ADD PUSH1 0x40 MLOAD DUP1 SWAP2 SUB SWAP1 REVERT JUMPDEST PUSH1 0x5 DUP2 ADD SLOAD PUSH1 0x1 PUSH1 0x40 SHL SWAP1 DIV PUSH1 0x1 PUSH1 0x1 PUSH1 0x40 SHL SUB AND TIMESTAMP GT DUP1 ISZERO PUSH2 0x147C JUMPI POP PUSH1 0x0 PUSH1 0x5 DUP3 DUP2 ADD SLOAD PUSH1 0x1 PUSH1 0x80 SHL SWAP1 DIV PUSH1 0xFF AND SWAP1 DUP2 GT ISZERO PUSH2 0x147A JUMPI PUSH2 0x147A PUSH2 0x1722 JUMP JUMPDEST EQ JUMPDEST ISZERO PUSH2 0x149A JUMPI PUSH1 0x40 MLOAD PUSH4 0xB08CE5B3 PUSH1 0xE0 SHL DUP2 MSTORE PUSH1 0x4 ADD PUSH1 0x40 MLOAD DUP1 SWAP2 SUB SWAP1 REVERT JUMPDEST DUP1 PUSH1 0x7 ADD DUP1 SLOAD PUSH2 0x14A9 SWAP1 PUSH2 0x1AE5 JUMP JUMPDEST ISZERO SWAP1 POP DUP1 ISZERO PUSH2 0x14D7 JUMPI POP PUSH1 0x0 PUSH1 0x5 DUP3 DUP2 ADD SLOAD PUSH1 0x1 PUSH1 0x80 SHL SWAP1 DIV PUSH1 0xFF AND SWAP1 DUP2 GT ISZERO PUSH2 0x14D5 JUMPI PUSH2 0x14D5 PUSH2 0x1722 JUMP JUMPDEST EQ JUMPDEST ISZERO PUSH2 0x14F5 JUMPI PUSH1 0x40 MLOAD PUSH4 0x92F29F3 PUSH1 0xE2 SHL DUP2 MSTORE PUSH1 0x4 ADD PUSH1 0x40 MLOAD DUP1 SWAP2 SUB SWAP1 REVERT JUMPDEST PUSH1 0x5 DUP2 ADD DUP1 SLOAD PUSH1 0xFF PUSH1 0x80 SHL NOT AND PUSH1 0x1 PUSH1 0x81 SHL OR SWAP1 SSTORE PUSH1 0x40 MLOAD CALLER SWAP1 DUP5 SWAP1 PUSH32 0xBCE1A267F2292AE376E30F717F81329DBD1E8195BE429B4C480D848852AE54C4 SWAP1 PUSH1 0x0 SWAP1 LOG3 POP POP POP JUMP JUMPDEST PUSH1 0x0 DUP2 DUP2 MSTORE PUSH1 0x3 PUSH1 0x20 MSTORE PUSH1 0x40 DUP2 KECCAK256 SWAP1 PUSH1 0x5 DUP3 DUP2 ADD SLOAD PUSH1 0x1 PUSH1 0x80 SHL SWAP1 DIV PUSH1 0xFF AND SWAP1 DUP2 GT ISZERO PUSH2 0x156B JUMPI PUSH2 0x156B PUSH2 0x1722 JUMP JUMPDEST EQ ISZERO DUP1 ISZERO PUSH2 0x1599 JUMPI POP PUSH1 0x1 PUSH1 0x5 DUP3 DUP2 ADD SLOAD PUSH1 0x1 PUSH1 0x80 SHL SWAP1 DIV PUSH1 0xFF AND SWAP1 DUP2 GT ISZERO PUSH2 0x1596 JUMPI PUSH2 0x1596 PUSH2 0x1722 JUMP JUMPDEST EQ ISZERO JUMPDEST ISZERO PUSH2 0x15B7 JUMPI PUSH1 0x40 MLOAD PUSH4 0x7A92F19 PUSH1 0xE5 SHL DUP2 MSTORE PUSH1 0x4 ADD PUSH1 0x40 MLOAD DUP1 SWAP2 SUB SWAP1 REVERT JUMPDEST PUSH1 0x1 DUP2 ADD SLOAD PUSH1 0x0 SWAP1 PUSH1 0x1 PUSH1 0x1 PUSH1 0xA0 SHL SUB AND CALLER EQ DUP1 ISZERO PUSH2 0x15EA JUMPI POP PUSH1 0x5 DUP3 ADD SLOAD PUSH1 0x1 PUSH1 0x40 SHL SWAP1 DIV PUSH1 0x1 PUSH1 0x1 PUSH1 0x40 SHL SUB AND TIMESTAMP GT ISZERO JUMPDEST PUSH1 0x5 DUP4 ADD SLOAD SWAP1 SWAP2 POP PUSH1 0x1 PUSH1 0x40 SHL SWAP1 DIV PUSH1 0x1 PUSH1 0x1 PUSH1 0x40 SHL SUB AND TIMESTAMP GT DUP2 ISZERO DUP1 ISZERO PUSH2 0x1610 JUMPI POP DUP1 ISZERO JUMPDEST ISZERO PUSH2 0x162E JUMPI PUSH1 0x40 MLOAD PUSH4 0xEA8E4EB5 PUSH1 0xE0 SHL DUP2 MSTORE PUSH1 0x4 ADD PUSH1 0x40 MLOAD DUP1 SWAP2 SUB SWAP1 REVERT JUMPDEST PUSH1 0x5 DUP4 ADD DUP1 SLOAD PUSH1 0xFF PUSH1 0x80 SHL NOT AND PUSH1 0x3 PUSH1 0x80 SHL OR SWAP1 SSTORE PUSH1 0x40 MLOAD CALLER SWAP1 DUP6 SWAP1 PUSH32 0xAD61C80E55EFA6D7131B5DAFDEF10CA9A01F48CB23F8933FAD77D8836AE32C7 SWAP1 PUSH1 0x0 SWAP1 LOG3 POP POP POP POP JUMP JUMPDEST PUSH1 0x0 PUSH1 0x20 DUP3 DUP5 SUB SLT ISZERO PUSH2 0x1688 JUMPI PUSH1 0x0 DUP1 REVERT JUMPDEST POP CALLDATALOAD SWAP2 SWAP1 POP JUMP JUMPDEST PUSH1 0x0 DUP1 DUP4 PUSH1 0x1F DUP5 ADD SLT PUSH2 0x16A1 JUMPI PUSH1 0x0 DUP1 REVERT JUMPDEST POP DUP2 CALLDATALOAD PUSH1 0x1 PUSH1 0x1 PUSH1 0x40 SHL SUB DUP2 GT ISZERO PUSH2 0x16B8 JUMPI PUSH1 0x0 DUP1 REVERT JUMPDEST PUSH1 0x20 DUP4 ADD SWAP2 POP DUP4 PUSH1 0x20 DUP3 DUP6 ADD ADD GT ISZERO PUSH2 0x16D0 JUMPI PUSH1 0x0 DUP1 REVERT JUMPDEST SWAP3 POP SWAP3 SWAP1 POP JUMP JUMPDEST PUSH1 0x0 DUP1 PUSH1 0x0 PUSH1 0x40 DUP5 DUP7 SUB SLT ISZERO PUSH2 0x16EC JUMPI PUSH1 0x0 DUP1 REVERT JUMPDEST DUP4 CALLDATALOAD SWAP3 POP PUSH1 0x20 DUP5 ADD CALLDATALOAD PUSH1 0x1 PUSH1 0x1 PUSH1 0x40 SHL SUB DUP2 GT ISZERO PUSH2 0x1709 JUMPI PUSH1 0x0 DUP1 REVERT JUMPDEST PUSH2 0x1715 DUP7 DUP3 DUP8 ADD PUSH2 0x168F JUMP JUMPDEST SWAP5 SWAP8 SWAP1 SWAP7 POP SWAP4 SWAP5 POP POP POP POP JUMP JUMPDEST PUSH4 0x4E487B71 PUSH1 0xE0 SHL PUSH1 0x0 MSTORE PUSH1 0x21 PUSH1 0x4 MSTORE PUSH1 0x24 PUSH1 0x0 REVERT JUMPDEST PUSH1 0x6 DUP2 LT PUSH2 0x1756 JUMPI PUSH4 0x4E487B71 PUSH1 0xE0 SHL PUSH1 0x0 MSTORE PUSH1 0x21 PUSH1 0x4 MSTORE PUSH1 0x24 PUSH1 0x0 REVERT JUMPDEST SWAP1 MSTORE JUMP JUMPDEST PUSH1 0x0 DUP2 MLOAD DUP1 DUP5 MSTORE PUSH1 0x0 JUMPDEST DUP2 DUP2 LT ISZERO PUSH2 0x1780 JUMPI PUSH1 0x20 DUP2 DUP6 ADD DUP2 ADD MLOAD DUP7 DUP4 ADD DUP3 ADD MSTORE ADD PUSH2 0x1764 JUMP JUMPDEST POP PUSH1 0x0 PUSH1 0x20 DUP3 DUP7 ADD ADD MSTORE PUSH1 0x20 PUSH1 0x1F NOT PUSH1 0x1F DUP4 ADD AND DUP6 ADD ADD SWAP2 POP POP SWAP3 SWAP2 POP POP JUMP JUMPDEST PUSH1 0x1 PUSH1 0x1 PUSH1 0xA0 SHL SUB DUP14 DUP2 AND DUP3 MSTORE DUP13 DUP2 AND PUSH1 0x20 DUP4 ADD MSTORE DUP12 DUP2 AND PUSH1 0x40 DUP4 ADD MSTORE DUP11 AND PUSH1 0x60 DUP3 ADD MSTORE PUSH1 0x80 DUP2 ADD DUP10 SWAP1 MSTORE PUSH1 0x1 PUSH1 0x1 PUSH1 0x40 SHL SUB DUP9 AND PUSH1 0xA0 DUP3 ADD MSTORE PUSH1 0x0 PUSH1 0x1 PUSH1 0x1 PUSH1 0x40 SHL SUB DUP9 AND PUSH1 0xC0 DUP4 ADD MSTORE PUSH2 0x17F8 PUSH1 0xE0 DUP4 ADD DUP9 PUSH2 0x1738 JUMP JUMPDEST PUSH1 0xFF DUP7 AND PUSH2 0x100 DUP4 ADD MSTORE PUSH2 0x180 PUSH2 0x120 DUP4 ADD MSTORE PUSH2 0x1819 PUSH2 0x180 DUP4 ADD DUP7 PUSH2 0x175A JUMP JUMPDEST DUP3 DUP2 SUB PUSH2 0x140 DUP5 ADD MSTORE PUSH2 0x182C DUP2 DUP7 PUSH2 0x175A JUMP JUMPDEST SWAP1 POP DUP3 DUP2 SUB PUSH2 0x160 DUP5 ADD MSTORE PUSH2 0x1841 DUP2 DUP6 PUSH2 0x175A JUMP JUMPDEST SWAP16 SWAP15 POP POP POP POP POP POP POP POP POP POP POP POP POP POP POP JUMP JUMPDEST DUP1 CALLDATALOAD PUSH1 0x1 PUSH1 0x1 PUSH1 0xA0 SHL SUB DUP2 AND DUP2 EQ PUSH2 0x186B JUMPI PUSH1 0x0 DUP1 REVERT JUMPDEST SWAP2 SWAP1 POP JUMP JUMPDEST PUSH1 0x0 PUSH1 0x20 DUP3 DUP5 SUB SLT ISZERO PUSH2 0x1882 JUMPI PUSH1 0x0 DUP1 REVERT JUMPDEST PUSH2 0x188B DUP3 PUSH2 0x1854 JUMP JUMPDEST SWAP4 SWAP3 POP POP POP JUMP JUMPDEST DUP1 CALLDATALOAD PUSH1 0xFF DUP2 AND DUP2 EQ PUSH2 0x186B JUMPI PUSH1 0x0 DUP1 REVERT JUMPDEST PUSH1 0x0 DUP1 PUSH1 0x40 DUP4 DUP6 SUB SLT ISZERO PUSH2 0x18B6 JUMPI PUSH1 0x0 DUP1 REVERT JUMPDEST DUP3 CALLDATALOAD SWAP2 POP PUSH2 0x18C6 PUSH1 0x20 DUP5 ADD PUSH2 0x1892 JUMP JUMPDEST SWAP1 POP SWAP3 POP SWAP3 SWAP1 POP JUMP JUMPDEST PUSH1 0x20 DUP2 MSTORE PUSH2 0x18E9 PUSH1 0x20 DUP3 ADD DUP4 MLOAD PUSH1 0x1 PUSH1 0x1 PUSH1 0xA0 SHL SUB AND SWAP1 MSTORE JUMP JUMPDEST PUSH1 0x0 PUSH1 0x20 DUP4 ADD MLOAD PUSH2 0x1905 PUSH1 0x40 DUP5 ADD DUP3 PUSH1 0x1 PUSH1 0x1 PUSH1 0xA0 SHL SUB AND SWAP1 MSTORE JUMP JUMPDEST POP PUSH1 0x40 DUP4 ADD MLOAD PUSH1 0x1 PUSH1 0x1 PUSH1 0xA0 SHL SUB DUP2 AND PUSH1 0x60 DUP5 ADD MSTORE POP PUSH1 0x60 DUP4 ADD MLOAD PUSH1 0x1 PUSH1 0x1 PUSH1 0xA0 SHL SUB DUP2 AND PUSH1 0x80 DUP5 ADD MSTORE POP PUSH1 0x80 DUP4 ADD MLOAD PUSH1 0xA0 DUP4 ADD MSTORE PUSH1 0xA0 DUP4 ADD MLOAD PUSH2 0x1954 PUSH1 0xC0 DUP5 ADD DUP3 PUSH1 0x1 PUSH1 0x1 PUSH1 0x40 SHL SUB AND SWAP1 MSTORE JUMP JUMPDEST POP PUSH1 0xC0 DUP4 ADD MLOAD PUSH1 0x1 PUSH1 0x1 PUSH1 0x40 SHL SUB DUP2 AND PUSH1 0xE0 DUP5 ADD MSTORE POP PUSH1 0xE0 DUP4 ADD MLOAD PUSH2 0x100 PUSH2 0x197E DUP2 DUP6 ADD DUP4 PUSH2 0x1738 JUMP JUMPDEST DUP5 ADD MLOAD SWAP1 POP PUSH2 0x120 PUSH2 0x1994 DUP5 DUP3 ADD DUP4 PUSH1 0xFF AND SWAP1 MSTORE JUMP JUMPDEST DUP1 DUP6 ADD MLOAD SWAP2 POP POP PUSH2 0x180 PUSH2 0x140 DUP2 DUP2 DUP7 ADD MSTORE PUSH2 0x19B4 PUSH2 0x1A0 DUP7 ADD DUP5 PUSH2 0x175A JUMP JUMPDEST SWAP3 POP DUP1 DUP7 ADD MLOAD SWAP1 POP PUSH1 0x1F NOT PUSH2 0x160 DUP2 DUP8 DUP7 SUB ADD DUP2 DUP9 ADD MSTORE PUSH2 0x19D5 DUP6 DUP5 PUSH2 0x175A JUMP JUMPDEST SWAP1 DUP9 ADD MLOAD DUP8 DUP3 SUB SWAP1 SWAP3 ADD DUP5 DUP9 ADD MSTORE SWAP4 POP SWAP1 POP PUSH2 0x19F1 DUP4 DUP3 PUSH2 0x175A JUMP JUMPDEST SWAP7 SWAP6 POP POP POP POP POP POP JUMP JUMPDEST PUSH1 0x0 DUP1 PUSH1 0x0 DUP1 PUSH1 0x60 DUP6 DUP8 SUB SLT ISZERO PUSH2 0x1A11 JUMPI PUSH1 0x0 DUP1 REVERT JUMPDEST DUP5 CALLDATALOAD SWAP4 POP PUSH2 0x1A21 PUSH1 0x20 DUP7 ADD PUSH2 0x1892 JUMP JUMPDEST SWAP3 POP PUSH1 0x40 DUP6 ADD CALLDATALOAD PUSH1 0x1 PUSH1 0x1 PUSH1 0x40 SHL SUB DUP2 GT ISZERO PUSH2 0x1A3C JUMPI PUSH1 0x0 DUP1 REVERT JUMPDEST PUSH2 0x1A48 DUP8 DUP3 DUP9 ADD PUSH2 0x168F JUMP JUMPDEST SWAP6 SWAP9 SWAP5 SWAP8 POP SWAP6 POP POP POP POP JUMP JUMPDEST PUSH1 0x0 DUP1 PUSH1 0x0 DUP1 PUSH1 0x0 DUP1 PUSH1 0xA0 DUP8 DUP10 SUB SLT ISZERO PUSH2 0x1A6D JUMPI PUSH1 0x0 DUP1 REVERT JUMPDEST DUP7 CALLDATALOAD PUSH1 0x1 PUSH1 0x1 PUSH1 0x40 SHL SUB DUP1 DUP3 AND DUP3 EQ PUSH2 0x1A85 JUMPI PUSH1 0x0 DUP1 REVERT JUMPDEST DUP2 SWAP8 POP PUSH2 0x1A94 PUSH1 0x20 DUP11 ADD PUSH2 0x1854 JUMP JUMPDEST SWAP7 POP PUSH2 0x1AA2 PUSH1 0x40 DUP11 ADD PUSH2 0x1854 JUMP JUMPDEST SWAP6 POP PUSH2 0x1AB0 PUSH1 0x60 DUP11 ADD PUSH2 0x1854 JUMP JUMPDEST SWAP5 POP PUSH1 0x80 DUP10 ADD CALLDATALOAD SWAP2 POP DUP1 DUP3 GT ISZERO PUSH2 0x1AC6 JUMPI PUSH1 0x0 DUP1 REVERT JUMPDEST POP PUSH2 0x1AD3 DUP10 DUP3 DUP11 ADD PUSH2 0x168F JUMP JUMPDEST SWAP8 SWAP11 SWAP7 SWAP10 POP SWAP5 SWAP8 POP SWAP3 SWAP6 SWAP4 SWAP5 SWAP3 POP POP POP JUMP JUMPDEST PUSH1 0x1 DUP2 DUP2 SHR SWAP1 DUP3 AND DUP1 PUSH2 0x1AF9 JUMPI PUSH1 0x7F DUP3 AND SWAP2 POP JUMPDEST PUSH1 0x20 DUP3 LT DUP2 SUB PUSH2 0x1B19 JUMPI PUSH4 0x4E487B71 PUSH1 0xE0 SHL PUSH1 0x0 MSTORE PUSH1 0x22 PUSH1 0x4 MSTORE PUSH1 0x24 PUSH1 0x0 REVERT JUMPDEST POP SWAP2 SWAP1 POP JUMP JUMPDEST PUSH4 0x4E487B71 PUSH1 0xE0 SHL PUSH1 0x0 MSTORE PUSH1 0x41 PUSH1 0x4 MSTORE PUSH1 0x24 PUSH1 0x0 REVERT JUMPDEST PUSH1 0x1F DUP3 GT ISZERO PUSH2 0x1B81 JUMPI PUSH1 0x0 DUP2 PUSH1 0x0 MSTORE PUSH1 0x20 PUSH1 0x0 KECCAK256 PUSH1 0x1F DUP6 ADD PUSH1 0x5 SHR DUP2 ADD PUSH1 0x20 DUP7 LT ISZERO PUSH2 0x1B5E JUMPI POP DUP1 JUMPDEST PUSH1 0x1F DUP6 ADD PUSH1 0x5 SHR DUP3 ADD SWAP2 POP JUMPDEST DUP2 DUP2 LT ISZERO PUSH2 0x1B7D JUMPI DUP3 DUP2 SSTORE PUSH1 0x1 ADD PUSH2 0x1B6A JUMP JUMPDEST POP POP POP JUMPDEST POP POP POP JUMP JUMPDEST PUSH1 0x1 PUSH1 0x1 PUSH1 0x40 SHL SUB DUP4 GT ISZERO PUSH2 0x1B9D JUMPI PUSH2 0x1B9D PUSH2 0x1B1F JUMP JUMPDEST PUSH2 0x1BB1 DUP4 PUSH2 0x1BAB DUP4 SLOAD PUSH2 0x1AE5 JUMP JUMPDEST DUP4 PUSH2 0x1B35 JUMP JUMPDEST PUSH1 0x0 PUSH1 0x1F DUP5 GT PUSH1 0x1 DUP2 EQ PUSH2 0x1BE5 JUMPI PUSH1 0x0 DUP6 ISZERO PUSH2 0x1BCD JUMPI POP DUP4 DUP3 ADD CALLDATALOAD JUMPDEST PUSH1 0x0 NOT PUSH1 0x3 DUP8 SWAP1 SHL SHR NOT AND PUSH1 0x1 DUP7 SWAP1 SHL OR DUP4 SSTORE PUSH2 0x1C3F JUMP JUMPDEST PUSH1 0x0 DUP4 DUP2 MSTORE PUSH1 0x20 SWAP1 KECCAK256 PUSH1 0x1F NOT DUP7 AND SWAP1 DUP4 JUMPDEST DUP3 DUP2 LT ISZERO PUSH2 0x1C16 JUMPI DUP7 DUP6 ADD CALLDATALOAD DUP3 SSTORE PUSH1 0x20 SWAP5 DUP6 ADD SWAP5 PUSH1 0x1 SWAP1 SWAP3 ADD SWAP2 ADD PUSH2 0x1BF6 JUMP JUMPDEST POP DUP7 DUP3 LT ISZERO PUSH2 0x1C33 JUMPI PUSH1 0x0 NOT PUSH1 0xF8 DUP9 PUSH1 0x3 SHL AND SHR NOT DUP5 DUP8 ADD CALLDATALOAD AND DUP2 SSTORE JUMPDEST POP POP PUSH1 0x1 DUP6 PUSH1 0x1 SHL ADD DUP4 SSTORE JUMPDEST POP POP POP POP POP JUMP JUMPDEST DUP2 DUP4 MSTORE DUP2 DUP2 PUSH1 0x20 DUP6 ADD CALLDATACOPY POP PUSH1 0x0 DUP3 DUP3 ADD PUSH1 0x20 SWAP1 DUP2 ADD SWAP2 SWAP1 SWAP2 MSTORE PUSH1 0x1F SWAP1 SWAP2 ADD PUSH1 0x1F NOT AND SWAP1 SWAP2 ADD ADD SWAP1 JUMP JUMPDEST PUSH1 0x20 DUP2 MSTORE PUSH1 0x0 PUSH2 0x1C83 PUSH1 0x20 DUP4 ADD DUP5 DUP7 PUSH2 0x1C46 JUMP JUMPDEST SWAP5 SWAP4 POP POP POP POP JUMP JUMPDEST PUSH4 0x4E487B71 PUSH1 0xE0 SHL PUSH1 0x0 MSTORE PUSH1 0x11 PUSH1 0x4 MSTORE PUSH1 0x24 PUSH1 0x0 REVERT JUMPDEST DUP2 DUP2 SUB DUP2 DUP2 GT ISZERO PUSH2 0x1CB4 JUMPI PUSH2 0x1CB4 PUSH2 0x1C8B JUMP JUMPDEST SWAP3 SWAP2 POP POP JUMP JUMPDEST PUSH1 0x0 PUSH1 0x1 DUP3 ADD PUSH2 0x1CCC JUMPI PUSH2 0x1CCC PUSH2 0x1C8B JUMP JUMPDEST POP PUSH1 0x1 ADD SWAP1 JUMP JUMPDEST DUP1 DUP3 ADD DUP1 DUP3 GT ISZERO PUSH2 0x1CB4 JUMPI PUSH2 0x1CB4 PUSH2 0x1C8B JUMP JUMPDEST DUP2 MLOAD PUSH1 0x1 PUSH1 0x1 PUSH1 0x40 SHL SUB DUP2 GT ISZERO PUSH2 0x1CFF JUMPI PUSH2 0x1CFF PUSH2 0x1B1F JUMP JUMPDEST PUSH2 0x1D13 DUP2 PUSH2 0x1D0D DUP5 SLOAD PUSH2 0x1AE5 JUMP JUMPDEST DUP5 PUSH2 0x1B35 JUMP JUMPDEST PUSH1 0x20 DUP1 PUSH1 0x1F DUP4 GT PUSH1 0x1 DUP2 EQ PUSH2 0x1D48 JUMPI PUSH1 0x0 DUP5 ISZERO PUSH2 0x1D30 JUMPI POP DUP6 DUP4 ADD MLOAD JUMPDEST PUSH1 0x0 NOT PUSH1 0x3 DUP7 SWAP1 SHL SHR NOT AND PUSH1 0x1 DUP6 SWAP1 SHL OR DUP6 SSTORE PUSH2 0x1B7D JUMP JUMPDEST PUSH1 0x0 DUP6 DUP2 MSTORE PUSH1 0x20 DUP2 KECCAK256 PUSH1 0x1F NOT DUP7 AND SWAP2 JUMPDEST DUP3 DUP2 LT ISZERO PUSH2 0x1D77 JUMPI DUP9 DUP7 ADD MLOAD DUP3 SSTORE SWAP5 DUP5 ADD SWAP5 PUSH1 0x1 SWAP1 SWAP2 ADD SWAP1 DUP5 ADD PUSH2 0x1D58 JUMP JUMPDEST POP DUP6 DUP3 LT ISZERO PUSH2 0x1D95 JUMPI DUP8 DUP6 ADD MLOAD PUSH1 0x0 NOT PUSH1 0x3 DUP9 SWAP1 SHL PUSH1 0xF8 AND SHR NOT AND DUP2 SSTORE JUMPDEST POP POP POP POP POP PUSH1 0x1 SWAP1 DUP2 SHL ADD SWAP1 SSTORE POP JUMP JUMPDEST PUSH1 0x1 PUSH1 0x1 PUSH1 0xA0 SHL SUB DUP8 DUP2 AND DUP3 MSTORE DUP7 AND PUSH1 0x20 DUP3 ADD MSTORE PUSH1 0x40 DUP2 ADD DUP6 SWAP1 MSTORE PUSH1 0x1 PUSH1 0x1 PUSH1 0x40 SHL SUB DUP5 AND PUSH1 0x60 DUP3 ADD MSTORE PUSH1 0xA0 PUSH1 0x80 DUP3 ADD DUP2 SWAP1 MSTORE PUSH1 0x0 SWAP1 PUSH2 0x1DE8 SWAP1 DUP4 ADD DUP5 DUP7 PUSH2 0x1C46 JUMP JUMPDEST SWAP9 SWAP8 POP POP POP POP POP POP POP POP JUMP INVALID LOG2 PUSH5 0x6970667358 0x22 SLT KECCAK256 GASLIMIT SWAP3 JUMP MCOPY CODECOPY SWAP11 0xB8 OR STATICCALL LT GT LOG0 0xB4 0x4C 0xDC 0xD PUSH26 0x876AA04E149CA09AE787379B46A87464736F6C63430008180033 "},"methodIdentifiers":{"admin()":"f851a440","burnAddress()":"70d5ae05","claimPenalty(uint256)":"ba9244f3","claimSuccess(uint256)":"a3d0da45","commitments(uint256)":"49ce8997","confirmSuccess(uint256,uint8)":"535c5444","createCommitment(uint64,address,address,address,string)":"aa950270","getCommitment(uint256)":"69bcdb7d","markFailed(uint256)":"f3634a32","nextCommitmentId()":"5ac48e6d","requestVerification(uint256)":"0c020f08","setBurnAddress(address)":"4b0e7216","submitProof(uint256,string)":"2af00510","verifySuccess(uint256)":"ec05386b","verifyWithAI(uint256,uint8,string)":"70dc7b27"}}}}}