{
  "_format": "hh-sol-artifact-1",
  "contractName": "TimeLendMVP",
  "sourceName": "src/TimeLendMVP.sol",
  "abi": [
    {
      "inputs": [
        {
          "internalType": "address",
          "name": "_burnAddress",
          "type": "address"
        }
      ],
      "stateMutability": "nonpayable",
      "type": "constructor"
    },
    {
      "inputs": [],
      "name": "DeadlineNotReached",
      "type": "error"
    },
    {
      "inputs": [],
      "name": "DeadlineReached",
      "type": "error"
    },
    {
      "inputs": [],
      "name": "InsufficientQualityScore",
      "type": "error"
    },
    {
      "inputs": [],
      "name": "InvalidDeadline",
      "type": "error"
    },
    {
      "inputs": [],
      "name": "InvalidStatus",
      "type": "error"
    },
    {
      "inputs": [],
      "name": "InvalidValue",
      "type": "error"
    },
    {
      "inputs": [],
      "name": "NoProofSubmitted",
      "type": "error"
    },
    {
      "inputs": [],
      "name": "NotAuthorized",
      "type": "error"
    },
    {
      "inputs": [],
      "name": "QualityScoreTooHigh",
      "type": "error"
    },
    {
      "inputs": [],
      "name": "TransferFailed",
      "type": "error"
    },
    {
      "anonymous": false,
      "inputs": [
        {
          "indexed": true,
          "internalType": "uint256",
          "name": "commitmentId",
          "type": "uint256"
        },
        {
          "indexed": true,
          "internalType": "address",
          "name": "user",
          "type": "address"
        },
        {
          "indexed": true,
          "internalType": "address",
          "name": "verifier",
          "type": "address"
        },
        {
          "indexed": false,
          "internalType": "address",
          "name": "auditor",
          "type": "address"
        },
        {
          "indexed": false,
          "internalType": "address",
          "name": "penaltyReceiver",
          "type": "address"
        },
        {
          "indexed": false,
          "internalType": "uint256",
          "name": "stake",
          "type": "uint256"
        },
        {
          "indexed": false,
          "internalType": "uint64",
          "name": "deadline",
          "type": "uint64"
        },
        {
          "indexed": false,
          "internalType": "string",
          "name": "taskURI",
          "type": "string"
        }
      ],
      "name": "CommitmentCreated",
      "type": "event"
    },
    {
      "anonymous": false,
      "inputs": [
        {
          "indexed": true,
          "internalType": "uint256",
          "name": "commitmentId",
          "type": "uint256"
        },
        {
          "indexed": true,
          "internalType": "address",
          "name": "resolver",
          "type": "address"
        }
      ],
      "name": "CommitmentFailed",
      "type": "event"
    },
    {
      "anonymous": false,
      "inputs": [
        {
          "indexed": true,
          "internalType": "uint256",
          "name": "commitmentId",
          "type": "uint256"
        },
        {
          "indexed": true,
          "internalType": "address",
          "name": "verifier",
          "type": "address"
        }
      ],
      "name": "CommitmentSucceeded",
      "type": "event"
    },
    {
      "anonymous": false,
      "inputs": [
        {
          "indexed": true,
          "internalType": "uint256",
          "name": "commitmentId",
          "type": "uint256"
        },
        {
          "indexed": false,
          "internalType": "uint8",
          "name": "qualityScore",
          "type": "uint8"
        },
        {
          "indexed": true,
          "internalType": "address",
          "name": "auditor",
          "type": "address"
        }
      ],
      "name": "CommitmentVerified",
      "type": "event"
    },
    {
      "anonymous": false,
      "inputs": [
        {
          "indexed": true,
          "internalType": "uint256",
          "name": "commitmentId",
          "type": "uint256"
        },
        {
          "indexed": true,
          "internalType": "address",
          "name": "penaltyReceiver",
          "type": "address"
        },
        {
          "indexed": false,
          "internalType": "uint256",
          "name": "amount",
          "type": "uint256"
        }
      ],
      "name": "PenaltyClaimed",
      "type": "event"
    },
    {
      "anonymous": false,
      "inputs": [
        {
          "indexed": true,
          "internalType": "uint256",
          "name": "commitmentId",
          "type": "uint256"
        },
        {
          "indexed": false,
          "internalType": "string",
          "name": "proofURI",
          "type": "string"
        }
      ],
      "name": "ProofSubmitted",
      "type": "event"
    },
    {
      "anonymous": false,
      "inputs": [
        {
          "indexed": true,
          "internalType": "uint256",
          "name": "commitmentId",
          "type": "uint256"
        },
        {
          "indexed": true,
          "internalType": "address",
          "name": "user",
          "type": "address"
        },
        {
          "indexed": false,
          "internalType": "uint256",
          "name": "amount",
          "type": "uint256"
        }
      ],
      "name": "UserClaimed",
      "type": "event"
    },
    {
      "anonymous": false,
      "inputs": [
        {
          "indexed": true,
          "internalType": "uint256",
          "name": "commitmentId",
          "type": "uint256"
        }
      ],
      "name": "VerificationRequested",
      "type": "event"
    },
    {
      "inputs": [],
      "name": "admin",
      "outputs": [
        {
          "internalType": "address",
          "name": "",
          "type": "address"
        }
      ],
      "stateMutability": "view",
      "type": "function"
    },
    {
      "inputs": [],
      "name": "burnAddress",
      "outputs": [
        {
          "internalType": "address",
          "name": "",
          "type": "address"
        }
      ],
      "stateMutability": "view",
      "type": "function"
    },
    {
      "inputs": [
        {
          "internalType": "uint256",
          "name": "commitmentId",
          "type": "uint256"
        }
      ],
      "name": "claimPenalty",
      "outputs": [],
      "stateMutability": "nonpayable",
      "type": "function"
    },
    {
      "inputs": [
        {
          "internalType": "uint256",
          "name": "commitmentId",
          "type": "uint256"
        }
      ],
      "name": "claimSuccess",
      "outputs": [],
      "stateMutability": "nonpayable",
      "type": "function"
    },
    {
      "inputs": [
        {
          "internalType": "uint256",
          "name": "",
          "type": "uint256"
        }
      ],
      "name": "commitments",
      "outputs": [
        {
          "internalType": "address",
          "name": "user",
          "type": "address"
        },
        {
          "internalType": "address",
          "name": "verifier",
          "type": "address"
        },
        {
          "internalType": "address",
          "name": "auditor",
          "type": "address"
        },
        {
          "internalType": "address",
          "name": "penaltyReceiver",
          "type": "address"
        },
        {
          "internalType": "uint256",
          "name": "stake",
          "type": "uint256"
        },
        {
          "internalType": "uint64",
          "name": "createdAt",
          "type": "uint64"
        },
        {
          "internalType": "uint64",
          "name": "deadline",
          "type": "uint64"
        },
        {
          "internalType": "enum TimeLendMVP.Status",
          "name": "status",
          "type": "uint8"
        },
        {
          "internalType": "uint8",
          "name": "qualityScore",
          "type": "uint8"
        },
        {
          "internalType": "string",
          "name": "taskURI",
          "type": "string"
        },
        {
          "internalType": "string",
          "name": "proofURI",
          "type": "string"
        },
        {
          "internalType": "string",
          "name": "verificationNotes",
          "type": "string"
        }
      ],
      "stateMutability": "view",
      "type": "function"
    },
    {
      "inputs": [
        {
          "internalType": "uint256",
          "name": "commitmentId",
          "type": "uint256"
        },
        {
          "internalType": "uint8",
          "name": "minQualityScore",
          "type": "uint8"
        }
      ],
      "name": "confirmSuccess",
      "outputs": [],
      "stateMutability": "nonpayable",
      "type": "function"
    },
    {
      "inputs": [
        {
          "internalType": "uint64",
          "name": "durationSeconds",
          "type": "uint64"
        },
        {
          "internalType": "address",
          "name": "verifier",
          "type": "address"
        },
        {
          "internalType": "address",
          "name": "auditor",
          "type": "address"
        },
        {
          "internalType": "address",
          "name": "penaltyReceiver",
          "type": "address"
        },
        {
          "internalType": "string",
          "name": "taskURI",
          "type": "string"
        }
      ],
      "name": "createCommitment",
      "outputs": [
        {
          "internalType": "uint256",
          "name": "commitmentId",
          "type": "uint256"
        }
      ],
      "stateMutability": "payable",
      "type": "function"
    },
    {
      "inputs": [
        {
          "internalType": "uint256",
          "name": "commitmentId",
          "type": "uint256"
        }
      ],
      "name": "getCommitment",
      "outputs": [
        {
          "components": [
            {
              "internalType": "address",
              "name": "user",
              "type": "address"
            },
            {
              "internalType": "address",
              "name": "verifier",
              "type": "address"
            },
            {
              "internalType": "address",
              "name": "auditor",
              "type": "address"
            },
            {
              "internalType": "address",
              "name": "penaltyReceiver",
              "type": "address"
            },
            {
              "internalType": "uint256",
              "name": "stake",
              "type": "uint256"
            },
            {
              "internalType": "uint64",
              "name": "createdAt",
              "type": "uint64"
            },
            {
              "internalType": "uint64",
              "name": "deadline",
              "type": "uint64"
            },
            {
              "internalType": "enum TimeLendMVP.Status",
              "name": "status",
              "type": "uint8"
            },
            {
              "internalType": "uint8",
              "name": "qualityScore",
              "type": "uint8"
            },
            {
              "internalType": "string",
              "name": "taskURI",
              "type": "string"
            },
            {
              "internalType": "string",
              "name": "proofURI",
              "type": "string"
            },
            {
              "internalType": "string",
              "name": "verificationNotes",
              "type": "string"
            }
          ],
          "internalType": "struct TimeLendMVP.Commitment",
          "name": "",
          "type": "tuple"
        }
      ],
      "stateMutability": "view",
      "type": "function"
    },
    {
      "inputs": [
        {
          "internalType": "uint256",
          "name": "commitmentId",
          "type": "uint256"
        }
      ],
      "name": "markFailed",
      "outputs": [],
      "stateMutability": "nonpayable",
      "type": "function"
    },
    {
      "inputs": [],
      "name": "nextCommitmentId",
      "outputs": [
        {
          "internalType": "uint256",
          "name": "",
          "type": "uint256"
        }
      ],
      "stateMutability": "view",
      "type": "function"
    },
    {
      "inputs": [
        {
          "internalType": "uint256",
          "name": "commitmentId",
          "type": "uint256"
        }
      ],
      "name": "requestVerification",
      "outputs": [],
      "stateMutability": "nonpayable",
      "type": "function"
    },
    {
      "inputs": [
        {
          "internalType": "address",
          "name": "_burnAddress",
          "type": "address"
        }
      ],
      "name": "setBurnAddress",
      "outputs": [],
      "stateMutability": "nonpayable",
      "type": "function"
    },
    {
      "inputs": [
        {
          "internalType": "uint256",
          "name": "commitmentId",
          "type": "uint256"
        },
        {
          "internalType": "string",
          "name": "proofURI",
          "type": "string"
        }
      ],
      "name": "submitProof",
      "outputs": [],
      "stateMutability": "nonpayable",
      "type": "function"
    },
    {
      "inputs": [
        {
          "internalType": "uint256",
          "name": "commitmentId",
          "type": "uint256"
        }
      ],
      "name": "verifySuccess",
      "outputs": [],
      "stateMutability": "nonpayable",
      "type": "function"
    },
    {
      "inputs": [
        {
          "internalType": "uint256",
          "name": "commitmentId",
          "type": "uint256"
        },
        {
          "internalType": "uint8",
          "name": "qualityScore",
          "type": "uint8"
        },
        {
          "internalType": "string",
          "name": "verificationNotes",
          "type": "string"
        }
      ],
      "name": "verifyWithAI",
      "outputs": [],
      "stateMutability": "nonpayable",
      "type": "function"
    }
  ],
  "bytecode": "0x608060405234801561001057600080fd5b50604051611ecb380380611ecb83398101604081905261002f91610062565b60018054336001600160a01b031991821617909155600280549091166001600160a01b0392909216919091179055610092565b60006020828403121561007457600080fd5b81516001600160a01b038116811461008b57600080fd5b9392505050565b611e2a806100a16000396000f3fe6080604052600436106100e85760003560e01c806370d5ae051161008a578063ba9244f311610059578063ba9244f31461028c578063ec05386b146102ac578063f3634a32146102cc578063f851a440146102ec57600080fd5b806370d5ae051461020157806370dc7b2714610239578063a3d0da4514610259578063aa9502701461027957600080fd5b80634b0e7216116100c65780634b0e721614610170578063535c5444146101905780635ac48e6d146101b057806369bcdb7d146101d457600080fd5b80630c020f08146100ed5780632af005101461010f57806349ce89971461012f575b600080fd5b3480156100f957600080fd5b5061010d610108366004611676565b61030c565b005b34801561011b57600080fd5b5061010d61012a3660046116d7565b610440565b34801561013b57600080fd5b5061014f61014a366004611676565b61054c565b6040516101679c9b9a999897969594939291906117a0565b60405180910390f35b34801561017c57600080fd5b5061010d61018b366004611870565b61076d565b34801561019c57600080fd5b5061010d6101ab3660046118a3565b6107ba565b3480156101bc57600080fd5b506101c660005481565b604051908152602001610167565b3480156101e057600080fd5b506101f46101ef366004611676565b61091b565b60405161016791906118cf565b34801561020d57600080fd5b50600254610221906001600160a01b031681565b6040516001600160a01b039091168152602001610167565b34801561024557600080fd5b5061010d6102543660046119fb565b610c08565b34801561026557600080fd5b5061010d610274366004611676565b610d4f565b6101c6610287366004611a54565b610eac565b34801561029857600080fd5b5061010d6102a7366004611676565b611208565b3480156102b857600080fd5b5061010d6102c7366004611676565b611383565b3480156102d857600080fd5b5061010d6102e7366004611676565b61153c565b3480156102f857600080fd5b50600154610221906001600160a01b031681565b60008181526003602052604090206001015481906001600160a01b031633146103485760405163ea8e4eb560e01b815260040160405180910390fd5b600082815260036020526040812090600582810154600160801b900460ff169081111561037757610377611722565b14610395576040516307a92f1960e51b815260040160405180910390fd5b6005810154600160401b90046001600160401b03164211156103ca5760405163b08ce5b360e01b815260040160405180910390fd5b8060070180546103d990611ae5565b90506000036103fb5760405163092f29f360e21b815260040160405180910390fd5b60058101805460ff60801b1916600160801b17905560405183907fdc3cf8a27e1b75f6a2451158326c9443e79524509e9f381814e6b58416c0796a90600090a2505050565b60008381526003602052604090205483906001600160a01b031633146104795760405163ea8e4eb560e01b815260040160405180910390fd5b600084815260036020526040812090600582810154600160801b900460ff16908111156104a8576104a8611722565b146104c6576040516307a92f1960e51b815260040160405180910390fd5b6005810154600160401b90046001600160401b03164211156104fb5760405163b08ce5b360e01b815260040160405180910390fd5b6007810161050a848683611b86565b50847fc577bdeb8da1059fec56a8d1554e25846f18ebf046c214b145cac25f76bda350858560405161053d929190611c6f565b60405180910390a25050505050565b600360208190526000918252604090912080546001820154600283015493830154600484015460058501546006860180546001600160a01b03968716989587169795871696949094169492936001600160401b0380841694600160401b85049091169360ff600160801b8204811694600160881b90920416926105ce90611ae5565b80601f01602080910402602001604051908101604052809291908181526020018280546105fa90611ae5565b80156106475780601f1061061c57610100808354040283529160200191610647565b820191906000526020600020905b81548152906001019060200180831161062a57829003601f168201915b50505050509080600701805461065c90611ae5565b80601f016020809104026020016040519081016040528092919081815260200182805461068890611ae5565b80156106d55780601f106106aa576101008083540402835291602001916106d5565b820191906000526020600020905b8154815290600101906020018083116106b857829003601f168201915b5050505050908060080180546106ea90611ae5565b80601f016020809104026020016040519081016040528092919081815260200182805461071690611ae5565b80156107635780601f1061073857610100808354040283529160200191610763565b820191906000526020600020905b81548152906001019060200180831161074657829003601f168201915b505050505090508c565b6001546001600160a01b031633146107985760405163ea8e4eb560e01b815260040160405180910390fd5b600280546001600160a01b0319166001600160a01b0392909216919091179055565b60008281526003602052604090206001015482906001600160a01b031633146107f65760405163ea8e4eb560e01b815260040160405180910390fd5b60008381526003602052604090206001600582810154600160801b900460ff169081111561082657610826611722565b1415801561085457506000600582810154600160801b900460ff169081111561085157610851611722565b14155b15610872576040516307a92f1960e51b815260040160405180910390fd5b600581015460ff808516600160881b9092041610156108d25760058101805460ff60801b1916600360801b179055604051339085907f0ad61c80e55efa6d7131b5dafdef10ca9a01f48cb23f8933fad77d8836ae32c790600090a3610915565b60058101805460ff60801b1916600160811b179055604051339085907fbce1a267f2292ae376e30f717f81329dbd1e8195be429b4c480d848852ae54c490600090a35b50505050565b6109826040805161018081018252600080825260208201819052918101829052606081018290526080810182905260a0810182905260c081018290529060e08201908152602001600060ff1681526020016060815260200160608152602001606081525090565b60008281526003602081815260409283902083516101808101855281546001600160a01b0390811682526001830154811693820193909352600282015483169481019490945291820154166060830152600481015460808301526005808201546001600160401b0380821660a0860152600160401b82041660c085015260e0840191600160801b90910460ff1690811115610a1f57610a1f611722565b6005811115610a3057610a30611722565b81526005820154600160881b900460ff166020820152600682018054604090920191610a5b90611ae5565b80601f0160208091040260200160405190810160405280929190818152602001828054610a8790611ae5565b8015610ad45780601f10610aa957610100808354040283529160200191610ad4565b820191906000526020600020905b815481529060010190602001808311610ab757829003601f168201915b50505050508152602001600782018054610aed90611ae5565b80601f0160208091040260200160405190810160405280929190818152602001828054610b1990611ae5565b8015610b665780601f10610b3b57610100808354040283529160200191610b66565b820191906000526020600020905b815481529060010190602001808311610b4957829003601f168201915b50505050508152602001600882018054610b7f90611ae5565b80601f0160208091040260200160405190810160405280929190818152602001828054610bab90611ae5565b8015610bf85780601f10610bcd57610100808354040283529160200191610bf8565b820191906000526020600020905b815481529060010190602001808311610bdb57829003601f168201915b5050505050815250509050919050565b6001546001600160a01b03163314801590610c525750600360006001600054610c319190611ca1565b81526020810191909152604001600020600201546001600160a01b03163314155b15610c705760405163ea8e4eb560e01b815260040160405180910390fd5b60008481526003602052604090206001600582810154600160801b900460ff1690811115610ca057610ca0611722565b14610cbe576040516307a92f1960e51b815260040160405180910390fd5b60648460ff161115610ce35760405163a55375b760e01b815260040160405180910390fd5b60058101805460ff60881b1916600160881b60ff87160217905560088101610d0c838583611b86565b5060405160ff85168152339086907fb2e05c508d2f057d9de5a1a35319fd3e72db8bf6418acacf77aa266eaf4563c0906020015b60405180910390a35050505050565b60008181526003602052604090205481906001600160a01b03163314610d885760405163ea8e4eb560e01b815260040160405180910390fd5b60008281526003602052604090206002600582810154600160801b900460ff1690811115610db857610db8611722565b14610dd6576040516307a92f1960e51b815260040160405180910390fd5b60048101805460009182905560058301805460ff60801b1916600160821b17905582546040519192916001600160a01b039091169083908381818185875af1925050503d8060008114610e45576040519150601f19603f3d011682016040523d82523d6000602084013e610e4a565b606091505b5050905080610e6c576040516312171d8360e31b815260040160405180910390fd5b82546040518381526001600160a01b039091169086907fff29b281372993483c1ce6b621ae07832d519c2294e43340f051312701ad132a90602001610d40565b600034600003610ecf57604051632a9ffab760e21b815260040160405180910390fd5b866001600160401b0316600003610ef957604051631da7447960e21b815260040160405180910390fd5b6001600160a01b038616610f205760405163ea8e4eb560e01b815260040160405180910390fd5b6001600160a01b038416610f475760405163ea8e4eb560e01b815260040160405180910390fd5b600080549080610f5683611cba565b919050559050604051806101800160405280336001600160a01b03168152602001876001600160a01b03168152602001866001600160a01b03168152602001856001600160a01b03168152602001348152602001426001600160401b03168152602001886001600160401b031642610fce9190611cd3565b6001600160401b0316815260200160008152602001600060ff16815260200184848080601f016020809104026020016040519081016040528093929190818152602001838380828437600092018290525093855250506040805160208181018352848252808601919091528151808201835284815294820194909452858352600380855292819020855181546001600160a01b039182166001600160a01b0319918216178355958701516001830180549183169188169190911790559186015160028201805491841691871691909117905560608601519381018054949092169390941692909217909155506080820151600482015560a08201516005808301805460c08601516001600160401b03908116600160401b026fffffffffffffffffffffffffffffffff199092169416939093179290921780835560e0850151929160ff60801b1990911690600160801b90849081111561113057611130611722565b021790555061010082015160058201805460ff909216600160881b0260ff60881b1990921691909117905561012082015160068201906111709082611ce6565b5061014082015160078201906111869082611ce6565b50610160820151600882019061119c9082611ce6565b5050506001600160a01b03861633827f0643d22604ae640e3d16aa62509ab80a14544d2dc0ed9d13477e8989b7ceb1898888346111e26001600160401b038f1642611cd3565b8a8a6040516111f696959493929190611da5565b60405180910390a49695505050505050565b6000818152600360208190526040909120908101546001600160a01b0316331480159061124057506002546001600160a01b03163314155b1561125e5760405163ea8e4eb560e01b815260040160405180910390fd5b6003600582810154600160801b900460ff169081111561128057611280611722565b1461129e576040516307a92f1960e51b815260040160405180910390fd5b60048101805460009182905560058301805460ff60801b1916600560801b17905560038301546040519192916001600160a01b039091169083908381818185875af1925050503d8060008114611310576040519150601f19603f3d011682016040523d82523d6000602084013e611315565b606091505b5050905080611337576040516312171d8360e31b815260040160405180910390fd5b60038301546040518381526001600160a01b039091169085907f1da6efa987842bde49218d10428922f7fda8711188ea3496efeb21764f258b569060200160405180910390a350505050565b60008181526003602052604090206001015481906001600160a01b031633146113bf5760405163ea8e4eb560e01b815260040160405180910390fd5b600082815260036020526040812090600582810154600160801b900460ff16908111156113ee576113ee611722565b1415801561141c57506001600582810154600160801b900460ff169081111561141957611419611722565b14155b1561143a576040516307a92f1960e51b815260040160405180910390fd5b6005810154600160401b90046001600160401b03164211801561147c57506000600582810154600160801b900460ff169081111561147a5761147a611722565b145b1561149a5760405163b08ce5b360e01b815260040160405180910390fd5b8060070180546114a990611ae5565b15905080156114d757506000600582810154600160801b900460ff16908111156114d5576114d5611722565b145b156114f55760405163092f29f360e21b815260040160405180910390fd5b60058101805460ff60801b1916600160811b179055604051339084907fbce1a267f2292ae376e30f717f81329dbd1e8195be429b4c480d848852ae54c490600090a3505050565b600081815260036020526040812090600582810154600160801b900460ff169081111561156b5761156b611722565b1415801561159957506001600582810154600160801b900460ff169081111561159657611596611722565b14155b156115b7576040516307a92f1960e51b815260040160405180910390fd5b60018101546000906001600160a01b0316331480156115ea57506005820154600160401b90046001600160401b03164211155b6005830154909150600160401b90046001600160401b0316421181158015611610575080155b1561162e5760405163ea8e4eb560e01b815260040160405180910390fd5b60058301805460ff60801b1916600360801b179055604051339085907f0ad61c80e55efa6d7131b5dafdef10ca9a01f48cb23f8933fad77d8836ae32c790600090a350505050565b60006020828403121561168857600080fd5b5035919050565b60008083601f8401126116a157600080fd5b5081356001600160401b038111156116b857600080fd5b6020830191508360208285010111156116d057600080fd5b9250929050565b6000806000604084860312156116ec57600080fd5b8335925060208401356001600160401b0381111561170957600080fd5b6117158682870161168f565b9497909650939450505050565b634e487b7160e01b600052602160045260246000fd5b6006811061175657634e487b7160e01b600052602160045260246000fd5b9052565b6000815180845260005b8181101561178057602081850181015186830182015201611764565b506000602082860101526020601f19601f83011685010191505092915050565b6001600160a01b038d811682528c811660208301528b811660408301528a166060820152608081018990526001600160401b03881660a082015260006001600160401b03881660c08301526117f860e0830188611738565b60ff861661010083015261018061012083015261181961018083018661175a565b82810361014084015261182c818661175a565b9050828103610160840152611841818561175a565b9f9e505050505050505050505050505050565b80356001600160a01b038116811461186b57600080fd5b919050565b60006020828403121561188257600080fd5b61188b82611854565b9392505050565b803560ff8116811461186b57600080fd5b600080604083850312156118b657600080fd5b823591506118c660208401611892565b90509250929050565b602081526118e96020820183516001600160a01b03169052565b6000602083015161190560408401826001600160a01b03169052565b5060408301516001600160a01b03811660608401525060608301516001600160a01b038116608084015250608083015160a083015260a083015161195460c08401826001600160401b03169052565b5060c08301516001600160401b03811660e08401525060e083015161010061197e81850183611738565b84015190506101206119948482018360ff169052565b8085015191505061018061014081818601526119b46101a086018461175a565b9250808601519050601f196101608187860301818801526119d5858461175a565b9088015187820390920184880152935090506119f1838261175a565b9695505050505050565b60008060008060608587031215611a1157600080fd5b84359350611a2160208601611892565b925060408501356001600160401b03811115611a3c57600080fd5b611a488782880161168f565b95989497509550505050565b60008060008060008060a08789031215611a6d57600080fd5b86356001600160401b038082168214611a8557600080fd5b819750611a9460208a01611854565b9650611aa260408a01611854565b9550611ab060608a01611854565b94506080890135915080821115611ac657600080fd5b50611ad389828a0161168f565b979a9699509497509295939492505050565b600181811c90821680611af957607f821691505b602082108103611b1957634e487b7160e01b600052602260045260246000fd5b50919050565b634e487b7160e01b600052604160045260246000fd5b601f821115611b81576000816000526020600020601f850160051c81016020861015611b5e5750805b601f850160051c820191505b81811015611b7d57828155600101611b6a565b5050505b505050565b6001600160401b03831115611b9d57611b9d611b1f565b611bb183611bab8354611ae5565b83611b35565b6000601f841160018114611be55760008515611bcd5750838201355b600019600387901b1c1916600186901b178355611c3f565b600083815260209020601f19861690835b82811015611c165786850135825560209485019460019092019101611bf6565b5086821015611c335760001960f88860031b161c19848701351681555b505060018560011b0183555b5050505050565b81835281816020850137506000828201602090810191909152601f909101601f19169091010190565b602081526000611c83602083018486611c46565b949350505050565b634e487b7160e01b600052601160045260246000fd5b81810381811115611cb457611cb4611c8b565b92915050565b600060018201611ccc57611ccc611c8b565b5060010190565b80820180821115611cb457611cb4611c8b565b81516001600160401b03811115611cff57611cff611b1f565b611d1381611d0d8454611ae5565b84611b35565b602080601f831160018114611d485760008415611d305750858301515b600019600386901b1c1916600185901b178555611b7d565b600085815260208120601f198616915b82811015611d7757888601518255948401946001909101908401611d58565b5085821015611d955787850151600019600388901b60f8161c191681555b5050505050600190811b01905550565b6001600160a01b03878116825286166020820152604081018590526001600160401b038416606082015260a060808201819052600090611de89083018486611c46565b9897505050505050505056fea26469706673582212204592565e399ab817fa1011a0b44cdc0d79876aa04e149ca09ae787379b46a87464736f6c63430008180033",
  "linkReferences": {},
  "deployedLinkReferences": {}
}