{
  "_format": "hh-sol-artifact-1",
  "contractName": "TimeLendMVP",
  "sourceName": "src/TimeLendMVP.sol",
  "abi": [
    {
      "inputs": [],
      "name": "DeadlineNotReached",
      "type": "error"
    },
    {
      "inputs": [],
      "name": "DeadlineReached",
      "type": "error"
    },
    {
      "inputs": [],
      "name": "InvalidDeadline",
      "type": "error"
    },
    {
      "inputs": [],
      "name": "InvalidStatus",
      "type": "error"
    },
    {
      "inputs": [],
      "name": "InvalidValue",
      "type": "error"
    },
    {
      "inputs": [],
      "name": "NoProofSubmitted",
      "type": "error"
    },
    {
      "inputs": [],
      "name": "NotAuthorized",
      "type": "error"
    },
    {
      "inputs": [],
      "name": "TransferFailed",
      "type": "error"
    },
    {
      "anonymous": false,
      "inputs": [
        {
          "indexed": true,
          "internalType": "uint256",
          "name": "commitmentId",
          "type": "uint256"
        },
        {
          "indexed": true,
          "internalType": "address",
          "name": "user",
          "type": "address"
        },
        {
          "indexed": true,
          "internalType": "address",
          "name": "verifier",
          "type": "address"
        },
        {
          "indexed": false,
          "internalType": "address",
          "name": "penaltyReceiver",
          "type": "address"
        },
        {
          "indexed": false,
          "internalType": "uint256",
          "name": "stake",
          "type": "uint256"
        },
        {
          "indexed": false,
          "internalType": "uint64",
          "name": "deadline",
          "type": "uint64"
        },
        {
          "indexed": false,
          "internalType": "string",
          "name": "taskURI",
          "type": "string"
        }
      ],
      "name": "CommitmentCreated",
      "type": "event"
    },
    {
      "anonymous": false,
      "inputs": [
        {
          "indexed": true,
          "internalType": "uint256",
          "name": "commitmentId",
          "type": "uint256"
        },
        {
          "indexed": true,
          "internalType": "address",
          "name": "resolver",
          "type": "address"
        }
      ],
      "name": "CommitmentFailed",
      "type": "event"
    },
    {
      "anonymous": false,
      "inputs": [
        {
          "indexed": true,
          "internalType": "uint256",
          "name": "commitmentId",
          "type": "uint256"
        },
        {
          "indexed": true,
          "internalType": "address",
          "name": "verifier",
          "type": "address"
        }
      ],
      "name": "CommitmentSucceeded",
      "type": "event"
    },
    {
      "anonymous": false,
      "inputs": [
        {
          "indexed": true,
          "internalType": "uint256",
          "name": "commitmentId",
          "type": "uint256"
        },
        {
          "indexed": true,
          "internalType": "address",
          "name": "penaltyReceiver",
          "type": "address"
        },
        {
          "indexed": false,
          "internalType": "uint256",
          "name": "amount",
          "type": "uint256"
        }
      ],
      "name": "PenaltyClaimed",
      "type": "event"
    },
    {
      "anonymous": false,
      "inputs": [
        {
          "indexed": true,
          "internalType": "uint256",
          "name": "commitmentId",
          "type": "uint256"
        },
        {
          "indexed": false,
          "internalType": "string",
          "name": "proofURI",
          "type": "string"
        }
      ],
      "name": "ProofSubmitted",
      "type": "event"
    },
    {
      "anonymous": false,
      "inputs": [
        {
          "indexed": true,
          "internalType": "uint256",
          "name": "commitmentId",
          "type": "uint256"
        },
        {
          "indexed": true,
          "internalType": "address",
          "name": "user",
          "type": "address"
        },
        {
          "indexed": false,
          "internalType": "uint256",
          "name": "amount",
          "type": "uint256"
        }
      ],
      "name": "UserClaimed",
      "type": "event"
    },
    {
      "inputs": [
        {
          "internalType": "uint256",
          "name": "commitmentId",
          "type": "uint256"
        }
      ],
      "name": "claimPenalty",
      "outputs": [],
      "stateMutability": "nonpayable",
      "type": "function"
    },
    {
      "inputs": [
        {
          "internalType": "uint256",
          "name": "commitmentId",
          "type": "uint256"
        }
      ],
      "name": "claimSuccess",
      "outputs": [],
      "stateMutability": "nonpayable",
      "type": "function"
    },
    {
      "inputs": [
        {
          "internalType": "uint256",
          "name": "",
          "type": "uint256"
        }
      ],
      "name": "commitments",
      "outputs": [
        {
          "internalType": "address",
          "name": "user",
          "type": "address"
        },
        {
          "internalType": "address",
          "name": "verifier",
          "type": "address"
        },
        {
          "internalType": "address",
          "name": "penaltyReceiver",
          "type": "address"
        },
        {
          "internalType": "uint256",
          "name": "stake",
          "type": "uint256"
        },
        {
          "internalType": "uint64",
          "name": "createdAt",
          "type": "uint64"
        },
        {
          "internalType": "uint64",
          "name": "deadline",
          "type": "uint64"
        },
        {
          "internalType": "enum TimeLendMVP.Status",
          "name": "status",
          "type": "uint8"
        },
        {
          "internalType": "string",
          "name": "taskURI",
          "type": "string"
        },
        {
          "internalType": "string",
          "name": "proofURI",
          "type": "string"
        }
      ],
      "stateMutability": "view",
      "type": "function"
    },
    {
      "inputs": [
        {
          "internalType": "uint64",
          "name": "durationSeconds",
          "type": "uint64"
        },
        {
          "internalType": "address",
          "name": "verifier",
          "type": "address"
        },
        {
          "internalType": "address",
          "name": "penaltyReceiver",
          "type": "address"
        },
        {
          "internalType": "string",
          "name": "taskURI",
          "type": "string"
        }
      ],
      "name": "createCommitment",
      "outputs": [
        {
          "internalType": "uint256",
          "name": "commitmentId",
          "type": "uint256"
        }
      ],
      "stateMutability": "payable",
      "type": "function"
    },
    {
      "inputs": [
        {
          "internalType": "uint256",
          "name": "commitmentId",
          "type": "uint256"
        }
      ],
      "name": "getCommitment",
      "outputs": [
        {
          "components": [
            {
              "internalType": "address",
              "name": "user",
              "type": "address"
            },
            {
              "internalType": "address",
              "name": "verifier",
              "type": "address"
            },
            {
              "internalType": "address",
              "name": "penaltyReceiver",
              "type": "address"
            },
            {
              "internalType": "uint256",
              "name": "stake",
              "type": "uint256"
            },
            {
              "internalType": "uint64",
              "name": "createdAt",
              "type": "uint64"
            },
            {
              "internalType": "uint64",
              "name": "deadline",
              "type": "uint64"
            },
            {
              "internalType": "enum TimeLendMVP.Status",
              "name": "status",
              "type": "uint8"
            },
            {
              "internalType": "string",
              "name": "taskURI",
              "type": "string"
            },
            {
              "internalType": "string",
              "name": "proofURI",
              "type": "string"
            }
          ],
          "internalType": "struct TimeLendMVP.Commitment",
          "name": "",
          "type": "tuple"
        }
      ],
      "stateMutability": "view",
      "type": "function"
    },
    {
      "inputs": [
        {
          "internalType": "uint256",
          "name": "commitmentId",
          "type": "uint256"
        }
      ],
      "name": "markFailed",
      "outputs": [],
      "stateMutability": "nonpayable",
      "type": "function"
    },
    {
      "inputs": [],
      "name": "nextCommitmentId",
      "outputs": [
        {
          "internalType": "uint256",
          "name": "",
          "type": "uint256"
        }
      ],
      "stateMutability": "view",
      "type": "function"
    },
    {
      "inputs": [
        {
          "internalType": "uint256",
          "name": "commitmentId",
          "type": "uint256"
        },
        {
          "internalType": "string",
          "name": "proofURI",
          "type": "string"
        }
      ],
      "name": "submitProof",
      "outputs": [],
      "stateMutability": "nonpayable",
      "type": "function"
    },
    {
      "inputs": [
        {
          "internalType": "uint256",
          "name": "commitmentId",
          "type": "uint256"
        }
      ],
      "name": "verifySuccess",
      "outputs": [],
      "stateMutability": "nonpayable",
      "type": "function"
    }
  ],
  "bytecode": "0x608060405234801561001057600080fd5b506114ad806100206000396000f3fe6080604052600436106100865760003560e01c8063a3d0da4511610059578063a3d0da451461013c578063ba9244f31461015c578063dc14dddf1461017c578063ec05386b1461018f578063f3634a32146101af57600080fd5b80632af005101461008b57806349ce8997146100ad5780635ac48e6d146100eb57806369bcdb7d1461010f575b600080fd5b34801561009757600080fd5b506100ab6100a6366004610ea9565b6101cf565b005b3480156100b957600080fd5b506100cd6100c8366004610ef4565b6102db565b6040516100e299989796959493929190610f8b565b60405180910390f35b3480156100f757600080fd5b5061010160005481565b6040519081526020016100e2565b34801561011b57600080fd5b5061012f61012a366004610ef4565b61045c565b6040516100e2919061100e565b34801561014857600080fd5b506100ab610157366004610ef4565b61067e565b34801561016857600080fd5b506100ab610177366004610ef4565b6107e7565b61010161018a366004611107565b610947565b34801561019b57600080fd5b506100ab6101aa366004610ef4565b610c1e565b3480156101bb57600080fd5b506100ab6101ca366004610ef4565b610d55565b60008381526001602052604090205483906001600160a01b031633146102085760405163ea8e4eb560e01b815260040160405180910390fd5b600084815260016020526040812090600482810154600160801b900460ff169081111561023757610237610f0d565b14610255576040516307a92f1960e51b815260040160405180910390fd5b6004810154600160401b90046001600160401b031642111561028a5760405163b08ce5b360e01b815260040160405180910390fd5b60068101610299848683611229565b50847fc577bdeb8da1059fec56a8d1554e25846f18ebf046c214b145cac25f76bda35085856040516102cc929190611312565b60405180910390a25050505050565b60016020819052600091825260409091208054918101546002820154600383015460048401546005850180546001600160a01b039788169795861696949095169492936001600160401b0380841694600160401b85049091169360ff600160801b90910416929061034b9061119e565b80601f01602080910402602001604051908101604052809291908181526020018280546103779061119e565b80156103c45780601f10610399576101008083540402835291602001916103c4565b820191906000526020600020905b8154815290600101906020018083116103a757829003601f168201915b5050505050908060060180546103d99061119e565b80601f01602080910402602001604051908101604052809291908181526020018280546104059061119e565b80156104525780601f1061042757610100808354040283529160200191610452565b820191906000526020600020905b81548152906001019060200180831161043557829003601f168201915b5050505050905089565b6104ab6040805161012081018252600080825260208201819052918101829052606081018290526080810182905260a081018290529060c0820190815260200160608152602001606081525090565b60008281526001602081815260409283902083516101208101855281546001600160a01b03908116825293820154841692810192909252600281015490921692810192909252600381015460608301526004808201546001600160401b038082166080860152600160401b82041660a085015260c0840191600160801b90910460ff169081111561053e5761053e610f0d565b600481111561054f5761054f610f0d565b81526020016005820180546105639061119e565b80601f016020809104026020016040519081016040528092919081815260200182805461058f9061119e565b80156105dc5780601f106105b1576101008083540402835291602001916105dc565b820191906000526020600020905b8154815290600101906020018083116105bf57829003601f168201915b505050505081526020016006820180546105f59061119e565b80601f01602080910402602001604051908101604052809291908181526020018280546106219061119e565b801561066e5780601f106106435761010080835404028352916020019161066e565b820191906000526020600020905b81548152906001019060200180831161065157829003601f168201915b5050505050815250509050919050565b60008181526001602052604090205481906001600160a01b031633146106b75760405163ea8e4eb560e01b815260040160405180910390fd5b600082815260016020819052604090912090600482810154600160801b900460ff16908111156106e9576106e9610f0d565b14610707576040516307a92f1960e51b815260040160405180910390fd5b60038101805460009182905560048301805460ff60801b1916600360801b17905582546040519192916001600160a01b039091169083908381818185875af1925050503d8060008114610776576040519150601f19603f3d011682016040523d82523d6000602084013e61077b565b606091505b505090508061079d576040516312171d8360e31b815260040160405180910390fd5b82546040518381526001600160a01b039091169086907fff29b281372993483c1ce6b621ae07832d519c2294e43340f051312701ad132a9060200160405180910390a35050505050565b600081815260016020526040902060028101546001600160a01b031633146108225760405163ea8e4eb560e01b815260040160405180910390fd5b6002600482810154600160801b900460ff169081111561084457610844610f0d565b14610862576040516307a92f1960e51b815260040160405180910390fd5b60038101805460009182905560048301805460ff60801b1916600160821b17905560028301546040519192916001600160a01b039091169083908381818185875af1925050503d80600081146108d4576040519150601f19603f3d011682016040523d82523d6000602084013e6108d9565b606091505b50509050806108fb576040516312171d8360e31b815260040160405180910390fd5b60028301546040518381526001600160a01b039091169085907f1da6efa987842bde49218d10428922f7fda8711188ea3496efeb21764f258b569060200160405180910390a350505050565b60003460000361096a57604051632a9ffab760e21b815260040160405180910390fd5b856001600160401b031660000361099457604051631da7447960e21b815260040160405180910390fd5b6001600160a01b0385166109bb5760405163ea8e4eb560e01b815260040160405180910390fd5b6001600160a01b0384166109e25760405163ea8e4eb560e01b815260040160405180910390fd5b6000805490806109f183611344565b919050559050604051806101200160405280336001600160a01b03168152602001866001600160a01b03168152602001856001600160a01b03168152602001348152602001426001600160401b03168152602001876001600160401b031642610a5a919061135d565b6001600160401b031681526020016000815260200184848080601f01602080910402602001604051908101604052809392919081815260200183838082843760009201829052509385525050604080516020818101835284825294850152858352600180855292819020855181546001600160a01b039182166001600160a01b0319918216178355958701519482018054958216958716959095179094559085015160028201805491909416941693909317909155506060820151600382015560808201516004808301805460a08601516001600160401b03908116600160401b026fffffffffffffffffffffffffffffffff199092169416939093179290921780835560c0850151929160ff60801b1990911690600160801b908490811115610b8657610b86610f0d565b021790555060e08201516005820190610b9f9082611376565b506101008201516006820190610bb59082611376565b5050506001600160a01b03851633827f6689af6c57de4141dc8bba1bc8b6aa283429662ca5992e43bf1c394c820446768734610bfa6001600160401b038d164261135d565b8989604051610c0d959493929190611435565b60405180910390a495945050505050565b6000818152600160208190526040909120015481906001600160a01b03163314610c5b5760405163ea8e4eb560e01b815260040160405180910390fd5b600082815260016020526040812090600482810154600160801b900460ff1690811115610c8a57610c8a610f0d565b14610ca8576040516307a92f1960e51b815260040160405180910390fd5b6004810154600160401b90046001600160401b0316421115610cdd5760405163b08ce5b360e01b815260040160405180910390fd5b806006018054610cec9061119e565b9050600003610d0e5760405163092f29f360e21b815260040160405180910390fd5b60048101805460ff60801b1916600160801b179055604051339084907fbce1a267f2292ae376e30f717f81329dbd1e8195be429b4c480d848852ae54c490600090a3505050565b600081815260016020526040812090600482810154600160801b900460ff1690811115610d8457610d84610f0d565b14610da2576040516307a92f1960e51b815260040160405180910390fd5b60018101546000906001600160a01b031633148015610dd557506004820154600160401b90046001600160401b03164211155b6004830154909150600160401b90046001600160401b0316421181158015610dfb575080155b15610e195760405163ea8e4eb560e01b815260040160405180910390fd5b60048301805460ff60801b1916600160811b179055604051339085907f0ad61c80e55efa6d7131b5dafdef10ca9a01f48cb23f8933fad77d8836ae32c790600090a350505050565b60008083601f840112610e7357600080fd5b5081356001600160401b03811115610e8a57600080fd5b602083019150836020828501011115610ea257600080fd5b9250929050565b600080600060408486031215610ebe57600080fd5b8335925060208401356001600160401b03811115610edb57600080fd5b610ee786828701610e61565b9497909650939450505050565b600060208284031215610f0657600080fd5b5035919050565b634e487b7160e01b600052602160045260246000fd5b60058110610f4157634e487b7160e01b600052602160045260246000fd5b9052565b6000815180845260005b81811015610f6b57602081850181015186830182015201610f4f565b506000602082860101526020601f19601f83011685010191505092915050565b6001600160a01b038a81168252898116602083015288166040820152606081018790526001600160401b038681166080830152851660a08201526000610120610fd760c0840187610f23565b8060e0840152610fe981840186610f45565b9050828103610100840152610ffe8185610f45565b9c9b505050505050505050505050565b602081526110286020820183516001600160a01b03169052565b6000602083015161104460408401826001600160a01b03169052565b5060408301516001600160a01b03811660608401525060608301516080830152608083015161107e60a08401826001600160401b03169052565b5060a08301516001600160401b03811660c08401525060c08301516110a660e0840182610f23565b5060e083015161012061010081818601526110c5610140860184610f45565b90860151858203601f1901838701529092506110e18382610f45565b9695505050505050565b80356001600160a01b038116811461110257600080fd5b919050565b60008060008060006080868803121561111f57600080fd5b85356001600160401b03808216821461113757600080fd5b819650611146602089016110eb565b9550611154604089016110eb565b9450606088013591508082111561116a57600080fd5b5061117788828901610e61565b969995985093965092949392505050565b634e487b7160e01b600052604160045260246000fd5b600181811c908216806111b257607f821691505b6020821081036111d257634e487b7160e01b600052602260045260246000fd5b50919050565b601f821115611224576000816000526020600020601f850160051c810160208610156112015750805b601f850160051c820191505b818110156112205782815560010161120d565b5050505b505050565b6001600160401b0383111561124057611240611188565b6112548361124e835461119e565b836111d8565b6000601f84116001811461128857600085156112705750838201355b600019600387901b1c1916600186901b1783556112e2565b600083815260209020601f19861690835b828110156112b95786850135825560209485019460019092019101611299565b50868210156112d65760001960f88860031b161c19848701351681555b505060018560011b0183555b5050505050565b81835281816020850137506000828201602090810191909152601f909101601f19169091010190565b6020815260006113266020830184866112e9565b949350505050565b634e487b7160e01b600052601160045260246000fd5b6000600182016113565761135661132e565b5060010190565b808201808211156113705761137061132e565b92915050565b81516001600160401b0381111561138f5761138f611188565b6113a38161139d845461119e565b846111d8565b602080601f8311600181146113d857600084156113c05750858301515b600019600386901b1c1916600185901b178555611220565b600085815260208120601f198616915b82811015611407578886015182559484019460019091019084016113e8565b50858210156114255787850151600019600388901b60f8161c191681555b5050505050600190811b01905550565b60018060a01b03861681528460208201526001600160401b038416604082015260806060820152600061146c6080830184866112e9565b97965050505050505056fea2646970667358221220614ade8d8df02e663378afba266fb132ba1f36000d7b24bebe9799b17927b45f64736f6c63430008180033",
  "linkReferences": {},
  "deployedLinkReferences": {}
}