{"contracts/TimeLendMVP.sol":{"TimeLendMVP":{"abi":[{"inputs":[{"internalType":"address","name":"penaltyReceiver","type":"address"}],"stateMutability":"nonpayable","type":"constructor"},{"inputs":[],"name":"CommitmentNotFound","type":"error"},{"inputs":[],"name":"InvalidDeadline","type":"error"},{"inputs":[],"name":"InvalidStatus","type":"error"},{"inputs":[],"name":"InvalidTaskDescription","type":"error"},{"inputs":[],"name":"InvalidValue","type":"error"},{"inputs":[],"name":"NotAuthorized","type":"error"},{"inputs":[],"name":"TransferFailed","type":"error"},{"inputs":[],"name":"ZeroAddress","type":"error"},{"anonymous":false,"inputs":[{"indexed":true,"internalType":"uint256","name":"commitmentId","type":"uint256"},{"indexed":true,"internalType":"address","name":"user","type":"address"},{"indexed":false,"internalType":"address","name":"penaltyReceiver","type":"address"},{"indexed":false,"internalType":"uint256","name":"stake","type":"uint256"},{"indexed":false,"internalType":"uint64","name":"deadline","type":"uint64"},{"indexed":false,"internalType":"string","name":"taskDescription","type":"string"}],"name":"CommitmentCreated","type":"event"},{"anonymous":false,"inputs":[{"indexed":true,"internalType":"uint256","name":"commitmentId","type":"uint256"},{"indexed":false,"internalType":"bool","name":"passed","type":"bool"},{"indexed":true,"internalType":"address","name":"recipient","type":"address"},{"indexed":false,"internalType":"uint256","name":"amount","type":"uint256"}],"name":"CommitmentResolved","type":"event"},{"inputs":[{"internalType":"uint64","name":"durationSeconds","type":"uint64"},{"internalType":"string","name":"taskDescription","type":"string"}],"name":"createCommitment","outputs":[{"internalType":"uint256","name":"commitmentId","type":"uint256"}],"stateMutability":"payable","type":"function"},{"inputs":[],"name":"defaultPenaltyReceiver","outputs":[{"internalType":"address","name":"","type":"address"}],"stateMutability":"view","type":"function"},{"inputs":[{"internalType":"uint256","name":"commitmentId","type":"uint256"}],"name":"getCommitment","outputs":[{"components":[{"internalType":"address","name":"user","type":"address"},{"internalType":"address","name":"penaltyReceiver","type":"address"},{"internalType":"uint256","name":"stake","type":"uint256"},{"internalType":"uint64","name":"createdAt","type":"uint64"},{"internalType":"uint64","name":"deadline","type":"uint64"},{"internalType":"enum TimeLendMVP.Status","name":"status","type":"uint8"},{"internalType":"string","name":"taskDescription","type":"string"}],"internalType":"struct TimeLendMVP.Commitment","name":"","type":"tuple"}],"stateMutability":"view","type":"function"},{"inputs":[],"name":"nextCommitmentId","outputs":[{"internalType":"uint256","name":"","type":"uint256"}],"stateMutability":"view","type":"function"},{"inputs":[{"internalType":"uint256","name":"commitmentId","type":"uint256"},{"internalType":"bool","name":"passed","type":"bool"}],"name":"resolveCommitment","outputs":[],"stateMutability":"nonpayable","type":"function"},{"inputs":[],"name":"resolver","outputs":[{"internalType":"address","name":"","type":"address"}],"stateMutability":"view","type":"function"}],"evm":{"bytecode":{"linkReferences":{},"object":"60c06040523480156200001157600080fd5b506040516200169e3803806200169e833981810160405281019062000037919062000177565b600073ffffffffffffffffffffffffffffffffffffffff168173ffffffffffffffffffffffffffffffffffffffff16036200009e576040517fd92e233d00000000000000000000000000000000000000000000000000000000815260040160405180910390fd5b8073ffffffffffffffffffffffffffffffffffffffff1660808173ffffffffffffffffffffffffffffffffffffffff16815250503373ffffffffffffffffffffffffffffffffffffffff1660a08173ffffffffffffffffffffffffffffffffffffffff168152505050620001a9565b600080fd5b600073ffffffffffffffffffffffffffffffffffffffff82169050919050565b60006200013f8262000112565b9050919050565b620001518162000132565b81146200015d57600080fd5b50565b600081519050620001718162000146565b92915050565b60006020828403121562000190576200018f6200010d565b5b6000620001a08482850162000160565b91505092915050565b60805160a0516114ba620001e46000396000818161017301526103d5015260008181610197015281816108210152610a6f01526114ba6000f3fe6080604052600436106100555760003560e01c806304f3bcec1461005a578063571a0606146100855780635ac48e6d146100b057806369bcdb7d146100db578063d08a1a7214610118578063f028289414610141575b600080fd5b34801561006657600080fd5b5061006f610171565b60405161007c9190610b83565b60405180910390f35b34801561009157600080fd5b5061009a610195565b6040516100a79190610b83565b60405180910390f35b3480156100bc57600080fd5b506100c56101b9565b6040516100d29190610bb7565b60405180910390f35b3480156100e757600080fd5b5061010260048036038101906100fd9190610c08565b6101bf565b60405161010f9190610e19565b60405180910390f35b34801561012457600080fd5b5061013f600480360381019061013a9190610e73565b6103d3565b005b61015b60048036038101906101569190610f44565b61070a565b6040516101689190610bb7565b60405180910390f35b7f000000000000000000000000000000000000000000000000000000000000000081565b7f000000000000000000000000000000000000000000000000000000000000000081565b60005481565b6101c7610ab3565b600160008381526020019081526020016000206040518060e00160405290816000820160009054906101000a900473ffffffffffffffffffffffffffffffffffffffff1673ffffffffffffffffffffffffffffffffffffffff1673ffffffffffffffffffffffffffffffffffffffff1681526020016001820160009054906101000a900473ffffffffffffffffffffffffffffffffffffffff1673ffffffffffffffffffffffffffffffffffffffff1673ffffffffffffffffffffffffffffffffffffffff168152602001600282015481526020016003820160009054906101000a900467ffffffffffffffff1667ffffffffffffffff1667ffffffffffffffff1681526020016003820160089054906101000a900467ffffffffffffffff1667ffffffffffffffff1667ffffffffffffffff1681526020016003820160109054906101000a900460ff16600281111561032457610323610c76565b5b600281111561033657610335610c76565b5b815260200160048201805461034a90610fd3565b80601f016020809104026020016040519081016040528092919081815260200182805461037690610fd3565b80156103c35780601f10610398576101008083540402835291602001916103c3565b820191906000526020600020905b8154815290600101906020018083116103a657829003601f168201915b5050505050815250509050919050565b7f000000000000000000000000000000000000000000000000000000000000000073ffffffffffffffffffffffffffffffffffffffff163373ffffffffffffffffffffffffffffffffffffffff1614610458576040517fea8e4eb500000000000000000000000000000000000000000000000000000000815260040160405180910390fd5b6000600160008481526020019081526020016000209050600073ffffffffffffffffffffffffffffffffffffffff168160000160009054906101000a900473ffffffffffffffffffffffffffffffffffffffff1673ffffffffffffffffffffffffffffffffffffffff16036104f9576040517fb6682ad200000000000000000000000000000000000000000000000000000000815260040160405180910390fd5b6000600281111561050d5761050c610c76565b5b8160030160109054906101000a900460ff16600281111561053157610530610c76565b5b14610568576040517ff525e32000000000000000000000000000000000000000000000000000000000815260040160405180910390fd5b600081600201549050600082600201819055506000836105ac578260010160009054906101000a900473ffffffffffffffffffffffffffffffffffffffff166105d2565b8260000160009054906101000a900473ffffffffffffffffffffffffffffffffffffffff165b9050836105e05760026105e3565b60015b8360030160106101000a81548160ff0219169083600281111561060957610608610c76565b5b021790555060008173ffffffffffffffffffffffffffffffffffffffff168360405161063490611035565b60006040518083038185875af1925050503d8060008114610671576040519150601f19603f3d011682016040523d82523d6000602084013e610676565b606091505b50509050806106b1576040517f90b8ec1800000000000000000000000000000000000000000000000000000000815260040160405180910390fd5b8173ffffffffffffffffffffffffffffffffffffffff16867f558e12c28b802d0781a82083cf2150ae43903697d7b0b8eedbfd16cc64eae30087866040516106fa929190611059565b60405180910390a3505050505050565b6000803403610745576040517faa7feadc00000000000000000000000000000000000000000000000000000000815260040160405180910390fd5b60008467ffffffffffffffff1603610789576040517f769d11e400000000000000000000000000000000000000000000000000000000815260040160405180910390fd5b600083839050036107c6576040517fd2ce645c00000000000000000000000000000000000000000000000000000000815260040160405180910390fd5b60008467ffffffffffffffff16426107de91906110b1565b90506000808154809291906107f2906110e5565b9190505591506040518060e001604052803373ffffffffffffffffffffffffffffffffffffffff1681526020017f000000000000000000000000000000000000000000000000000000000000000073ffffffffffffffffffffffffffffffffffffffff1681526020013481526020014267ffffffffffffffff1681526020018267ffffffffffffffff1681526020016000600281111561089557610894610c76565b5b815260200185858080601f016020809104026020016040519081016040528093929190818152602001838380828437600081840152601f19601f820116905080830192505050505050508152506001600084815260200190815260200160002060008201518160000160006101000a81548173ffffffffffffffffffffffffffffffffffffffff021916908373ffffffffffffffffffffffffffffffffffffffff16021790555060208201518160010160006101000a81548173ffffffffffffffffffffffffffffffffffffffff021916908373ffffffffffffffffffffffffffffffffffffffff1602179055506040820151816002015560608201518160030160006101000a81548167ffffffffffffffff021916908367ffffffffffffffff16021790555060808201518160030160086101000a81548167ffffffffffffffff021916908367ffffffffffffffff16021790555060a08201518160030160106101000a81548160ff02191690836002811115610a1657610a15610c76565b5b021790555060c0820151816004019081610a309190611308565b509050503373ffffffffffffffffffffffffffffffffffffffff16827f6f0aaec86971fe0393d6f3cf974191894c0f33f56ec564a8168c1e1c1419b0cb7f000000000000000000000000000000000000000000000000000000000000000034858989604051610aa3959493929190611436565b60405180910390a3509392505050565b6040518060e00160405280600073ffffffffffffffffffffffffffffffffffffffff168152602001600073ffffffffffffffffffffffffffffffffffffffff16815260200160008152602001600067ffffffffffffffff168152602001600067ffffffffffffffff16815260200160006002811115610b3557610b34610c76565b5b8152602001606081525090565b600073ffffffffffffffffffffffffffffffffffffffff82169050919050565b6000610b6d82610b42565b9050919050565b610b7d81610b62565b82525050565b6000602082019050610b986000830184610b74565b92915050565b6000819050919050565b610bb181610b9e565b82525050565b6000602082019050610bcc6000830184610ba8565b92915050565b600080fd5b600080fd5b610be581610b9e565b8114610bf057600080fd5b50565b600081359050610c0281610bdc565b92915050565b600060208284031215610c1e57610c1d610bd2565b5b6000610c2c84828501610bf3565b91505092915050565b610c3e81610b62565b82525050565b610c4d81610b9e565b82525050565b600067ffffffffffffffff82169050919050565b610c7081610c53565b82525050565b7f4e487b7100000000000000000000000000000000000000000000000000000000600052602160045260246000fd5b60038110610cb657610cb5610c76565b5b50565b6000819050610cc782610ca5565b919050565b6000610cd782610cb9565b9050919050565b610ce781610ccc565b82525050565b600081519050919050565b600082825260208201905092915050565b60005b83811015610d27578082015181840152602081019050610d0c565b60008484015250505050565b6000601f19601f8301169050919050565b6000610d4f82610ced565b610d598185610cf8565b9350610d69818560208601610d09565b610d7281610d33565b840191505092915050565b600060e083016000830151610d956000860182610c35565b506020830151610da86020860182610c35565b506040830151610dbb6040860182610c44565b506060830151610dce6060860182610c67565b506080830151610de16080860182610c67565b5060a0830151610df460a0860182610cde565b5060c083015184820360c0860152610e0c8282610d44565b9150508091505092915050565b60006020820190508181036000830152610e338184610d7d565b905092915050565b60008115159050919050565b610e5081610e3b565b8114610e5b57600080fd5b50565b600081359050610e6d81610e47565b92915050565b60008060408385031215610e8a57610e89610bd2565b5b6000610e9885828601610bf3565b9250506020610ea985828601610e5e565b9150509250929050565b610ebc81610c53565b8114610ec757600080fd5b50565b600081359050610ed981610eb3565b92915050565b600080fd5b600080fd5b600080fd5b60008083601f840112610f0457610f03610edf565b5b8235905067ffffffffffffffff811115610f2157610f20610ee4565b5b602083019150836001820283011115610f3d57610f3c610ee9565b5b9250929050565b600080600060408486031215610f5d57610f5c610bd2565b5b6000610f6b86828701610eca565b935050602084013567ffffffffffffffff811115610f8c57610f8b610bd7565b5b610f9886828701610eee565b92509250509250925092565b7f4e487b7100000000000000000000000000000000000000000000000000000000600052602260045260246000fd5b60006002820490506001821680610feb57607f821691505b602082108103610ffe57610ffd610fa4565b5b50919050565b600081905092915050565b50565b600061101f600083611004565b915061102a8261100f565b600082019050919050565b600061104082611012565b9150819050919050565b61105381610e3b565b82525050565b600060408201905061106e600083018561104a565b61107b6020830184610ba8565b9392505050565b7f4e487b7100000000000000000000000000000000000000000000000000000000600052601160045260246000fd5b60006110bc82610b9e565b91506110c783610b9e565b92508282019050808211156110df576110de611082565b5b92915050565b60006110f082610b9e565b91507fffffffffffffffffffffffffffffffffffffffffffffffffffffffffffffffff820361112257611121611082565b5b600182019050919050565b7f4e487b7100000000000000000000000000000000000000000000000000000000600052604160045260246000fd5b60008190508160005260206000209050919050565b60006020601f8301049050919050565b600082821b905092915050565b6000600883026111be7fffffffffffffffffffffffffffffffffffffffffffffffffffffffffffffffff82611181565b6111c88683611181565b95508019841693508086168417925050509392505050565b6000819050919050565b60006112056112006111fb84610b9e565b6111e0565b610b9e565b9050919050565b6000819050919050565b61121f836111ea565b61123361122b8261120c565b84845461118e565b825550505050565b600090565b61124861123b565b611253818484611216565b505050565b5b818110156112775761126c600082611240565b600181019050611259565b5050565b601f8211156112bc5761128d8161115c565b61129684611171565b810160208510156112a5578190505b6112b96112b185611171565b830182611258565b50505b505050565b600082821c905092915050565b60006112df600019846008026112c1565b1980831691505092915050565b60006112f883836112ce565b9150826002028217905092915050565b61131182610ced565b67ffffffffffffffff81111561132a5761132961112d565b5b6113348254610fd3565b61133f82828561127b565b600060209050601f8311600181146113725760008415611360578287015190505b61136a85826112ec565b8655506113d2565b601f1984166113808661115c565b60005b828110156113a857848901518255600182019150602085019450602081019050611383565b868310156113c557848901516113c1601f8916826112ce565b8355505b6001600288020188555050505b505050505050565b6113e381610c53565b82525050565b600082825260208201905092915050565b82818337600083830152505050565b600061141583856113e9565b93506114228385846113fa565b61142b83610d33565b840190509392505050565b600060808201905061144b6000830188610b74565b6114586020830187610ba8565b61146560408301866113da565b8181036060830152611478818486611409565b9050969550505050505056fea26469706673582212205404ee2692a375882dee8791047c6dc1cfa69c8f413d774c4e44c9f598a3e01a64736f6c63430008180033","opcodes":"PUSH1 0xC0 PUSH1 0x40 MSTORE CALLVALUE DUP1 ISZERO PUSH3 0x11 JUMPI PUSH1 0x0 DUP1 REVERT JUMPDEST POP PUSH1 0x40 MLOAD PUSH3 0x169E CODESIZE SUB DUP1 PUSH3 0x169E DUP4 CODECOPY DUP2 DUP2 ADD PUSH1 0x40 MSTORE DUP2 ADD SWAP1 PUSH3 0x37 SWAP2 SWAP1 PUSH3 0x177 JUMP JUMPDEST PUSH1 0x0 PUSH20 0xFFFFFFFFFFFFFFFFFFFFFFFFFFFFFFFFFFFFFFFF AND DUP2 PUSH20 0xFFFFFFFFFFFFFFFFFFFFFFFFFFFFFFFFFFFFFFFF AND SUB PUSH3 0x9E JUMPI PUSH1 0x40 MLOAD PUSH32 0xD92E233D00000000000000000000000000000000000000000000000000000000 DUP2 MSTORE PUSH1 0x4 ADD PUSH1 0x40 MLOAD DUP1 SWAP2 SUB SWAP1 REVERT JUMPDEST DUP1 PUSH20 0xFFFFFFFFFFFFFFFFFFFFFFFFFFFFFFFFFFFFFFFF AND PUSH1 0x80 DUP2 PUSH20 0xFFFFFFFFFFFFFFFFFFFFFFFFFFFFFFFFFFFFFFFF AND DUP2 MSTORE POP POP CALLER PUSH20 0xFFFFFFFFFFFFFFFFFFFFFFFFFFFFFFFFFFFFFFFF AND PUSH1 0xA0 DUP2 PUSH20 0xFFFFFFFFFFFFFFFFFFFFFFFFFFFFFFFFFFFFFFFF AND DUP2 MSTORE POP POP POP PUSH3 0x1A9 JUMP JUMPDEST PUSH1 0x0 DUP1 REVERT JUMPDEST PUSH1 0x0 PUSH20 0xFFFFFFFFFFFFFFFFFFFFFFFFFFFFFFFFFFFFFFFF DUP3 AND SWAP1 POP SWAP2 SWAP1 POP JUMP JUMPDEST PUSH1 0x0 PUSH3 0x13F DUP3 PUSH3 0x112 JUMP JUMPDEST SWAP1 POP SWAP2 SWAP1 POP JUMP JUMPDEST PUSH3 0x151 DUP2 PUSH3 0x132 JUMP JUMPDEST DUP2 EQ PUSH3 0x15D JUMPI PUSH1 0x0 DUP1 REVERT JUMPDEST POP JUMP JUMPDEST PUSH1 0x0 DUP2 MLOAD SWAP1 POP PUSH3 0x171 DUP2 PUSH3 0x146 JUMP JUMPDEST SWAP3 SWAP2 POP POP JUMP JUMPDEST PUSH1 0x0 PUSH1 0x20 DUP3 DUP5 SUB SLT ISZERO PUSH3 0x190 JUMPI PUSH3 0x18F PUSH3 0x10D JUMP JUMPDEST JUMPDEST PUSH1 0x0 PUSH3 0x1A0 DUP5 DUP3 DUP6 ADD PUSH3 0x160 JUMP JUMPDEST SWAP2 POP POP SWAP3 SWAP2 POP POP JUMP JUMPDEST PUSH1 0x80 MLOAD PUSH1 0xA0 MLOAD PUSH2 0x14BA PUSH3 0x1E4 PUSH1 0x0 CODECOPY PUSH1 0x0 DUP2 DUP2 PUSH2 0x173 ADD MSTORE PUSH2 0x3D5 ADD MSTORE PUSH1 0x0 DUP2 DUP2 PUSH2 0x197 ADD MSTORE DUP2 DUP2 PUSH2 0x821 ADD MSTORE PUSH2 0xA6F ADD MSTORE PUSH2 0x14BA PUSH1 0x0 RETURN INVALID PUSH1 0x80 PUSH1 0x40 MSTORE PUSH1 0x4 CALLDATASIZE LT PUSH2 0x55 JUMPI PUSH1 0x0 CALLDATALOAD PUSH1 0xE0 SHR DUP1 PUSH4 0x4F3BCEC EQ PUSH2 0x5A JUMPI DUP1 PUSH4 0x571A0606 EQ PUSH2 0x85 JUMPI DUP1 PUSH4 0x5AC48E6D EQ PUSH2 0xB0 JUMPI DUP1 PUSH4 0x69BCDB7D EQ PUSH2 0xDB JUMPI DUP1 PUSH4 0xD08A1A72 EQ PUSH2 0x118 JUMPI DUP1 PUSH4 0xF0282894 EQ PUSH2 0x141 JUMPI JUMPDEST PUSH1 0x0 DUP1 REVERT JUMPDEST CALLVALUE DUP1 ISZERO PUSH2 0x66 JUMPI PUSH1 0x0 DUP1 REVERT JUMPDEST POP PUSH2 0x6F PUSH2 0x171 JUMP JUMPDEST PUSH1 0x40 MLOAD PUSH2 0x7C SWAP2 SWAP1 PUSH2 0xB83 JUMP JUMPDEST PUSH1 0x40 MLOAD DUP1 SWAP2 SUB SWAP1 RETURN JUMPDEST CALLVALUE DUP1 ISZERO PUSH2 0x91 JUMPI PUSH1 0x0 DUP1 REVERT JUMPDEST POP PUSH2 0x9A PUSH2 0x195 JUMP JUMPDEST PUSH1 0x40 MLOAD PUSH2 0xA7 SWAP2 SWAP1 PUSH2 0xB83 JUMP JUMPDEST PUSH1 0x40 MLOAD DUP1 SWAP2 SUB SWAP1 RETURN JUMPDEST CALLVALUE DUP1 ISZERO PUSH2 0xBC JUMPI PUSH1 0x0 DUP1 REVERT JUMPDEST POP PUSH2 0xC5 PUSH2 0x1B9 JUMP JUMPDEST PUSH1 0x40 MLOAD PUSH2 0xD2 SWAP2 SWAP1 PUSH2 0xBB7 JUMP JUMPDEST PUSH1 0x40 MLOAD DUP1 SWAP2 SUB SWAP1 RETURN JUMPDEST CALLVALUE DUP1 ISZERO PUSH2 0xE7 JUMPI PUSH1 0x0 DUP1 REVERT JUMPDEST POP PUSH2 0x102 PUSH1 0x4 DUP1 CALLDATASIZE SUB DUP2 ADD SWAP1 PUSH2 0xFD SWAP2 SWAP1 PUSH2 0xC08 JUMP JUMPDEST PUSH2 0x1BF JUMP JUMPDEST PUSH1 0x40 MLOAD PUSH2 0x10F SWAP2 SWAP1 PUSH2 0xE19 JUMP JUMPDEST PUSH1 0x40 MLOAD DUP1 SWAP2 SUB SWAP1 RETURN JUMPDEST CALLVALUE DUP1 ISZERO PUSH2 0x124 JUMPI PUSH1 0x0 DUP1 REVERT JUMPDEST POP PUSH2 0x13F PUSH1 0x4 DUP1 CALLDATASIZE SUB DUP2 ADD SWAP1 PUSH2 0x13A SWAP2 SWAP1 PUSH2 0xE73 JUMP JUMPDEST PUSH2 0x3D3 JUMP JUMPDEST STOP JUMPDEST PUSH2 0x15B PUSH1 0x4 DUP1 CALLDATASIZE SUB DUP2 ADD SWAP1 PUSH2 0x156 SWAP2 SWAP1 PUSH2 0xF44 JUMP JUMPDEST PUSH2 0x70A JUMP JUMPDEST PUSH1 0x40 MLOAD PUSH2 0x168 SWAP2 SWAP1 PUSH2 0xBB7 JUMP JUMPDEST PUSH1 0x40 MLOAD DUP1 SWAP2 SUB SWAP1 RETURN JUMPDEST PUSH32 0x0 DUP2 JUMP JUMPDEST PUSH32 0x0 DUP2 JUMP JUMPDEST PUSH1 0x0 SLOAD DUP2 JUMP JUMPDEST PUSH2 0x1C7 PUSH2 0xAB3 JUMP JUMPDEST PUSH1 0x1 PUSH1 0x0 DUP4 DUP2 MSTORE PUSH1 0x20 ADD SWAP1 DUP2 MSTORE PUSH1 0x20 ADD PUSH1 0x0 KECCAK256 PUSH1 0x40 MLOAD DUP1 PUSH1 0xE0 ADD PUSH1 0x40 MSTORE SWAP1 DUP2 PUSH1 0x0 DUP3 ADD PUSH1 0x0 SWAP1 SLOAD SWAP1 PUSH2 0x100 EXP SWAP1 DIV PUSH20 0xFFFFFFFFFFFFFFFFFFFFFFFFFFFFFFFFFFFFFFFF AND PUSH20 0xFFFFFFFFFFFFFFFFFFFFFFFFFFFFFFFFFFFFFFFF AND PUSH20 0xFFFFFFFFFFFFFFFFFFFFFFFFFFFFFFFFFFFFFFFF AND DUP2 MSTORE PUSH1 0x20 ADD PUSH1 0x1 DUP3 ADD PUSH1 0x0 SWAP1 SLOAD SWAP1 PUSH2 0x100 EXP SWAP1 DIV PUSH20 0xFFFFFFFFFFFFFFFFFFFFFFFFFFFFFFFFFFFFFFFF AND PUSH20 0xFFFFFFFFFFFFFFFFFFFFFFFFFFFFFFFFFFFFFFFF AND PUSH20 0xFFFFFFFFFFFFFFFFFFFFFFFFFFFFFFFFFFFFFFFF AND DUP2 MSTORE PUSH1 0x20 ADD PUSH1 0x2 DUP3 ADD SLOAD DUP2 MSTORE PUSH1 0x20 ADD PUSH1 0x3 DUP3 ADD PUSH1 0x0 SWAP1 SLOAD SWAP1 PUSH2 0x100 EXP SWAP1 DIV PUSH8 0xFFFFFFFFFFFFFFFF AND PUSH8 0xFFFFFFFFFFFFFFFF AND PUSH8 0xFFFFFFFFFFFFFFFF AND DUP2 MSTORE PUSH1 0x20 ADD PUSH1 0x3 DUP3 ADD PUSH1 0x8 SWAP1 SLOAD SWAP1 PUSH2 0x100 EXP SWAP1 DIV PUSH8 0xFFFFFFFFFFFFFFFF AND PUSH8 0xFFFFFFFFFFFFFFFF AND PUSH8 0xFFFFFFFFFFFFFFFF AND DUP2 MSTORE PUSH1 0x20 ADD PUSH1 0x3 DUP3 ADD PUSH1 0x10 SWAP1 SLOAD SWAP1 PUSH2 0x100 EXP SWAP1 DIV PUSH1 0xFF AND PUSH1 0x2 DUP2 GT ISZERO PUSH2 0x324 JUMPI PUSH2 0x323 PUSH2 0xC76 JUMP JUMPDEST JUMPDEST PUSH1 0x2 DUP2 GT ISZERO PUSH2 0x336 JUMPI PUSH2 0x335 PUSH2 0xC76 JUMP JUMPDEST JUMPDEST DUP2 MSTORE PUSH1 0x20 ADD PUSH1 0x4 DUP3 ADD DUP1 SLOAD PUSH2 0x34A SWAP1 PUSH2 0xFD3 JUMP JUMPDEST DUP1 PUSH1 0x1F ADD PUSH1 0x20 DUP1 SWAP2 DIV MUL PUSH1 0x20 ADD PUSH1 0x40 MLOAD SWAP1 DUP2 ADD PUSH1 0x40 MSTORE DUP1 SWAP3 SWAP2 SWAP1 DUP2 DUP2 MSTORE PUSH1 0x20 ADD DUP3 DUP1 SLOAD PUSH2 0x376 SWAP1 PUSH2 0xFD3 JUMP JUMPDEST DUP1 ISZERO PUSH2 0x3C3 JUMPI DUP1 PUSH1 0x1F LT PUSH2 0x398 JUMPI PUSH2 0x100 DUP1 DUP4 SLOAD DIV MUL DUP4 MSTORE SWAP2 PUSH1 0x20 ADD SWAP2 PUSH2 0x3C3 JUMP JUMPDEST DUP3 ADD SWAP2 SWAP1 PUSH1 0x0 MSTORE PUSH1 0x20 PUSH1 0x0 KECCAK256 SWAP1 JUMPDEST DUP2 SLOAD DUP2 MSTORE SWAP1 PUSH1 0x1 ADD SWAP1 PUSH1 0x20 ADD DUP1 DUP4 GT PUSH2 0x3A6 JUMPI DUP3 SWAP1 SUB PUSH1 0x1F AND DUP3 ADD SWAP2 JUMPDEST POP POP POP POP POP DUP2 MSTORE POP POP SWAP1 POP SWAP2 SWAP1 POP JUMP JUMPDEST PUSH32 0x0 PUSH20 0xFFFFFFFFFFFFFFFFFFFFFFFFFFFFFFFFFFFFFFFF AND CALLER PUSH20 0xFFFFFFFFFFFFFFFFFFFFFFFFFFFFFFFFFFFFFFFF AND EQ PUSH2 0x458 JUMPI PUSH1 0x40 MLOAD PUSH32 0xEA8E4EB500000000000000000000000000000000000000000000000000000000 DUP2 MSTORE PUSH1 0x4 ADD PUSH1 0x40 MLOAD DUP1 SWAP2 SUB SWAP1 REVERT JUMPDEST PUSH1 0x0 PUSH1 0x1 PUSH1 0x0 DUP5 DUP2 MSTORE PUSH1 0x20 ADD SWAP1 DUP2 MSTORE PUSH1 0x20 ADD PUSH1 0x0 KECCAK256 SWAP1 POP PUSH1 0x0 PUSH20 0xFFFFFFFFFFFFFFFFFFFFFFFFFFFFFFFFFFFFFFFF AND DUP2 PUSH1 0x0 ADD PUSH1 0x0 SWAP1 SLOAD SWAP1 PUSH2 0x100 EXP SWAP1 DIV PUSH20 0xFFFFFFFFFFFFFFFFFFFFFFFFFFFFFFFFFFFFFFFF AND PUSH20 0xFFFFFFFFFFFFFFFFFFFFFFFFFFFFFFFFFFFFFFFF AND SUB PUSH2 0x4F9 JUMPI PUSH1 0x40 MLOAD PUSH32 0xB6682AD200000000000000000000000000000000000000000000000000000000 DUP2 MSTORE PUSH1 0x4 ADD PUSH1 0x40 MLOAD DUP1 SWAP2 SUB SWAP1 REVERT JUMPDEST PUSH1 0x0 PUSH1 0x2 DUP2 GT ISZERO PUSH2 0x50D JUMPI PUSH2 0x50C PUSH2 0xC76 JUMP JUMPDEST JUMPDEST DUP2 PUSH1 0x3 ADD PUSH1 0x10 SWAP1 SLOAD SWAP1 PUSH2 0x100 EXP SWAP1 DIV PUSH1 0xFF AND PUSH1 0x2 DUP2 GT ISZERO PUSH2 0x531 JUMPI PUSH2 0x530 PUSH2 0xC76 JUMP JUMPDEST JUMPDEST EQ PUSH2 0x568 JUMPI PUSH1 0x40 MLOAD PUSH32 0xF525E32000000000000000000000000000000000000000000000000000000000 DUP2 MSTORE PUSH1 0x4 ADD PUSH1 0x40 MLOAD DUP1 SWAP2 SUB SWAP1 REVERT JUMPDEST PUSH1 0x0 DUP2 PUSH1 0x2 ADD SLOAD SWAP1 POP PUSH1 0x0 DUP3 PUSH1 0x2 ADD DUP2 SWAP1 SSTORE POP PUSH1 0x0 DUP4 PUSH2 0x5AC JUMPI DUP3 PUSH1 0x1 ADD PUSH1 0x0 SWAP1 SLOAD SWAP1 PUSH2 0x100 EXP SWAP1 DIV PUSH20 0xFFFFFFFFFFFFFFFFFFFFFFFFFFFFFFFFFFFFFFFF AND PUSH2 0x5D2 JUMP JUMPDEST DUP3 PUSH1 0x0 ADD PUSH1 0x0 SWAP1 SLOAD SWAP1 PUSH2 0x100 EXP SWAP1 DIV PUSH20 0xFFFFFFFFFFFFFFFFFFFFFFFFFFFFFFFFFFFFFFFF AND JUMPDEST SWAP1 POP DUP4 PUSH2 0x5E0 JUMPI PUSH1 0x2 PUSH2 0x5E3 JUMP JUMPDEST PUSH1 0x1 JUMPDEST DUP4 PUSH1 0x3 ADD PUSH1 0x10 PUSH2 0x100 EXP DUP2 SLOAD DUP2 PUSH1 0xFF MUL NOT AND SWAP1 DUP4 PUSH1 0x2 DUP2 GT ISZERO PUSH2 0x609 JUMPI PUSH2 0x608 PUSH2 0xC76 JUMP JUMPDEST JUMPDEST MUL OR SWAP1 SSTORE POP PUSH1 0x0 DUP2 PUSH20 0xFFFFFFFFFFFFFFFFFFFFFFFFFFFFFFFFFFFFFFFF AND DUP4 PUSH1 0x40 MLOAD PUSH2 0x634 SWAP1 PUSH2 0x1035 JUMP JUMPDEST PUSH1 0x0 PUSH1 0x40 MLOAD DUP1 DUP4 SUB DUP2 DUP6 DUP8 GAS CALL SWAP3 POP POP POP RETURNDATASIZE DUP1 PUSH1 0x0 DUP2 EQ PUSH2 0x671 JUMPI PUSH1 0x40 MLOAD SWAP2 POP PUSH1 0x1F NOT PUSH1 0x3F RETURNDATASIZE ADD AND DUP3 ADD PUSH1 0x40 MSTORE RETURNDATASIZE DUP3 MSTORE RETURNDATASIZE PUSH1 0x0 PUSH1 0x20 DUP5 ADD RETURNDATACOPY PUSH2 0x676 JUMP JUMPDEST PUSH1 0x60 SWAP2 POP JUMPDEST POP POP SWAP1 POP DUP1 PUSH2 0x6B1 JUMPI PUSH1 0x40 MLOAD PUSH32 0x90B8EC1800000000000000000000000000000000000000000000000000000000 DUP2 MSTORE PUSH1 0x4 ADD PUSH1 0x40 MLOAD DUP1 SWAP2 SUB SWAP1 REVERT JUMPDEST DUP2 PUSH20 0xFFFFFFFFFFFFFFFFFFFFFFFFFFFFFFFFFFFFFFFF AND DUP7 PUSH32 0x558E12C28B802D0781A82083CF2150AE43903697D7B0B8EEDBFD16CC64EAE300 DUP8 DUP7 PUSH1 0x40 MLOAD PUSH2 0x6FA SWAP3 SWAP2 SWAP1 PUSH2 0x1059 JUMP JUMPDEST PUSH1 0x40 MLOAD DUP1 SWAP2 SUB SWAP1 LOG3 POP POP POP POP POP POP JUMP JUMPDEST PUSH1 0x0 DUP1 CALLVALUE SUB PUSH2 0x745 JUMPI PUSH1 0x40 MLOAD PUSH32 0xAA7FEADC00000000000000000000000000000000000000000000000000000000 DUP2 MSTORE PUSH1 0x4 ADD PUSH1 0x40 MLOAD DUP1 SWAP2 SUB SWAP1 REVERT JUMPDEST PUSH1 0x0 DUP5 PUSH8 0xFFFFFFFFFFFFFFFF AND SUB PUSH2 0x789 JUMPI PUSH1 0x40 MLOAD PUSH32 0x769D11E400000000000000000000000000000000000000000000000000000000 DUP2 MSTORE PUSH1 0x4 ADD PUSH1 0x40 MLOAD DUP1 SWAP2 SUB SWAP1 REVERT JUMPDEST PUSH1 0x0 DUP4 DUP4 SWAP1 POP SUB PUSH2 0x7C6 JUMPI PUSH1 0x40 MLOAD PUSH32 0xD2CE645C00000000000000000000000000000000000000000000000000000000 DUP2 MSTORE PUSH1 0x4 ADD PUSH1 0x40 MLOAD DUP1 SWAP2 SUB SWAP1 REVERT JUMPDEST PUSH1 0x0 DUP5 PUSH8 0xFFFFFFFFFFFFFFFF AND TIMESTAMP PUSH2 0x7DE SWAP2 SWAP1 PUSH2 0x10B1 JUMP JUMPDEST SWAP1 POP PUSH1 0x0 DUP1 DUP2 SLOAD DUP1 SWAP3 SWAP2 SWAP1 PUSH2 0x7F2 SWAP1 PUSH2 0x10E5 JUMP JUMPDEST SWAP2 SWAP1 POP SSTORE SWAP2 POP PUSH1 0x40 MLOAD DUP1 PUSH1 0xE0 ADD PUSH1 0x40 MSTORE DUP1 CALLER PUSH20 0xFFFFFFFFFFFFFFFFFFFFFFFFFFFFFFFFFFFFFFFF AND DUP2 MSTORE PUSH1 0x20 ADD PUSH32 0x0 PUSH20 0xFFFFFFFFFFFFFFFFFFFFFFFFFFFFFFFFFFFFFFFF AND DUP2 MSTORE PUSH1 0x20 ADD CALLVALUE DUP2 MSTORE PUSH1 0x20 ADD TIMESTAMP PUSH8 0xFFFFFFFFFFFFFFFF AND DUP2 MSTORE PUSH1 0x20 ADD DUP3 PUSH8 0xFFFFFFFFFFFFFFFF AND DUP2 MSTORE PUSH1 0x20 ADD PUSH1 0x0 PUSH1 0x2 DUP2 GT ISZERO PUSH2 0x895 JUMPI PUSH2 0x894 PUSH2 0xC76 JUMP JUMPDEST JUMPDEST DUP2 MSTORE PUSH1 0x20 ADD DUP6 DUP6 DUP1 DUP1 PUSH1 0x1F ADD PUSH1 0x20 DUP1 SWAP2 DIV MUL PUSH1 0x20 ADD PUSH1 0x40 MLOAD SWAP1 DUP2 ADD PUSH1 0x40 MSTORE DUP1 SWAP4 SWAP3 SWAP2 SWAP1 DUP2 DUP2 MSTORE PUSH1 0x20 ADD DUP4 DUP4 DUP1 DUP3 DUP5 CALLDATACOPY PUSH1 0x0 DUP2 DUP5 ADD MSTORE PUSH1 0x1F NOT PUSH1 0x1F DUP3 ADD AND SWAP1 POP DUP1 DUP4 ADD SWAP3 POP POP POP POP POP POP POP DUP2 MSTORE POP PUSH1 0x1 PUSH1 0x0 DUP5 DUP2 MSTORE PUSH1 0x20 ADD SWAP1 DUP2 MSTORE PUSH1 0x20 ADD PUSH1 0x0 KECCAK256 PUSH1 0x0 DUP3 ADD MLOAD DUP2 PUSH1 0x0 ADD PUSH1 0x0 PUSH2 0x100 EXP DUP2 SLOAD DUP2 PUSH20 0xFFFFFFFFFFFFFFFFFFFFFFFFFFFFFFFFFFFFFFFF MUL NOT AND SWAP1 DUP4 PUSH20 0xFFFFFFFFFFFFFFFFFFFFFFFFFFFFFFFFFFFFFFFF AND MUL OR SWAP1 SSTORE POP PUSH1 0x20 DUP3 ADD MLOAD DUP2 PUSH1 0x1 ADD PUSH1 0x0 PUSH2 0x100 EXP DUP2 SLOAD DUP2 PUSH20 0xFFFFFFFFFFFFFFFFFFFFFFFFFFFFFFFFFFFFFFFF MUL NOT AND SWAP1 DUP4 PUSH20 0xFFFFFFFFFFFFFFFFFFFFFFFFFFFFFFFFFFFFFFFF AND MUL OR SWAP1 SSTORE POP PUSH1 0x40 DUP3 ADD MLOAD DUP2 PUSH1 0x2 ADD SSTORE PUSH1 0x60 DUP3 ADD MLOAD DUP2 PUSH1 0x3 ADD PUSH1 0x0 PUSH2 0x100 EXP DUP2 SLOAD DUP2 PUSH8 0xFFFFFFFFFFFFFFFF MUL NOT AND SWAP1 DUP4 PUSH8 0xFFFFFFFFFFFFFFFF AND MUL OR SWAP1 SSTORE POP PUSH1 0x80 DUP3 ADD MLOAD DUP2 PUSH1 0x3 ADD PUSH1 0x8 PUSH2 0x100 EXP DUP2 SLOAD DUP2 PUSH8 0xFFFFFFFFFFFFFFFF MUL NOT AND SWAP1 DUP4 PUSH8 0xFFFFFFFFFFFFFFFF AND MUL OR SWAP1 SSTORE POP PUSH1 0xA0 DUP3 ADD MLOAD DUP2 PUSH1 0x3 ADD PUSH1 0x10 PUSH2 0x100 EXP DUP2 SLOAD DUP2 PUSH1 0xFF MUL NOT AND SWAP1 DUP4 PUSH1 0x2 DUP2 GT ISZERO PUSH2 0xA16 JUMPI PUSH2 0xA15 PUSH2 0xC76 JUMP JUMPDEST JUMPDEST MUL OR SWAP1 SSTORE POP PUSH1 0xC0 DUP3 ADD MLOAD DUP2 PUSH1 0x4 ADD SWAP1 DUP2 PUSH2 0xA30 SWAP2 SWAP1 PUSH2 0x1308 JUMP JUMPDEST POP SWAP1 POP POP CALLER PUSH20 0xFFFFFFFFFFFFFFFFFFFFFFFFFFFFFFFFFFFFFFFF AND DUP3 PUSH32 0x6F0AAEC86971FE0393D6F3CF974191894C0F33F56EC564A8168C1E1C1419B0CB PUSH32 0x0 CALLVALUE DUP6 DUP10 DUP10 PUSH1 0x40 MLOAD PUSH2 0xAA3 SWAP6 SWAP5 SWAP4 SWAP3 SWAP2 SWAP1 PUSH2 0x1436 JUMP JUMPDEST PUSH1 0x40 MLOAD DUP1 SWAP2 SUB SWAP1 LOG3 POP SWAP4 SWAP3 POP POP POP JUMP JUMPDEST PUSH1 0x40 MLOAD DUP1 PUSH1 0xE0 ADD PUSH1 0x40 MSTORE DUP1 PUSH1 0x0 PUSH20 0xFFFFFFFFFFFFFFFFFFFFFFFFFFFFFFFFFFFFFFFF AND DUP2 MSTORE PUSH1 0x20 ADD PUSH1 0x0 PUSH20 0xFFFFFFFFFFFFFFFFFFFFFFFFFFFFFFFFFFFFFFFF AND DUP2 MSTORE PUSH1 0x20 ADD PUSH1 0x0 DUP2 MSTORE PUSH1 0x20 ADD PUSH1 0x0 PUSH8 0xFFFFFFFFFFFFFFFF AND DUP2 MSTORE PUSH1 0x20 ADD PUSH1 0x0 PUSH8 0xFFFFFFFFFFFFFFFF AND DUP2 MSTORE PUSH1 0x20 ADD PUSH1 0x0 PUSH1 0x2 DUP2 GT ISZERO PUSH2 0xB35 JUMPI PUSH2 0xB34 PUSH2 0xC76 JUMP JUMPDEST JUMPDEST DUP2 MSTORE PUSH1 0x20 ADD PUSH1 0x60 DUP2 MSTORE POP SWAP1 JUMP JUMPDEST PUSH1 0x0 PUSH20 0xFFFFFFFFFFFFFFFFFFFFFFFFFFFFFFFFFFFFFFFF DUP3 AND SWAP1 POP SWAP2 SWAP1 POP JUMP JUMPDEST PUSH1 0x0 PUSH2 0xB6D DUP3 PUSH2 0xB42 JUMP JUMPDEST SWAP1 POP SWAP2 SWAP1 POP JUMP JUMPDEST PUSH2 0xB7D DUP2 PUSH2 0xB62 JUMP JUMPDEST DUP3 MSTORE POP POP JUMP JUMPDEST PUSH1 0x0 PUSH1 0x20 DUP3 ADD SWAP1 POP PUSH2 0xB98 PUSH1 0x0 DUP4 ADD DUP5 PUSH2 0xB74 JUMP JUMPDEST SWAP3 SWAP2 POP POP JUMP JUMPDEST PUSH1 0x0 DUP2 SWAP1 POP SWAP2 SWAP1 POP JUMP JUMPDEST PUSH2 0xBB1 DUP2 PUSH2 0xB9E JUMP JUMPDEST DUP3 MSTORE POP POP JUMP JUMPDEST PUSH1 0x0 PUSH1 0x20 DUP3 ADD SWAP1 POP PUSH2 0xBCC PUSH1 0x0 DUP4 ADD DUP5 PUSH2 0xBA8 JUMP JUMPDEST SWAP3 SWAP2 POP POP JUMP JUMPDEST PUSH1 0x0 DUP1 REVERT JUMPDEST PUSH1 0x0 DUP1 REVERT JUMPDEST PUSH2 0xBE5 DUP2 PUSH2 0xB9E JUMP JUMPDEST DUP2 EQ PUSH2 0xBF0 JUMPI PUSH1 0x0 DUP1 REVERT JUMPDEST POP JUMP JUMPDEST PUSH1 0x0 DUP2 CALLDATALOAD SWAP1 POP PUSH2 0xC02 DUP2 PUSH2 0xBDC JUMP JUMPDEST SWAP3 SWAP2 POP POP JUMP JUMPDEST PUSH1 0x0 PUSH1 0x20 DUP3 DUP5 SUB SLT ISZERO PUSH2 0xC1E JUMPI PUSH2 0xC1D PUSH2 0xBD2 JUMP JUMPDEST JUMPDEST PUSH1 0x0 PUSH2 0xC2C DUP5 DUP3 DUP6 ADD PUSH2 0xBF3 JUMP JUMPDEST SWAP2 POP POP SWAP3 SWAP2 POP POP JUMP JUMPDEST PUSH2 0xC3E DUP2 PUSH2 0xB62 JUMP JUMPDEST DUP3 MSTORE POP POP JUMP JUMPDEST PUSH2 0xC4D DUP2 PUSH2 0xB9E JUMP JUMPDEST DUP3 MSTORE POP POP JUMP JUMPDEST PUSH1 0x0 PUSH8 0xFFFFFFFFFFFFFFFF DUP3 AND SWAP1 POP SWAP2 SWAP1 POP JUMP JUMPDEST PUSH2 0xC70 DUP2 PUSH2 0xC53 JUMP JUMPDEST DUP3 MSTORE POP POP JUMP JUMPDEST PUSH32 0x4E487B7100000000000000000000000000000000000000000000000000000000 PUSH1 0x0 MSTORE PUSH1 0x21 PUSH1 0x4 MSTORE PUSH1 0x24 PUSH1 0x0 REVERT JUMPDEST PUSH1 0x3 DUP2 LT PUSH2 0xCB6 JUMPI PUSH2 0xCB5 PUSH2 0xC76 JUMP JUMPDEST JUMPDEST POP JUMP JUMPDEST PUSH1 0x0 DUP2 SWAP1 POP PUSH2 0xCC7 DUP3 PUSH2 0xCA5 JUMP JUMPDEST SWAP2 SWAP1 POP JUMP JUMPDEST PUSH1 0x0 PUSH2 0xCD7 DUP3 PUSH2 0xCB9 JUMP JUMPDEST SWAP1 POP SWAP2 SWAP1 POP JUMP JUMPDEST PUSH2 0xCE7 DUP2 PUSH2 0xCCC JUMP JUMPDEST DUP3 MSTORE POP POP JUMP JUMPDEST PUSH1 0x0 DUP2 MLOAD SWAP1 POP SWAP2 SWAP1 POP JUMP JUMPDEST PUSH1 0x0 DUP3 DUP3 MSTORE PUSH1 0x20 DUP3 ADD SWAP1 POP SWAP3 SWAP2 POP POP JUMP JUMPDEST PUSH1 0x0 JUMPDEST DUP4 DUP2 LT ISZERO PUSH2 0xD27 JUMPI DUP1 DUP3 ADD MLOAD DUP2 DUP5 ADD MSTORE PUSH1 0x20 DUP2 ADD SWAP1 POP PUSH2 0xD0C JUMP JUMPDEST PUSH1 0x0 DUP5 DUP5 ADD MSTORE POP POP POP POP JUMP JUMPDEST PUSH1 0x0 PUSH1 0x1F NOT PUSH1 0x1F DUP4 ADD AND SWAP1 POP SWAP2 SWAP1 POP JUMP JUMPDEST PUSH1 0x0 PUSH2 0xD4F DUP3 PUSH2 0xCED JUMP JUMPDEST PUSH2 0xD59 DUP2 DUP6 PUSH2 0xCF8 JUMP JUMPDEST SWAP4 POP PUSH2 0xD69 DUP2 DUP6 PUSH1 0x20 DUP7 ADD PUSH2 0xD09 JUMP JUMPDEST PUSH2 0xD72 DUP2 PUSH2 0xD33 JUMP JUMPDEST DUP5 ADD SWAP2 POP POP SWAP3 SWAP2 POP POP JUMP JUMPDEST PUSH1 0x0 PUSH1 0xE0 DUP4 ADD PUSH1 0x0 DUP4 ADD MLOAD PUSH2 0xD95 PUSH1 0x0 DUP7 ADD DUP3 PUSH2 0xC35 JUMP JUMPDEST POP PUSH1 0x20 DUP4 ADD MLOAD PUSH2 0xDA8 PUSH1 0x20 DUP7 ADD DUP3 PUSH2 0xC35 JUMP JUMPDEST POP PUSH1 0x40 DUP4 ADD MLOAD PUSH2 0xDBB PUSH1 0x40 DUP7 ADD DUP3 PUSH2 0xC44 JUMP JUMPDEST POP PUSH1 0x60 DUP4 ADD MLOAD PUSH2 0xDCE PUSH1 0x60 DUP7 ADD DUP3 PUSH2 0xC67 JUMP JUMPDEST POP PUSH1 0x80 DUP4 ADD MLOAD PUSH2 0xDE1 PUSH1 0x80 DUP7 ADD DUP3 PUSH2 0xC67 JUMP JUMPDEST POP PUSH1 0xA0 DUP4 ADD MLOAD PUSH2 0xDF4 PUSH1 0xA0 DUP7 ADD DUP3 PUSH2 0xCDE JUMP JUMPDEST POP PUSH1 0xC0 DUP4 ADD MLOAD DUP5 DUP3 SUB PUSH1 0xC0 DUP7 ADD MSTORE PUSH2 0xE0C DUP3 DUP3 PUSH2 0xD44 JUMP JUMPDEST SWAP2 POP POP DUP1 SWAP2 POP POP SWAP3 SWAP2 POP POP JUMP JUMPDEST PUSH1 0x0 PUSH1 0x20 DUP3 ADD SWAP1 POP DUP2 DUP2 SUB PUSH1 0x0 DUP4 ADD MSTORE PUSH2 0xE33 DUP2 DUP5 PUSH2 0xD7D JUMP JUMPDEST SWAP1 POP SWAP3 SWAP2 POP POP JUMP JUMPDEST PUSH1 0x0 DUP2 ISZERO ISZERO SWAP1 POP SWAP2 SWAP1 POP JUMP JUMPDEST PUSH2 0xE50 DUP2 PUSH2 0xE3B JUMP JUMPDEST DUP2 EQ PUSH2 0xE5B JUMPI PUSH1 0x0 DUP1 REVERT JUMPDEST POP JUMP JUMPDEST PUSH1 0x0 DUP2 CALLDATALOAD SWAP1 POP PUSH2 0xE6D DUP2 PUSH2 0xE47 JUMP JUMPDEST SWAP3 SWAP2 POP POP JUMP JUMPDEST PUSH1 0x0 DUP1 PUSH1 0x40 DUP4 DUP6 SUB SLT ISZERO PUSH2 0xE8A JUMPI PUSH2 0xE89 PUSH2 0xBD2 JUMP JUMPDEST JUMPDEST PUSH1 0x0 PUSH2 0xE98 DUP6 DUP3 DUP7 ADD PUSH2 0xBF3 JUMP JUMPDEST SWAP3 POP POP PUSH1 0x20 PUSH2 0xEA9 DUP6 DUP3 DUP7 ADD PUSH2 0xE5E JUMP JUMPDEST SWAP2 POP POP SWAP3 POP SWAP3 SWAP1 POP JUMP JUMPDEST PUSH2 0xEBC DUP2 PUSH2 0xC53 JUMP JUMPDEST DUP2 EQ PUSH2 0xEC7 JUMPI PUSH1 0x0 DUP1 REVERT JUMPDEST POP JUMP JUMPDEST PUSH1 0x0 DUP2 CALLDATALOAD SWAP1 POP PUSH2 0xED9 DUP2 PUSH2 0xEB3 JUMP JUMPDEST SWAP3 SWAP2 POP POP JUMP JUMPDEST PUSH1 0x0 DUP1 REVERT JUMPDEST PUSH1 0x0 DUP1 REVERT JUMPDEST PUSH1 0x0 DUP1 REVERT JUMPDEST PUSH1 0x0 DUP1 DUP4 PUSH1 0x1F DUP5 ADD SLT PUSH2 0xF04 JUMPI PUSH2 0xF03 PUSH2 0xEDF JUMP JUMPDEST JUMPDEST DUP3 CALLDATALOAD SWAP1 POP PUSH8 0xFFFFFFFFFFFFFFFF DUP2 GT ISZERO PUSH2 0xF21 JUMPI PUSH2 0xF20 PUSH2 0xEE4 JUMP JUMPDEST JUMPDEST PUSH1 0x20 DUP4 ADD SWAP2 POP DUP4 PUSH1 0x1 DUP3 MUL DUP4 ADD GT ISZERO PUSH2 0xF3D JUMPI PUSH2 0xF3C PUSH2 0xEE9 JUMP JUMPDEST JUMPDEST SWAP3 POP SWAP3 SWAP1 POP JUMP JUMPDEST PUSH1 0x0 DUP1 PUSH1 0x0 PUSH1 0x40 DUP5 DUP7 SUB SLT ISZERO PUSH2 0xF5D JUMPI PUSH2 0xF5C PUSH2 0xBD2 JUMP JUMPDEST JUMPDEST PUSH1 0x0 PUSH2 0xF6B DUP7 DUP3 DUP8 ADD PUSH2 0xECA JUMP JUMPDEST SWAP4 POP POP PUSH1 0x20 DUP5 ADD CALLDATALOAD PUSH8 0xFFFFFFFFFFFFFFFF DUP2 GT ISZERO PUSH2 0xF8C JUMPI PUSH2 0xF8B PUSH2 0xBD7 JUMP JUMPDEST JUMPDEST PUSH2 0xF98 DUP7 DUP3 DUP8 ADD PUSH2 0xEEE JUMP JUMPDEST SWAP3 POP SWAP3 POP POP SWAP3 POP SWAP3 POP SWAP3 JUMP JUMPDEST PUSH32 0x4E487B7100000000000000000000000000000000000000000000000000000000 PUSH1 0x0 MSTORE PUSH1 0x22 PUSH1 0x4 MSTORE PUSH1 0x24 PUSH1 0x0 REVERT JUMPDEST PUSH1 0x0 PUSH1 0x2 DUP3 DIV SWAP1 POP PUSH1 0x1 DUP3 AND DUP1 PUSH2 0xFEB JUMPI PUSH1 0x7F DUP3 AND SWAP2 POP JUMPDEST PUSH1 0x20 DUP3 LT DUP2 SUB PUSH2 0xFFE JUMPI PUSH2 0xFFD PUSH2 0xFA4 JUMP JUMPDEST JUMPDEST POP SWAP2 SWAP1 POP JUMP JUMPDEST PUSH1 0x0 DUP2 SWAP1 POP SWAP3 SWAP2 POP POP JUMP JUMPDEST POP JUMP JUMPDEST PUSH1 0x0 PUSH2 0x101F PUSH1 0x0 DUP4 PUSH2 0x1004 JUMP JUMPDEST SWAP2 POP PUSH2 0x102A DUP3 PUSH2 0x100F JUMP JUMPDEST PUSH1 0x0 DUP3 ADD SWAP1 POP SWAP2 SWAP1 POP JUMP JUMPDEST PUSH1 0x0 PUSH2 0x1040 DUP3 PUSH2 0x1012 JUMP JUMPDEST SWAP2 POP DUP2 SWAP1 POP SWAP2 SWAP1 POP JUMP JUMPDEST PUSH2 0x1053 DUP2 PUSH2 0xE3B JUMP JUMPDEST DUP3 MSTORE POP POP JUMP JUMPDEST PUSH1 0x0 PUSH1 0x40 DUP3 ADD SWAP1 POP PUSH2 0x106E PUSH1 0x0 DUP4 ADD DUP6 PUSH2 0x104A JUMP JUMPDEST PUSH2 0x107B PUSH1 0x20 DUP4 ADD DUP5 PUSH2 0xBA8 JUMP JUMPDEST SWAP4 SWAP3 POP POP POP JUMP JUMPDEST PUSH32 0x4E487B7100000000000000000000000000000000000000000000000000000000 PUSH1 0x0 MSTORE PUSH1 0x11 PUSH1 0x4 MSTORE PUSH1 0x24 PUSH1 0x0 REVERT JUMPDEST PUSH1 0x0 PUSH2 0x10BC DUP3 PUSH2 0xB9E JUMP JUMPDEST SWAP2 POP PUSH2 0x10C7 DUP4 PUSH2 0xB9E JUMP JUMPDEST SWAP3 POP DUP3 DUP3 ADD SWAP1 POP DUP1 DUP3 GT ISZERO PUSH2 0x10DF JUMPI PUSH2 0x10DE PUSH2 0x1082 JUMP JUMPDEST JUMPDEST SWAP3 SWAP2 POP POP JUMP JUMPDEST PUSH1 0x0 PUSH2 0x10F0 DUP3 PUSH2 0xB9E JUMP JUMPDEST SWAP2 POP PUSH32 0xFFFFFFFFFFFFFFFFFFFFFFFFFFFFFFFFFFFFFFFFFFFFFFFFFFFFFFFFFFFFFFFF DUP3 SUB PUSH2 0x1122 JUMPI PUSH2 0x1121 PUSH2 0x1082 JUMP JUMPDEST JUMPDEST PUSH1 0x1 DUP3 ADD SWAP1 POP SWAP2 SWAP1 POP JUMP JUMPDEST PUSH32 0x4E487B7100000000000000000000000000000000000000000000000000000000 PUSH1 0x0 MSTORE PUSH1 0x41 PUSH1 0x4 MSTORE PUSH1 0x24 PUSH1 0x0 REVERT JUMPDEST PUSH1 0x0 DUP2 SWAP1 POP DUP2 PUSH1 0x0 MSTORE PUSH1 0x20 PUSH1 0x0 KECCAK256 SWAP1 POP SWAP2 SWAP1 POP JUMP JUMPDEST PUSH1 0x0 PUSH1 0x20 PUSH1 0x1F DUP4 ADD DIV SWAP1 POP SWAP2 SWAP1 POP JUMP JUMPDEST PUSH1 0x0 DUP3 DUP3 SHL SWAP1 POP SWAP3 SWAP2 POP POP JUMP JUMPDEST PUSH1 0x0 PUSH1 0x8 DUP4 MUL PUSH2 0x11BE PUSH32 0xFFFFFFFFFFFFFFFFFFFFFFFFFFFFFFFFFFFFFFFFFFFFFFFFFFFFFFFFFFFFFFFF DUP3 PUSH2 0x1181 JUMP JUMPDEST PUSH2 0x11C8 DUP7 DUP4 PUSH2 0x1181 JUMP JUMPDEST SWAP6 POP DUP1 NOT DUP5 AND SWAP4 POP DUP1 DUP7 AND DUP5 OR SWAP3 POP POP POP SWAP4 SWAP3 POP POP POP JUMP JUMPDEST PUSH1 0x0 DUP2 SWAP1 POP SWAP2 SWAP1 POP JUMP JUMPDEST PUSH1 0x0 PUSH2 0x1205 PUSH2 0x1200 PUSH2 0x11FB DUP5 PUSH2 0xB9E JUMP JUMPDEST PUSH2 0x11E0 JUMP JUMPDEST PUSH2 0xB9E JUMP JUMPDEST SWAP1 POP SWAP2 SWAP1 POP JUMP JUMPDEST PUSH1 0x0 DUP2 SWAP1 POP SWAP2 SWAP1 POP JUMP JUMPDEST PUSH2 0x121F DUP4 PUSH2 0x11EA JUMP JUMPDEST PUSH2 0x1233 PUSH2 0x122B DUP3 PUSH2 0x120C JUMP JUMPDEST DUP5 DUP5 SLOAD PUSH2 0x118E JUMP JUMPDEST DUP3 SSTORE POP POP POP POP JUMP JUMPDEST PUSH1 0x0 SWAP1 JUMP JUMPDEST PUSH2 0x1248 PUSH2 0x123B JUMP JUMPDEST PUSH2 0x1253 DUP2 DUP5 DUP5 PUSH2 0x1216 JUMP JUMPDEST POP POP POP JUMP JUMPDEST JUMPDEST DUP2 DUP2 LT ISZERO PUSH2 0x1277 JUMPI PUSH2 0x126C PUSH1 0x0 DUP3 PUSH2 0x1240 JUMP JUMPDEST PUSH1 0x1 DUP2 ADD SWAP1 POP PUSH2 0x1259 JUMP JUMPDEST POP POP JUMP JUMPDEST PUSH1 0x1F DUP3 GT ISZERO PUSH2 0x12BC JUMPI PUSH2 0x128D DUP2 PUSH2 0x115C JUMP JUMPDEST PUSH2 0x1296 DUP5 PUSH2 0x1171 JUMP JUMPDEST DUP2 ADD PUSH1 0x20 DUP6 LT ISZERO PUSH2 0x12A5 JUMPI DUP2 SWAP1 POP JUMPDEST PUSH2 0x12B9 PUSH2 0x12B1 DUP6 PUSH2 0x1171 JUMP JUMPDEST DUP4 ADD DUP3 PUSH2 0x1258 JUMP JUMPDEST POP POP JUMPDEST POP POP POP JUMP JUMPDEST PUSH1 0x0 DUP3 DUP3 SHR SWAP1 POP SWAP3 SWAP2 POP POP JUMP JUMPDEST PUSH1 0x0 PUSH2 0x12DF PUSH1 0x0 NOT DUP5 PUSH1 0x8 MUL PUSH2 0x12C1 JUMP JUMPDEST NOT DUP1 DUP4 AND SWAP2 POP POP SWAP3 SWAP2 POP POP JUMP JUMPDEST PUSH1 0x0 PUSH2 0x12F8 DUP4 DUP4 PUSH2 0x12CE JUMP JUMPDEST SWAP2 POP DUP3 PUSH1 0x2 MUL DUP3 OR SWAP1 POP SWAP3 SWAP2 POP POP JUMP JUMPDEST PUSH2 0x1311 DUP3 PUSH2 0xCED JUMP JUMPDEST PUSH8 0xFFFFFFFFFFFFFFFF DUP2 GT ISZERO PUSH2 0x132A JUMPI PUSH2 0x1329 PUSH2 0x112D JUMP JUMPDEST JUMPDEST PUSH2 0x1334 DUP3 SLOAD PUSH2 0xFD3 JUMP JUMPDEST PUSH2 0x133F DUP3 DUP3 DUP6 PUSH2 0x127B JUMP JUMPDEST PUSH1 0x0 PUSH1 0x20 SWAP1 POP PUSH1 0x1F DUP4 GT PUSH1 0x1 DUP2 EQ PUSH2 0x1372 JUMPI PUSH1 0x0 DUP5 ISZERO PUSH2 0x1360 JUMPI DUP3 DUP8 ADD MLOAD SWAP1 POP JUMPDEST PUSH2 0x136A DUP6 DUP3 PUSH2 0x12EC JUMP JUMPDEST DUP7 SSTORE POP PUSH2 0x13D2 JUMP JUMPDEST PUSH1 0x1F NOT DUP5 AND PUSH2 0x1380 DUP7 PUSH2 0x115C JUMP JUMPDEST PUSH1 0x0 JUMPDEST DUP3 DUP2 LT ISZERO PUSH2 0x13A8 JUMPI DUP5 DUP10 ADD MLOAD DUP3 SSTORE PUSH1 0x1 DUP3 ADD SWAP2 POP PUSH1 0x20 DUP6 ADD SWAP5 POP PUSH1 0x20 DUP2 ADD SWAP1 POP PUSH2 0x1383 JUMP JUMPDEST DUP7 DUP4 LT ISZERO PUSH2 0x13C5 JUMPI DUP5 DUP10 ADD MLOAD PUSH2 0x13C1 PUSH1 0x1F DUP10 AND DUP3 PUSH2 0x12CE JUMP JUMPDEST DUP4 SSTORE POP JUMPDEST PUSH1 0x1 PUSH1 0x2 DUP9 MUL ADD DUP9 SSTORE POP POP POP JUMPDEST POP POP POP POP POP POP JUMP JUMPDEST PUSH2 0x13E3 DUP2 PUSH2 0xC53 JUMP JUMPDEST DUP3 MSTORE POP POP JUMP JUMPDEST PUSH1 0x0 DUP3 DUP3 MSTORE PUSH1 0x20 DUP3 ADD SWAP1 POP SWAP3 SWAP2 POP POP JUMP JUMPDEST DUP3 DUP2 DUP4 CALLDATACOPY PUSH1 0x0 DUP4 DUP4 ADD MSTORE POP POP POP JUMP JUMPDEST PUSH1 0x0 PUSH2 0x1415 DUP4 DUP6 PUSH2 0x13E9 JUMP JUMPDEST SWAP4 POP PUSH2 0x1422 DUP4 DUP6 DUP5 PUSH2 0x13FA JUMP JUMPDEST PUSH2 0x142B DUP4 PUSH2 0xD33 JUMP JUMPDEST DUP5 ADD SWAP1 POP SWAP4 SWAP3 POP POP POP JUMP JUMPDEST PUSH1 0x0 PUSH1 0x80 DUP3 ADD SWAP1 POP PUSH2 0x144B PUSH1 0x0 DUP4 ADD DUP9 PUSH2 0xB74 JUMP JUMPDEST PUSH2 0x1458 PUSH1 0x20 DUP4 ADD DUP8 PUSH2 0xBA8 JUMP JUMPDEST PUSH2 0x1465 PUSH1 0x40 DUP4 ADD DUP7 PUSH2 0x13DA JUMP JUMPDEST DUP2 DUP2 SUB PUSH1 0x60 DUP4 ADD MSTORE PUSH2 0x1478 DUP2 DUP5 DUP7 PUSH2 0x1409 JUMP JUMPDEST SWAP1 POP SWAP7 SWAP6 POP POP POP POP POP POP JUMP INVALID LOG2 PUSH5 0x6970667358 0x22 SLT KECCAK256 SLOAD DIV 0xEE 0x26 SWAP3 LOG3 PUSH22 0x882DEE8791047C6DC1CFA69C8F413D774C4E44C9F598 LOG3 0xE0 BYTE PUSH5 0x736F6C6343 STOP ADDMOD XOR STOP CALLER "},"methodIdentifiers":{"createCommitment(uint64,string)":"f0282894","defaultPenaltyReceiver()":"571a0606","getCommitment(uint256)":"69bcdb7d","nextCommitmentId()":"5ac48e6d","resolveCommitment(uint256,bool)":"d08a1a72","resolver()":"04f3bcec"}}}}}