{
  "_format": "hh-sol-artifact-1",
  "contractName": "TimeLendMVP",
  "sourceName": "contracts/TimeLendMVP.sol",
  "abi": [
    {
      "inputs": [],
      "name": "DeadlineNotReached",
      "type": "error"
    },
    {
      "inputs": [],
      "name": "DeadlineReached",
      "type": "error"
    },
    {
      "inputs": [],
      "name": "InvalidDeadline",
      "type": "error"
    },
    {
      "inputs": [],
      "name": "InvalidStatus",
      "type": "error"
    },
    {
      "inputs": [],
      "name": "InvalidValue",
      "type": "error"
    },
    {
      "inputs": [],
      "name": "NoProofSubmitted",
      "type": "error"
    },
    {
      "inputs": [],
      "name": "NotAuthorized",
      "type": "error"
    },
    {
      "inputs": [],
      "name": "TransferFailed",
      "type": "error"
    },
    {
      "anonymous": false,
      "inputs": [
        {
          "indexed": true,
          "internalType": "uint256",
          "name": "commitmentId",
          "type": "uint256"
        },
        {
          "indexed": true,
          "internalType": "address",
          "name": "user",
          "type": "address"
        },
        {
          "indexed": true,
          "internalType": "address",
          "name": "verifier",
          "type": "address"
        },
        {
          "indexed": false,
          "internalType": "address",
          "name": "penaltyReceiver",
          "type": "address"
        },
        {
          "indexed": false,
          "internalType": "uint256",
          "name": "stake",
          "type": "uint256"
        },
        {
          "indexed": false,
          "internalType": "uint64",
          "name": "deadline",
          "type": "uint64"
        },
        {
          "indexed": false,
          "internalType": "string",
          "name": "taskURI",
          "type": "string"
        }
      ],
      "name": "CommitmentCreated",
      "type": "event"
    },
    {
      "anonymous": false,
      "inputs": [
        {
          "indexed": true,
          "internalType": "uint256",
          "name": "commitmentId",
          "type": "uint256"
        },
        {
          "indexed": true,
          "internalType": "address",
          "name": "resolver",
          "type": "address"
        }
      ],
      "name": "CommitmentFailed",
      "type": "event"
    },
    {
      "anonymous": false,
      "inputs": [
        {
          "indexed": true,
          "internalType": "uint256",
          "name": "commitmentId",
          "type": "uint256"
        },
        {
          "indexed": true,
          "internalType": "address",
          "name": "verifier",
          "type": "address"
        }
      ],
      "name": "CommitmentSucceeded",
      "type": "event"
    },
    {
      "anonymous": false,
      "inputs": [
        {
          "indexed": true,
          "internalType": "uint256",
          "name": "commitmentId",
          "type": "uint256"
        },
        {
          "indexed": true,
          "internalType": "address",
          "name": "penaltyReceiver",
          "type": "address"
        },
        {
          "indexed": false,
          "internalType": "uint256",
          "name": "amount",
          "type": "uint256"
        }
      ],
      "name": "PenaltyClaimed",
      "type": "event"
    },
    {
      "anonymous": false,
      "inputs": [
        {
          "indexed": true,
          "internalType": "uint256",
          "name": "commitmentId",
          "type": "uint256"
        },
        {
          "indexed": false,
          "internalType": "string",
          "name": "proofURI",
          "type": "string"
        }
      ],
      "name": "ProofSubmitted",
      "type": "event"
    },
    {
      "anonymous": false,
      "inputs": [
        {
          "indexed": true,
          "internalType": "uint256",
          "name": "commitmentId",
          "type": "uint256"
        },
        {
          "indexed": true,
          "internalType": "address",
          "name": "user",
          "type": "address"
        },
        {
          "indexed": false,
          "internalType": "uint256",
          "name": "amount",
          "type": "uint256"
        }
      ],
      "name": "UserClaimed",
      "type": "event"
    },
    {
      "inputs": [
        {
          "internalType": "uint256",
          "name": "commitmentId",
          "type": "uint256"
        }
      ],
      "name": "claimPenalty",
      "outputs": [],
      "stateMutability": "nonpayable",
      "type": "function"
    },
    {
      "inputs": [
        {
          "internalType": "uint256",
          "name": "commitmentId",
          "type": "uint256"
        }
      ],
      "name": "claimSuccess",
      "outputs": [],
      "stateMutability": "nonpayable",
      "type": "function"
    },
    {
      "inputs": [
        {
          "internalType": "uint256",
          "name": "",
          "type": "uint256"
        }
      ],
      "name": "commitments",
      "outputs": [
        {
          "internalType": "address",
          "name": "user",
          "type": "address"
        },
        {
          "internalType": "address",
          "name": "verifier",
          "type": "address"
        },
        {
          "internalType": "address",
          "name": "penaltyReceiver",
          "type": "address"
        },
        {
          "internalType": "uint256",
          "name": "stake",
          "type": "uint256"
        },
        {
          "internalType": "uint64",
          "name": "createdAt",
          "type": "uint64"
        },
        {
          "internalType": "uint64",
          "name": "deadline",
          "type": "uint64"
        },
        {
          "internalType": "enum TimeLendMVP.Status",
          "name": "status",
          "type": "uint8"
        },
        {
          "internalType": "string",
          "name": "taskURI",
          "type": "string"
        },
        {
          "internalType": "string",
          "name": "proofURI",
          "type": "string"
        }
      ],
      "stateMutability": "view",
      "type": "function"
    },
    {
      "inputs": [
        {
          "internalType": "uint64",
          "name": "durationSeconds",
          "type": "uint64"
        },
        {
          "internalType": "address",
          "name": "verifier",
          "type": "address"
        },
        {
          "internalType": "address",
          "name": "penaltyReceiver",
          "type": "address"
        },
        {
          "internalType": "string",
          "name": "taskURI",
          "type": "string"
        }
      ],
      "name": "createCommitment",
      "outputs": [
        {
          "internalType": "uint256",
          "name": "commitmentId",
          "type": "uint256"
        }
      ],
      "stateMutability": "payable",
      "type": "function"
    },
    {
      "inputs": [
        {
          "internalType": "uint256",
          "name": "commitmentId",
          "type": "uint256"
        }
      ],
      "name": "getCommitment",
      "outputs": [
        {
          "components": [
            {
              "internalType": "address",
              "name": "user",
              "type": "address"
            },
            {
              "internalType": "address",
              "name": "verifier",
              "type": "address"
            },
            {
              "internalType": "address",
              "name": "penaltyReceiver",
              "type": "address"
            },
            {
              "internalType": "uint256",
              "name": "stake",
              "type": "uint256"
            },
            {
              "internalType": "uint64",
              "name": "createdAt",
              "type": "uint64"
            },
            {
              "internalType": "uint64",
              "name": "deadline",
              "type": "uint64"
            },
            {
              "internalType": "enum TimeLendMVP.Status",
              "name": "status",
              "type": "uint8"
            },
            {
              "internalType": "string",
              "name": "taskURI",
              "type": "string"
            },
            {
              "internalType": "string",
              "name": "proofURI",
              "type": "string"
            }
          ],
          "internalType": "struct TimeLendMVP.Commitment",
          "name": "",
          "type": "tuple"
        }
      ],
      "stateMutability": "view",
      "type": "function"
    },
    {
      "inputs": [
        {
          "internalType": "uint256",
          "name": "commitmentId",
          "type": "uint256"
        }
      ],
      "name": "markFailed",
      "outputs": [],
      "stateMutability": "nonpayable",
      "type": "function"
    },
    {
      "inputs": [],
      "name": "nextCommitmentId",
      "outputs": [
        {
          "internalType": "uint256",
          "name": "",
          "type": "uint256"
        }
      ],
      "stateMutability": "view",
      "type": "function"
    },
    {
      "inputs": [
        {
          "internalType": "uint256",
          "name": "commitmentId",
          "type": "uint256"
        },
        {
          "internalType": "string",
          "name": "proofURI",
          "type": "string"
        }
      ],
      "name": "submitProof",
      "outputs": [],
      "stateMutability": "nonpayable",
      "type": "function"
    },
    {
      "inputs": [
        {
          "internalType": "uint256",
          "name": "commitmentId",
          "type": "uint256"
        }
      ],
      "name": "verifySuccess",
      "outputs": [],
      "stateMutability": "nonpayable",
      "type": "function"
    }
  ],
  "bytecode": "0x608060405234801561001057600080fd5b50612333806100206000396000f3fe6080604052600436106100865760003560e01c8063a3d0da4511610059578063a3d0da4514610161578063ba9244f31461018a578063dc14dddf146101b3578063ec05386b146101e3578063f3634a321461020c57610086565b80632af005101461008b57806349ce8997146100b45780635ac48e6d146100f957806369bcdb7d14610124575b600080fd5b34801561009757600080fd5b506100b260048036038101906100ad9190611865565b610235565b005b3480156100c057600080fd5b506100db60048036038101906100d691906118c5565b610408565b6040516100f099989796959493929190611a6c565b60405180910390f35b34801561010557600080fd5b5061010e6105fb565b60405161011b9190611b07565b60405180910390f35b34801561013057600080fd5b5061014b600480360381019061014691906118c5565b610601565b6040516101589190611c74565b60405180910390f35b34801561016d57600080fd5b50610188600480360381019061018391906118c5565b6108fe565b005b34801561019657600080fd5b506101b160048036038101906101ac91906118c5565b610ba1565b005b6101cd60048036038101906101c89190611cee565b610e30565b6040516101da9190611b07565b60405180910390f35b3480156101ef57600080fd5b5061020a600480360381019061020591906118c5565b6112e0565b005b34801561021857600080fd5b50610233600480360381019061022e91906118c5565b61151e565b005b826001600082815260200190815260200160002060000160009054906101000a900473ffffffffffffffffffffffffffffffffffffffff1673ffffffffffffffffffffffffffffffffffffffff163373ffffffffffffffffffffffffffffffffffffffff16146102d1576040517fea8e4eb500000000000000000000000000000000000000000000000000000000815260040160405180910390fd5b6000600160008681526020019081526020016000209050600060048111156102fc576102fb611965565b5b8160040160109054906101000a900460ff1660048111156103205761031f611965565b5b14610357576040517ff525e32000000000000000000000000000000000000000000000000000000000815260040160405180910390fd5b8060040160089054906101000a900467ffffffffffffffff1667ffffffffffffffff164211156103b3576040517fb08ce5b300000000000000000000000000000000000000000000000000000000815260040160405180910390fd5b83838260060191826103c6929190611fbc565b50847fc577bdeb8da1059fec56a8d1554e25846f18ebf046c214b145cac25f76bda35085856040516103f99291906120c8565b60405180910390a25050505050565b60016020528060005260406000206000915090508060000160009054906101000a900473ffffffffffffffffffffffffffffffffffffffff16908060010160009054906101000a900473ffffffffffffffffffffffffffffffffffffffff16908060020160009054906101000a900473ffffffffffffffffffffffffffffffffffffffff16908060030154908060040160009054906101000a900467ffffffffffffffff16908060040160089054906101000a900467ffffffffffffffff16908060040160109054906101000a900460ff16908060050180546104ea90611ddf565b80601f016020809104026020016040519081016040528092919081815260200182805461051690611ddf565b80156105635780601f1061053857610100808354040283529160200191610563565b820191906000526020600020905b81548152906001019060200180831161054657829003601f168201915b50505050509080600601805461057890611ddf565b80601f01602080910402602001604051908101604052809291908181526020018280546105a490611ddf565b80156105f15780601f106105c6576101008083540402835291602001916105f1565b820191906000526020600020905b8154815290600101906020018083116105d457829003601f168201915b5050505050905089565b60005481565b61060961170c565b60016000838152602001908152602001600020604051806101200160405290816000820160009054906101000a900473ffffffffffffffffffffffffffffffffffffffff1673ffffffffffffffffffffffffffffffffffffffff1673ffffffffffffffffffffffffffffffffffffffff1681526020016001820160009054906101000a900473ffffffffffffffffffffffffffffffffffffffff1673ffffffffffffffffffffffffffffffffffffffff1673ffffffffffffffffffffffffffffffffffffffff1681526020016002820160009054906101000a900473ffffffffffffffffffffffffffffffffffffffff1673ffffffffffffffffffffffffffffffffffffffff1673ffffffffffffffffffffffffffffffffffffffff168152602001600382015481526020016004820160009054906101000a900467ffffffffffffffff1667ffffffffffffffff1667ffffffffffffffff1681526020016004820160089054906101000a900467ffffffffffffffff1667ffffffffffffffff1667ffffffffffffffff1681526020016004820160109054906101000a900460ff1660048111156107bd576107bc611965565b5b60048111156107cf576107ce611965565b5b81526020016005820180546107e390611ddf565b80601f016020809104026020016040519081016040528092919081815260200182805461080f90611ddf565b801561085c5780601f106108315761010080835404028352916020019161085c565b820191906000526020600020905b81548152906001019060200180831161083f57829003601f168201915b5050505050815260200160068201805461087590611ddf565b80601f01602080910402602001604051908101604052809291908181526020018280546108a190611ddf565b80156108ee5780601f106108c3576101008083540402835291602001916108ee565b820191906000526020600020905b8154815290600101906020018083116108d157829003601f168201915b5050505050815250509050919050565b806001600082815260200190815260200160002060000160009054906101000a900473ffffffffffffffffffffffffffffffffffffffff1673ffffffffffffffffffffffffffffffffffffffff163373ffffffffffffffffffffffffffffffffffffffff161461099a576040517fea8e4eb500000000000000000000000000000000000000000000000000000000815260040160405180910390fd5b6000600160008481526020019081526020016000209050600160048111156109c5576109c4611965565b5b8160040160109054906101000a900460ff1660048111156109e9576109e8611965565b5b14610a20576040517ff525e32000000000000000000000000000000000000000000000000000000000815260040160405180910390fd5b6000816003015490506000826003018190555060038260040160106101000a81548160ff02191690836004811115610a5b57610a5a611965565b5b021790555060008260000160009054906101000a900473ffffffffffffffffffffffffffffffffffffffff1673ffffffffffffffffffffffffffffffffffffffff1682604051610aaa9061211d565b60006040518083038185875af1925050503d8060008114610ae7576040519150601f19603f3d011682016040523d82523d6000602084013e610aec565b606091505b5050905080610b27576040517f90b8ec1800000000000000000000000000000000000000000000000000000000815260040160405180910390fd5b8260000160009054906101000a900473ffffffffffffffffffffffffffffffffffffffff1673ffffffffffffffffffffffffffffffffffffffff16857fff29b281372993483c1ce6b621ae07832d519c2294e43340f051312701ad132a84604051610b929190611b07565b60405180910390a35050505050565b60006001600083815260200190815260200160002090508060020160009054906101000a900473ffffffffffffffffffffffffffffffffffffffff1673ffffffffffffffffffffffffffffffffffffffff163373ffffffffffffffffffffffffffffffffffffffff1614610c41576040517fea8e4eb500000000000000000000000000000000000000000000000000000000815260040160405180910390fd5b60026004811115610c5557610c54611965565b5b8160040160109054906101000a900460ff166004811115610c7957610c78611965565b5b14610cb0576040517ff525e32000000000000000000000000000000000000000000000000000000000815260040160405180910390fd5b6000816003015490506000826003018190555060048260040160106101000a81548160ff02191690836004811115610ceb57610cea611965565b5b021790555060008260020160009054906101000a900473ffffffffffffffffffffffffffffffffffffffff1673ffffffffffffffffffffffffffffffffffffffff1682604051610d3a9061211d565b60006040518083038185875af1925050503d8060008114610d77576040519150601f19603f3d011682016040523d82523d6000602084013e610d7c565b606091505b5050905080610db7576040517f90b8ec1800000000000000000000000000000000000000000000000000000000815260040160405180910390fd5b8260020160009054906101000a900473ffffffffffffffffffffffffffffffffffffffff1673ffffffffffffffffffffffffffffffffffffffff16847f1da6efa987842bde49218d10428922f7fda8711188ea3496efeb21764f258b5684604051610e229190611b07565b60405180910390a350505050565b6000803403610e6b576040517faa7feadc00000000000000000000000000000000000000000000000000000000815260040160405180910390fd5b60008667ffffffffffffffff1603610eaf576040517f769d11e400000000000000000000000000000000000000000000000000000000815260040160405180910390fd5b600073ffffffffffffffffffffffffffffffffffffffff168573ffffffffffffffffffffffffffffffffffffffff1603610f15576040517fea8e4eb500000000000000000000000000000000000000000000000000000000815260040160405180910390fd5b600073ffffffffffffffffffffffffffffffffffffffff168473ffffffffffffffffffffffffffffffffffffffff1603610f7b576040517fea8e4eb500000000000000000000000000000000000000000000000000000000815260040160405180910390fd5b600080815480929190610f8d90612161565b9190505590506040518061012001604052803373ffffffffffffffffffffffffffffffffffffffff1681526020018673ffffffffffffffffffffffffffffffffffffffff1681526020018573ffffffffffffffffffffffffffffffffffffffff1681526020013481526020014267ffffffffffffffff1681526020018767ffffffffffffffff164261101f91906121a9565b67ffffffffffffffff1681526020016000600481111561104257611041611965565b5b815260200184848080601f016020809104026020016040519081016040528093929190818152602001838380828437600081840152601f19601f820116905080830192505050505050508152602001604051806020016040528060008152508152506001600083815260200190815260200160002060008201518160000160006101000a81548173ffffffffffffffffffffffffffffffffffffffff021916908373ffffffffffffffffffffffffffffffffffffffff16021790555060208201518160010160006101000a81548173ffffffffffffffffffffffffffffffffffffffff021916908373ffffffffffffffffffffffffffffffffffffffff16021790555060408201518160020160006101000a81548173ffffffffffffffffffffffffffffffffffffffff021916908373ffffffffffffffffffffffffffffffffffffffff1602179055506060820151816003015560808201518160040160006101000a81548167ffffffffffffffff021916908367ffffffffffffffff16021790555060a08201518160040160086101000a81548167ffffffffffffffff021916908367ffffffffffffffff16021790555060c08201518160040160106101000a81548160ff0219169083600481111561121f5761121e611965565b5b021790555060e082015181600501908161123991906121dd565b5061010082015181600601908161125091906121dd565b509050508473ffffffffffffffffffffffffffffffffffffffff163373ffffffffffffffffffffffffffffffffffffffff16827f6689af6c57de4141dc8bba1bc8b6aa283429662ca5992e43bf1c394c8204467687348b67ffffffffffffffff16426112bc91906121a9565b89896040516112cf9594939291906122af565b60405180910390a495945050505050565b806001600082815260200190815260200160002060010160009054906101000a900473ffffffffffffffffffffffffffffffffffffffff1673ffffffffffffffffffffffffffffffffffffffff163373ffffffffffffffffffffffffffffffffffffffff161461137c576040517fea8e4eb500000000000000000000000000000000000000000000000000000000815260040160405180910390fd5b6000600160008481526020019081526020016000209050600060048111156113a7576113a6611965565b5b8160040160109054906101000a900460ff1660048111156113cb576113ca611965565b5b14611402576040517ff525e32000000000000000000000000000000000000000000000000000000000815260040160405180910390fd5b8060040160089054906101000a900467ffffffffffffffff1667ffffffffffffffff1642111561145e576040517fb08ce5b300000000000000000000000000000000000000000000000000000000815260040160405180910390fd5b600081600601805461146f90611ddf565b9050036114a8576040517f24bca7cc00000000000000000000000000000000000000000000000000000000815260040160405180910390fd5b60018160040160106101000a81548160ff021916908360048111156114d0576114cf611965565b5b02179055503373ffffffffffffffffffffffffffffffffffffffff16837fbce1a267f2292ae376e30f717f81329dbd1e8195be429b4c480d848852ae54c460405160405180910390a3505050565b60006001600083815260200190815260200160002090506000600481111561154957611548611965565b5b8160040160109054906101000a900460ff16600481111561156d5761156c611965565b5b146115a4576040517ff525e32000000000000000000000000000000000000000000000000000000000815260040160405180910390fd5b60008160010160009054906101000a900473ffffffffffffffffffffffffffffffffffffffff1673ffffffffffffffffffffffffffffffffffffffff163373ffffffffffffffffffffffffffffffffffffffff1614801561162757508160040160089054906101000a900467ffffffffffffffff1667ffffffffffffffff164211155b905060008260040160089054906101000a900467ffffffffffffffff1667ffffffffffffffff16421190508115801561165e575080155b15611695576040517fea8e4eb500000000000000000000000000000000000000000000000000000000815260040160405180910390fd5b60028360040160106101000a81548160ff021916908360048111156116bd576116bc611965565b5b02179055503373ffffffffffffffffffffffffffffffffffffffff16847f0ad61c80e55efa6d7131b5dafdef10ca9a01f48cb23f8933fad77d8836ae32c760405160405180910390a350505050565b604051806101200160405280600073ffffffffffffffffffffffffffffffffffffffff168152602001600073ffffffffffffffffffffffffffffffffffffffff168152602001600073ffffffffffffffffffffffffffffffffffffffff16815260200160008152602001600067ffffffffffffffff168152602001600067ffffffffffffffff168152602001600060048111156117ac576117ab611965565b5b815260200160608152602001606081525090565b600080fd5b600080fd5b6000819050919050565b6117dd816117ca565b81146117e857600080fd5b50565b6000813590506117fa816117d4565b92915050565b600080fd5b600080fd5b600080fd5b60008083601f84011261182557611824611800565b5b8235905067ffffffffffffffff81111561184257611841611805565b5b60208301915083600182028301111561185e5761185d61180a565b5b9250929050565b60008060006040848603121561187e5761187d6117c0565b5b600061188c868287016117eb565b935050602084013567ffffffffffffffff8111156118ad576118ac6117c5565b5b6118b98682870161180f565b92509250509250925092565b6000602082840312156118db576118da6117c0565b5b60006118e9848285016117eb565b91505092915050565b600073ffffffffffffffffffffffffffffffffffffffff82169050919050565b600061191d826118f2565b9050919050565b61192d81611912565b82525050565b61193c816117ca565b82525050565b600067ffffffffffffffff82169050919050565b61195f81611942565b82525050565b7f4e487b7100000000000000000000000000000000000000000000000000000000600052602160045260246000fd5b600581106119a5576119a4611965565b5b50565b60008190506119b682611994565b919050565b60006119c6826119a8565b9050919050565b6119d6816119bb565b82525050565b600081519050919050565b600082825260208201905092915050565b60005b83811015611a165780820151818401526020810190506119fb565b60008484015250505050565b6000601f19601f8301169050919050565b6000611a3e826119dc565b611a4881856119e7565b9350611a588185602086016119f8565b611a6181611a22565b840191505092915050565b600061012082019050611a82600083018c611924565b611a8f602083018b611924565b611a9c604083018a611924565b611aa96060830189611933565b611ab66080830188611956565b611ac360a0830187611956565b611ad060c08301866119cd565b81810360e0830152611ae28185611a33565b9050818103610100830152611af78184611a33565b90509a9950505050505050505050565b6000602082019050611b1c6000830184611933565b92915050565b611b2b81611912565b82525050565b611b3a816117ca565b82525050565b611b4981611942565b82525050565b611b58816119bb565b82525050565b600082825260208201905092915050565b6000611b7a826119dc565b611b848185611b5e565b9350611b948185602086016119f8565b611b9d81611a22565b840191505092915050565b600061012083016000830151611bc16000860182611b22565b506020830151611bd46020860182611b22565b506040830151611be76040860182611b22565b506060830151611bfa6060860182611b31565b506080830151611c0d6080860182611b40565b5060a0830151611c2060a0860182611b40565b5060c0830151611c3360c0860182611b4f565b5060e083015184820360e0860152611c4b8282611b6f565b915050610100830151848203610100860152611c678282611b6f565b9150508091505092915050565b60006020820190508181036000830152611c8e8184611ba8565b905092915050565b611c9f81611942565b8114611caa57600080fd5b50565b600081359050611cbc81611c96565b92915050565b611ccb81611912565b8114611cd657600080fd5b50565b600081359050611ce881611cc2565b92915050565b600080600080600060808688031215611d0a57611d096117c0565b5b6000611d1888828901611cad565b9550506020611d2988828901611cd9565b9450506040611d3a88828901611cd9565b935050606086013567ffffffffffffffff811115611d5b57611d5a6117c5565b5b611d678882890161180f565b92509250509295509295909350565b600082905092915050565b7f4e487b7100000000000000000000000000000000000000000000000000000000600052604160045260246000fd5b7f4e487b7100000000000000000000000000000000000000000000000000000000600052602260045260246000fd5b60006002820490506001821680611df757607f821691505b602082108103611e0a57611e09611db0565b5b50919050565b60008190508160005260206000209050919050565b60006020601f8301049050919050565b600082821b905092915050565b600060088302611e727fffffffffffffffffffffffffffffffffffffffffffffffffffffffffffffffff82611e35565b611e7c8683611e35565b95508019841693508086168417925050509392505050565b6000819050919050565b6000611eb9611eb4611eaf846117ca565b611e94565b6117ca565b9050919050565b6000819050919050565b611ed383611e9e565b611ee7611edf82611ec0565b848454611e42565b825550505050565b600090565b611efc611eef565b611f07818484611eca565b505050565b5b81811015611f2b57611f20600082611ef4565b600181019050611f0d565b5050565b601f821115611f7057611f4181611e10565b611f4a84611e25565b81016020851015611f59578190505b611f6d611f6585611e25565b830182611f0c565b50505b505050565b600082821c905092915050565b6000611f9360001984600802611f75565b1980831691505092915050565b6000611fac8383611f82565b9150826002028217905092915050565b611fc68383611d76565b67ffffffffffffffff811115611fdf57611fde611d81565b5b611fe98254611ddf565b611ff4828285611f2f565b6000601f8311600181146120235760008415612011578287013590505b61201b8582611fa0565b865550612083565b601f19841661203186611e10565b60005b8281101561205957848901358255600182019150602085019450602081019050612034565b868310156120765784890135612072601f891682611f82565b8355505b6001600288020188555050505b50505050505050565b82818337600083830152505050565b60006120a783856119e7565b93506120b483858461208c565b6120bd83611a22565b840190509392505050565b600060208201905081810360008301526120e381848661209b565b90509392505050565b600081905092915050565b50565b60006121076000836120ec565b9150612112826120f7565b600082019050919050565b6000612128826120fa565b9150819050919050565b7f4e487b7100000000000000000000000000000000000000000000000000000000600052601160045260246000fd5b600061216c826117ca565b91507fffffffffffffffffffffffffffffffffffffffffffffffffffffffffffffffff820361219e5761219d612132565b5b600182019050919050565b60006121b4826117ca565b91506121bf836117ca565b92508282019050808211156121d7576121d6612132565b5b92915050565b6121e6826119dc565b67ffffffffffffffff8111156121ff576121fe611d81565b5b6122098254611ddf565b612214828285611f2f565b600060209050601f8311600181146122475760008415612235578287015190505b61223f8582611fa0565b8655506122a7565b601f19841661225586611e10565b60005b8281101561227d57848901518255600182019150602085019450602081019050612258565b8683101561229a5784890151612296601f891682611f82565b8355505b6001600288020188555050505b505050505050565b60006080820190506122c46000830188611924565b6122d16020830187611933565b6122de6040830186611956565b81810360608301526122f181848661209b565b9050969550505050505056fea264697066735822122007d8e19234bdd4290073fdbc66511f56c6e0622a4ad00ba419c4f17f8547b63c64736f6c63430008180033",
  "linkReferences": {},
  "deployedLinkReferences": {}
}