{
  "_format": "hh-sol-artifact-1",
  "contractName": "TimeLendMVP",
  "sourceName": "contracts/TimeLendMVP.sol",
  "abi": [
    {
      "inputs": [
        {
          "internalType": "address",
          "name": "penaltyReceiver",
          "type": "address"
        }
      ],
      "stateMutability": "nonpayable",
      "type": "constructor"
    },
    {
      "inputs": [],
      "name": "CommitmentNotFound",
      "type": "error"
    },
    {
      "inputs": [],
      "name": "InvalidDeadline",
      "type": "error"
    },
    {
      "inputs": [],
      "name": "InvalidStatus",
      "type": "error"
    },
    {
      "inputs": [],
      "name": "InvalidTaskDescription",
      "type": "error"
    },
    {
      "inputs": [],
      "name": "InvalidValue",
      "type": "error"
    },
    {
      "inputs": [],
      "name": "NotAuthorized",
      "type": "error"
    },
    {
      "inputs": [],
      "name": "TransferFailed",
      "type": "error"
    },
    {
      "inputs": [],
      "name": "ZeroAddress",
      "type": "error"
    },
    {
      "anonymous": false,
      "inputs": [
        {
          "indexed": true,
          "internalType": "uint256",
          "name": "commitmentId",
          "type": "uint256"
        },
        {
          "indexed": true,
          "internalType": "address",
          "name": "user",
          "type": "address"
        },
        {
          "indexed": false,
          "internalType": "address",
          "name": "penaltyReceiver",
          "type": "address"
        },
        {
          "indexed": false,
          "internalType": "uint256",
          "name": "stake",
          "type": "uint256"
        },
        {
          "indexed": false,
          "internalType": "uint64",
          "name": "deadline",
          "type": "uint64"
        },
        {
          "indexed": false,
          "internalType": "string",
          "name": "taskDescription",
          "type": "string"
        }
      ],
      "name": "CommitmentCreated",
      "type": "event"
    },
    {
      "anonymous": false,
      "inputs": [
        {
          "indexed": true,
          "internalType": "uint256",
          "name": "commitmentId",
          "type": "uint256"
        },
        {
          "indexed": false,
          "internalType": "bool",
          "name": "passed",
          "type": "bool"
        },
        {
          "indexed": true,
          "internalType": "address",
          "name": "recipient",
          "type": "address"
        },
        {
          "indexed": false,
          "internalType": "uint256",
          "name": "amount",
          "type": "uint256"
        }
      ],
      "name": "CommitmentResolved",
      "type": "event"
    },
    {
      "inputs": [
        {
          "internalType": "uint64",
          "name": "durationSeconds",
          "type": "uint64"
        },
        {
          "internalType": "string",
          "name": "taskDescription",
          "type": "string"
        }
      ],
      "name": "createCommitment",
      "outputs": [
        {
          "internalType": "uint256",
          "name": "commitmentId",
          "type": "uint256"
        }
      ],
      "stateMutability": "payable",
      "type": "function"
    },
    {
      "inputs": [],
      "name": "defaultPenaltyReceiver",
      "outputs": [
        {
          "internalType": "address",
          "name": "",
          "type": "address"
        }
      ],
      "stateMutability": "view",
      "type": "function"
    },
    {
      "inputs": [
        {
          "internalType": "uint256",
          "name": "commitmentId",
          "type": "uint256"
        }
      ],
      "name": "getCommitment",
      "outputs": [
        {
          "components": [
            {
              "internalType": "address",
              "name": "user",
              "type": "address"
            },
            {
              "internalType": "address",
              "name": "penaltyReceiver",
              "type": "address"
            },
            {
              "internalType": "uint256",
              "name": "stake",
              "type": "uint256"
            },
            {
              "internalType": "uint64",
              "name": "createdAt",
              "type": "uint64"
            },
            {
              "internalType": "uint64",
              "name": "deadline",
              "type": "uint64"
            },
            {
              "internalType": "enum TimeLendMVP.Status",
              "name": "status",
              "type": "uint8"
            },
            {
              "internalType": "string",
              "name": "taskDescription",
              "type": "string"
            }
          ],
          "internalType": "struct TimeLendMVP.Commitment",
          "name": "",
          "type": "tuple"
        }
      ],
      "stateMutability": "view",
      "type": "function"
    },
    {
      "inputs": [],
      "name": "nextCommitmentId",
      "outputs": [
        {
          "internalType": "uint256",
          "name": "",
          "type": "uint256"
        }
      ],
      "stateMutability": "view",
      "type": "function"
    },
    {
      "inputs": [
        {
          "internalType": "uint256",
          "name": "commitmentId",
          "type": "uint256"
        },
        {
          "internalType": "bool",
          "name": "passed",
          "type": "bool"
        }
      ],
      "name": "resolveCommitment",
      "outputs": [],
      "stateMutability": "nonpayable",
      "type": "function"
    },
    {
      "inputs": [],
      "name": "resolver",
      "outputs": [
        {
          "internalType": "address",
          "name": "",
          "type": "address"
        }
      ],
      "stateMutability": "view",
      "type": "function"
    }
  ],
  "bytecode": "0x60c06040523480156200001157600080fd5b506040516200169e3803806200169e833981810160405281019062000037919062000177565b600073ffffffffffffffffffffffffffffffffffffffff168173ffffffffffffffffffffffffffffffffffffffff16036200009e576040517fd92e233d00000000000000000000000000000000000000000000000000000000815260040160405180910390fd5b8073ffffffffffffffffffffffffffffffffffffffff1660808173ffffffffffffffffffffffffffffffffffffffff16815250503373ffffffffffffffffffffffffffffffffffffffff1660a08173ffffffffffffffffffffffffffffffffffffffff168152505050620001a9565b600080fd5b600073ffffffffffffffffffffffffffffffffffffffff82169050919050565b60006200013f8262000112565b9050919050565b620001518162000132565b81146200015d57600080fd5b50565b600081519050620001718162000146565b92915050565b60006020828403121562000190576200018f6200010d565b5b6000620001a08482850162000160565b91505092915050565b60805160a0516114ba620001e46000396000818161017301526103d5015260008181610197015281816108210152610a6f01526114ba6000f3fe6080604052600436106100555760003560e01c806304f3bcec1461005a578063571a0606146100855780635ac48e6d146100b057806369bcdb7d146100db578063d08a1a7214610118578063f028289414610141575b600080fd5b34801561006657600080fd5b5061006f610171565b60405161007c9190610b83565b60405180910390f35b34801561009157600080fd5b5061009a610195565b6040516100a79190610b83565b60405180910390f35b3480156100bc57600080fd5b506100c56101b9565b6040516100d29190610bb7565b60405180910390f35b3480156100e757600080fd5b5061010260048036038101906100fd9190610c08565b6101bf565b60405161010f9190610e19565b60405180910390f35b34801561012457600080fd5b5061013f600480360381019061013a9190610e73565b6103d3565b005b61015b60048036038101906101569190610f44565b61070a565b6040516101689190610bb7565b60405180910390f35b7f000000000000000000000000000000000000000000000000000000000000000081565b7f000000000000000000000000000000000000000000000000000000000000000081565b60005481565b6101c7610ab3565b600160008381526020019081526020016000206040518060e00160405290816000820160009054906101000a900473ffffffffffffffffffffffffffffffffffffffff1673ffffffffffffffffffffffffffffffffffffffff1673ffffffffffffffffffffffffffffffffffffffff1681526020016001820160009054906101000a900473ffffffffffffffffffffffffffffffffffffffff1673ffffffffffffffffffffffffffffffffffffffff1673ffffffffffffffffffffffffffffffffffffffff168152602001600282015481526020016003820160009054906101000a900467ffffffffffffffff1667ffffffffffffffff1667ffffffffffffffff1681526020016003820160089054906101000a900467ffffffffffffffff1667ffffffffffffffff1667ffffffffffffffff1681526020016003820160109054906101000a900460ff16600281111561032457610323610c76565b5b600281111561033657610335610c76565b5b815260200160048201805461034a90610fd3565b80601f016020809104026020016040519081016040528092919081815260200182805461037690610fd3565b80156103c35780601f10610398576101008083540402835291602001916103c3565b820191906000526020600020905b8154815290600101906020018083116103a657829003601f168201915b5050505050815250509050919050565b7f000000000000000000000000000000000000000000000000000000000000000073ffffffffffffffffffffffffffffffffffffffff163373ffffffffffffffffffffffffffffffffffffffff1614610458576040517fea8e4eb500000000000000000000000000000000000000000000000000000000815260040160405180910390fd5b6000600160008481526020019081526020016000209050600073ffffffffffffffffffffffffffffffffffffffff168160000160009054906101000a900473ffffffffffffffffffffffffffffffffffffffff1673ffffffffffffffffffffffffffffffffffffffff16036104f9576040517fb6682ad200000000000000000000000000000000000000000000000000000000815260040160405180910390fd5b6000600281111561050d5761050c610c76565b5b8160030160109054906101000a900460ff16600281111561053157610530610c76565b5b14610568576040517ff525e32000000000000000000000000000000000000000000000000000000000815260040160405180910390fd5b600081600201549050600082600201819055506000836105ac578260010160009054906101000a900473ffffffffffffffffffffffffffffffffffffffff166105d2565b8260000160009054906101000a900473ffffffffffffffffffffffffffffffffffffffff165b9050836105e05760026105e3565b60015b8360030160106101000a81548160ff0219169083600281111561060957610608610c76565b5b021790555060008173ffffffffffffffffffffffffffffffffffffffff168360405161063490611035565b60006040518083038185875af1925050503d8060008114610671576040519150601f19603f3d011682016040523d82523d6000602084013e610676565b606091505b50509050806106b1576040517f90b8ec1800000000000000000000000000000000000000000000000000000000815260040160405180910390fd5b8173ffffffffffffffffffffffffffffffffffffffff16867f558e12c28b802d0781a82083cf2150ae43903697d7b0b8eedbfd16cc64eae30087866040516106fa929190611059565b60405180910390a3505050505050565b6000803403610745576040517faa7feadc00000000000000000000000000000000000000000000000000000000815260040160405180910390fd5b60008467ffffffffffffffff1603610789576040517f769d11e400000000000000000000000000000000000000000000000000000000815260040160405180910390fd5b600083839050036107c6576040517fd2ce645c00000000000000000000000000000000000000000000000000000000815260040160405180910390fd5b60008467ffffffffffffffff16426107de91906110b1565b90506000808154809291906107f2906110e5565b9190505591506040518060e001604052803373ffffffffffffffffffffffffffffffffffffffff1681526020017f000000000000000000000000000000000000000000000000000000000000000073ffffffffffffffffffffffffffffffffffffffff1681526020013481526020014267ffffffffffffffff1681526020018267ffffffffffffffff1681526020016000600281111561089557610894610c76565b5b815260200185858080601f016020809104026020016040519081016040528093929190818152602001838380828437600081840152601f19601f820116905080830192505050505050508152506001600084815260200190815260200160002060008201518160000160006101000a81548173ffffffffffffffffffffffffffffffffffffffff021916908373ffffffffffffffffffffffffffffffffffffffff16021790555060208201518160010160006101000a81548173ffffffffffffffffffffffffffffffffffffffff021916908373ffffffffffffffffffffffffffffffffffffffff1602179055506040820151816002015560608201518160030160006101000a81548167ffffffffffffffff021916908367ffffffffffffffff16021790555060808201518160030160086101000a81548167ffffffffffffffff021916908367ffffffffffffffff16021790555060a08201518160030160106101000a81548160ff02191690836002811115610a1657610a15610c76565b5b021790555060c0820151816004019081610a309190611308565b509050503373ffffffffffffffffffffffffffffffffffffffff16827f6f0aaec86971fe0393d6f3cf974191894c0f33f56ec564a8168c1e1c1419b0cb7f000000000000000000000000000000000000000000000000000000000000000034858989604051610aa3959493929190611436565b60405180910390a3509392505050565b6040518060e00160405280600073ffffffffffffffffffffffffffffffffffffffff168152602001600073ffffffffffffffffffffffffffffffffffffffff16815260200160008152602001600067ffffffffffffffff168152602001600067ffffffffffffffff16815260200160006002811115610b3557610b34610c76565b5b8152602001606081525090565b600073ffffffffffffffffffffffffffffffffffffffff82169050919050565b6000610b6d82610b42565b9050919050565b610b7d81610b62565b82525050565b6000602082019050610b986000830184610b74565b92915050565b6000819050919050565b610bb181610b9e565b82525050565b6000602082019050610bcc6000830184610ba8565b92915050565b600080fd5b600080fd5b610be581610b9e565b8114610bf057600080fd5b50565b600081359050610c0281610bdc565b92915050565b600060208284031215610c1e57610c1d610bd2565b5b6000610c2c84828501610bf3565b91505092915050565b610c3e81610b62565b82525050565b610c4d81610b9e565b82525050565b600067ffffffffffffffff82169050919050565b610c7081610c53565b82525050565b7f4e487b7100000000000000000000000000000000000000000000000000000000600052602160045260246000fd5b60038110610cb657610cb5610c76565b5b50565b6000819050610cc782610ca5565b919050565b6000610cd782610cb9565b9050919050565b610ce781610ccc565b82525050565b600081519050919050565b600082825260208201905092915050565b60005b83811015610d27578082015181840152602081019050610d0c565b60008484015250505050565b6000601f19601f8301169050919050565b6000610d4f82610ced565b610d598185610cf8565b9350610d69818560208601610d09565b610d7281610d33565b840191505092915050565b600060e083016000830151610d956000860182610c35565b506020830151610da86020860182610c35565b506040830151610dbb6040860182610c44565b506060830151610dce6060860182610c67565b506080830151610de16080860182610c67565b5060a0830151610df460a0860182610cde565b5060c083015184820360c0860152610e0c8282610d44565b9150508091505092915050565b60006020820190508181036000830152610e338184610d7d565b905092915050565b60008115159050919050565b610e5081610e3b565b8114610e5b57600080fd5b50565b600081359050610e6d81610e47565b92915050565b60008060408385031215610e8a57610e89610bd2565b5b6000610e9885828601610bf3565b9250506020610ea985828601610e5e565b9150509250929050565b610ebc81610c53565b8114610ec757600080fd5b50565b600081359050610ed981610eb3565b92915050565b600080fd5b600080fd5b600080fd5b60008083601f840112610f0457610f03610edf565b5b8235905067ffffffffffffffff811115610f2157610f20610ee4565b5b602083019150836001820283011115610f3d57610f3c610ee9565b5b9250929050565b600080600060408486031215610f5d57610f5c610bd2565b5b6000610f6b86828701610eca565b935050602084013567ffffffffffffffff811115610f8c57610f8b610bd7565b5b610f9886828701610eee565b92509250509250925092565b7f4e487b7100000000000000000000000000000000000000000000000000000000600052602260045260246000fd5b60006002820490506001821680610feb57607f821691505b602082108103610ffe57610ffd610fa4565b5b50919050565b600081905092915050565b50565b600061101f600083611004565b915061102a8261100f565b600082019050919050565b600061104082611012565b9150819050919050565b61105381610e3b565b82525050565b600060408201905061106e600083018561104a565b61107b6020830184610ba8565b9392505050565b7f4e487b7100000000000000000000000000000000000000000000000000000000600052601160045260246000fd5b60006110bc82610b9e565b91506110c783610b9e565b92508282019050808211156110df576110de611082565b5b92915050565b60006110f082610b9e565b91507fffffffffffffffffffffffffffffffffffffffffffffffffffffffffffffffff820361112257611121611082565b5b600182019050919050565b7f4e487b7100000000000000000000000000000000000000000000000000000000600052604160045260246000fd5b60008190508160005260206000209050919050565b60006020601f8301049050919050565b600082821b905092915050565b6000600883026111be7fffffffffffffffffffffffffffffffffffffffffffffffffffffffffffffffff82611181565b6111c88683611181565b95508019841693508086168417925050509392505050565b6000819050919050565b60006112056112006111fb84610b9e565b6111e0565b610b9e565b9050919050565b6000819050919050565b61121f836111ea565b61123361122b8261120c565b84845461118e565b825550505050565b600090565b61124861123b565b611253818484611216565b505050565b5b818110156112775761126c600082611240565b600181019050611259565b5050565b601f8211156112bc5761128d8161115c565b61129684611171565b810160208510156112a5578190505b6112b96112b185611171565b830182611258565b50505b505050565b600082821c905092915050565b60006112df600019846008026112c1565b1980831691505092915050565b60006112f883836112ce565b9150826002028217905092915050565b61131182610ced565b67ffffffffffffffff81111561132a5761132961112d565b5b6113348254610fd3565b61133f82828561127b565b600060209050601f8311600181146113725760008415611360578287015190505b61136a85826112ec565b8655506113d2565b601f1984166113808661115c565b60005b828110156113a857848901518255600182019150602085019450602081019050611383565b868310156113c557848901516113c1601f8916826112ce565b8355505b6001600288020188555050505b505050505050565b6113e381610c53565b82525050565b600082825260208201905092915050565b82818337600083830152505050565b600061141583856113e9565b93506114228385846113fa565b61142b83610d33565b840190509392505050565b600060808201905061144b6000830188610b74565b6114586020830187610ba8565b61146560408301866113da565b8181036060830152611478818486611409565b9050969550505050505056fea26469706673582212205404ee2692a375882dee8791047c6dc1cfa69c8f413d774c4e44c9f598a3e01a64736f6c63430008180033",
  "linkReferences": {},
  "deployedLinkReferences": {}
}